ARM GAS  C:\Users\natha\AppData\Local\Temp\ccy8crBk.s 			page 1


   1              		.syntax unified
   2              		.cpu cortex-m3
   3              		.fpu softvfp
   4              		.eabi_attribute 20, 1
   5              		.eabi_attribute 21, 1
   6              		.eabi_attribute 23, 3
   7              		.eabi_attribute 24, 1
   8              		.eabi_attribute 25, 1
   9              		.eabi_attribute 26, 1
  10              		.eabi_attribute 30, 1
  11              		.eabi_attribute 34, 1
  12              		.eabi_attribute 18, 4
  13              		.thumb
  14              		.file	"ConsolePort_2_RegD0.c"
  15              		.text
  16              	.Ltext0:
  17              		.cfi_sections	.debug_frame
  18              		.section	.text.ConsolePort_2_RegD0_EnableInt,"ax",%progbits
  19              		.align	2
  20              		.global	ConsolePort_2_RegD0_EnableInt
  21              		.thumb
  22              		.thumb_func
  23              		.type	ConsolePort_2_RegD0_EnableInt, %function
  24              	ConsolePort_2_RegD0_EnableInt:
  25              	.LFB4:
  26              		.file 1 "Generated_Source\\PSoC5\\ConsolePort_2_RegD0.c"
   1:Generated_Source\PSoC5/ConsolePort_2_RegD0.c **** /*******************************************************************************
   2:Generated_Source\PSoC5/ConsolePort_2_RegD0.c **** * File Name: ConsolePort_2_RegD0.c
   3:Generated_Source\PSoC5/ConsolePort_2_RegD0.c **** * Version 2.30
   4:Generated_Source\PSoC5/ConsolePort_2_RegD0.c **** *
   5:Generated_Source\PSoC5/ConsolePort_2_RegD0.c **** * Description:
   6:Generated_Source\PSoC5/ConsolePort_2_RegD0.c **** *  This file provides the API source code for the Shift Register component.
   7:Generated_Source\PSoC5/ConsolePort_2_RegD0.c **** *
   8:Generated_Source\PSoC5/ConsolePort_2_RegD0.c **** * Note: none
   9:Generated_Source\PSoC5/ConsolePort_2_RegD0.c **** *
  10:Generated_Source\PSoC5/ConsolePort_2_RegD0.c **** ********************************************************************************
  11:Generated_Source\PSoC5/ConsolePort_2_RegD0.c **** * Copyright 2008-2013, Cypress Semiconductor Corporation.  All rights reserved.
  12:Generated_Source\PSoC5/ConsolePort_2_RegD0.c **** * You may use this file only in accordance with the license, terms, conditions,
  13:Generated_Source\PSoC5/ConsolePort_2_RegD0.c **** * disclaimers, and limitations in the end user license agreement accompanying
  14:Generated_Source\PSoC5/ConsolePort_2_RegD0.c **** * the software package with which this file was provided.
  15:Generated_Source\PSoC5/ConsolePort_2_RegD0.c **** ********************************************************************************/
  16:Generated_Source\PSoC5/ConsolePort_2_RegD0.c **** 
  17:Generated_Source\PSoC5/ConsolePort_2_RegD0.c **** #include "ConsolePort_2_RegD0.h"
  18:Generated_Source\PSoC5/ConsolePort_2_RegD0.c **** 
  19:Generated_Source\PSoC5/ConsolePort_2_RegD0.c **** uint8 ConsolePort_2_RegD0_initVar = 0u;
  20:Generated_Source\PSoC5/ConsolePort_2_RegD0.c **** 
  21:Generated_Source\PSoC5/ConsolePort_2_RegD0.c **** 
  22:Generated_Source\PSoC5/ConsolePort_2_RegD0.c **** /*******************************************************************************
  23:Generated_Source\PSoC5/ConsolePort_2_RegD0.c **** * Function Name: ConsolePort_2_RegD0_Start
  24:Generated_Source\PSoC5/ConsolePort_2_RegD0.c **** ********************************************************************************
  25:Generated_Source\PSoC5/ConsolePort_2_RegD0.c **** *
  26:Generated_Source\PSoC5/ConsolePort_2_RegD0.c **** * Summary:
  27:Generated_Source\PSoC5/ConsolePort_2_RegD0.c **** *  Starts the Shift Register.
  28:Generated_Source\PSoC5/ConsolePort_2_RegD0.c **** *
  29:Generated_Source\PSoC5/ConsolePort_2_RegD0.c **** * Parameters:
  30:Generated_Source\PSoC5/ConsolePort_2_RegD0.c **** *  None.
  31:Generated_Source\PSoC5/ConsolePort_2_RegD0.c **** *
ARM GAS  C:\Users\natha\AppData\Local\Temp\ccy8crBk.s 			page 2


  32:Generated_Source\PSoC5/ConsolePort_2_RegD0.c **** * Return:
  33:Generated_Source\PSoC5/ConsolePort_2_RegD0.c **** *  None.
  34:Generated_Source\PSoC5/ConsolePort_2_RegD0.c **** *
  35:Generated_Source\PSoC5/ConsolePort_2_RegD0.c **** * Global Variables:
  36:Generated_Source\PSoC5/ConsolePort_2_RegD0.c **** *  ConsolePort_2_RegD0_initVar - used to check initial configuration, modified on
  37:Generated_Source\PSoC5/ConsolePort_2_RegD0.c **** *  first function call.
  38:Generated_Source\PSoC5/ConsolePort_2_RegD0.c **** *
  39:Generated_Source\PSoC5/ConsolePort_2_RegD0.c **** * Reentrant:
  40:Generated_Source\PSoC5/ConsolePort_2_RegD0.c **** *  No.
  41:Generated_Source\PSoC5/ConsolePort_2_RegD0.c **** *
  42:Generated_Source\PSoC5/ConsolePort_2_RegD0.c **** *******************************************************************************/
  43:Generated_Source\PSoC5/ConsolePort_2_RegD0.c **** void ConsolePort_2_RegD0_Start(void) 
  44:Generated_Source\PSoC5/ConsolePort_2_RegD0.c **** {
  45:Generated_Source\PSoC5/ConsolePort_2_RegD0.c ****     if(0u == ConsolePort_2_RegD0_initVar)
  46:Generated_Source\PSoC5/ConsolePort_2_RegD0.c ****     {
  47:Generated_Source\PSoC5/ConsolePort_2_RegD0.c ****         ConsolePort_2_RegD0_Init();
  48:Generated_Source\PSoC5/ConsolePort_2_RegD0.c ****         ConsolePort_2_RegD0_initVar = 1u; /* Component initialized */
  49:Generated_Source\PSoC5/ConsolePort_2_RegD0.c ****     }
  50:Generated_Source\PSoC5/ConsolePort_2_RegD0.c **** 
  51:Generated_Source\PSoC5/ConsolePort_2_RegD0.c ****     ConsolePort_2_RegD0_Enable();
  52:Generated_Source\PSoC5/ConsolePort_2_RegD0.c **** }
  53:Generated_Source\PSoC5/ConsolePort_2_RegD0.c **** 
  54:Generated_Source\PSoC5/ConsolePort_2_RegD0.c **** 
  55:Generated_Source\PSoC5/ConsolePort_2_RegD0.c **** /*******************************************************************************
  56:Generated_Source\PSoC5/ConsolePort_2_RegD0.c **** * Function Name: ConsolePort_2_RegD0_Enable
  57:Generated_Source\PSoC5/ConsolePort_2_RegD0.c **** ********************************************************************************
  58:Generated_Source\PSoC5/ConsolePort_2_RegD0.c **** *
  59:Generated_Source\PSoC5/ConsolePort_2_RegD0.c **** * Summary:
  60:Generated_Source\PSoC5/ConsolePort_2_RegD0.c **** *  Enables the Shift Register.
  61:Generated_Source\PSoC5/ConsolePort_2_RegD0.c **** *
  62:Generated_Source\PSoC5/ConsolePort_2_RegD0.c **** * Parameters:
  63:Generated_Source\PSoC5/ConsolePort_2_RegD0.c **** *  void.
  64:Generated_Source\PSoC5/ConsolePort_2_RegD0.c **** *
  65:Generated_Source\PSoC5/ConsolePort_2_RegD0.c **** * Return:
  66:Generated_Source\PSoC5/ConsolePort_2_RegD0.c **** *  void.
  67:Generated_Source\PSoC5/ConsolePort_2_RegD0.c **** *
  68:Generated_Source\PSoC5/ConsolePort_2_RegD0.c **** *******************************************************************************/
  69:Generated_Source\PSoC5/ConsolePort_2_RegD0.c **** void ConsolePort_2_RegD0_Enable(void) 
  70:Generated_Source\PSoC5/ConsolePort_2_RegD0.c **** {
  71:Generated_Source\PSoC5/ConsolePort_2_RegD0.c ****     /* Changing address in Datapath Control Store
  72:Generated_Source\PSoC5/ConsolePort_2_RegD0.c ****        from NOP to component state machine commands space */
  73:Generated_Source\PSoC5/ConsolePort_2_RegD0.c ****     ConsolePort_2_RegD0_SR_CONTROL |= ConsolePort_2_RegD0_CLK_EN;
  74:Generated_Source\PSoC5/ConsolePort_2_RegD0.c **** 
  75:Generated_Source\PSoC5/ConsolePort_2_RegD0.c ****     ConsolePort_2_RegD0_EnableInt();
  76:Generated_Source\PSoC5/ConsolePort_2_RegD0.c **** }
  77:Generated_Source\PSoC5/ConsolePort_2_RegD0.c **** 
  78:Generated_Source\PSoC5/ConsolePort_2_RegD0.c **** 
  79:Generated_Source\PSoC5/ConsolePort_2_RegD0.c **** /*******************************************************************************
  80:Generated_Source\PSoC5/ConsolePort_2_RegD0.c **** * Function Name: ConsolePort_2_RegD0_Init
  81:Generated_Source\PSoC5/ConsolePort_2_RegD0.c **** ********************************************************************************
  82:Generated_Source\PSoC5/ConsolePort_2_RegD0.c **** *
  83:Generated_Source\PSoC5/ConsolePort_2_RegD0.c **** * Summary:
  84:Generated_Source\PSoC5/ConsolePort_2_RegD0.c **** *  Initializes Tx and/or Rx interrupt sources with initial values.
  85:Generated_Source\PSoC5/ConsolePort_2_RegD0.c **** *
  86:Generated_Source\PSoC5/ConsolePort_2_RegD0.c **** * Parameters:
  87:Generated_Source\PSoC5/ConsolePort_2_RegD0.c **** *  void.
  88:Generated_Source\PSoC5/ConsolePort_2_RegD0.c **** *
ARM GAS  C:\Users\natha\AppData\Local\Temp\ccy8crBk.s 			page 3


  89:Generated_Source\PSoC5/ConsolePort_2_RegD0.c **** * Return:
  90:Generated_Source\PSoC5/ConsolePort_2_RegD0.c **** *  void.
  91:Generated_Source\PSoC5/ConsolePort_2_RegD0.c **** *
  92:Generated_Source\PSoC5/ConsolePort_2_RegD0.c **** *******************************************************************************/
  93:Generated_Source\PSoC5/ConsolePort_2_RegD0.c **** void ConsolePort_2_RegD0_Init(void) 
  94:Generated_Source\PSoC5/ConsolePort_2_RegD0.c **** {
  95:Generated_Source\PSoC5/ConsolePort_2_RegD0.c ****     ConsolePort_2_RegD0_SetIntMode(ConsolePort_2_RegD0_INT_SRC);
  96:Generated_Source\PSoC5/ConsolePort_2_RegD0.c **** }
  97:Generated_Source\PSoC5/ConsolePort_2_RegD0.c **** 
  98:Generated_Source\PSoC5/ConsolePort_2_RegD0.c **** 
  99:Generated_Source\PSoC5/ConsolePort_2_RegD0.c **** /*******************************************************************************
 100:Generated_Source\PSoC5/ConsolePort_2_RegD0.c **** * Function Name: ConsolePort_2_RegD0_Stop
 101:Generated_Source\PSoC5/ConsolePort_2_RegD0.c **** ********************************************************************************
 102:Generated_Source\PSoC5/ConsolePort_2_RegD0.c **** *
 103:Generated_Source\PSoC5/ConsolePort_2_RegD0.c **** * Summary:
 104:Generated_Source\PSoC5/ConsolePort_2_RegD0.c **** *  Disables the Shift Register
 105:Generated_Source\PSoC5/ConsolePort_2_RegD0.c **** *
 106:Generated_Source\PSoC5/ConsolePort_2_RegD0.c **** * Parameters:
 107:Generated_Source\PSoC5/ConsolePort_2_RegD0.c **** *  None.
 108:Generated_Source\PSoC5/ConsolePort_2_RegD0.c **** *
 109:Generated_Source\PSoC5/ConsolePort_2_RegD0.c **** * Return:
 110:Generated_Source\PSoC5/ConsolePort_2_RegD0.c **** *  None.
 111:Generated_Source\PSoC5/ConsolePort_2_RegD0.c **** *
 112:Generated_Source\PSoC5/ConsolePort_2_RegD0.c **** *******************************************************************************/
 113:Generated_Source\PSoC5/ConsolePort_2_RegD0.c **** void ConsolePort_2_RegD0_Stop(void) 
 114:Generated_Source\PSoC5/ConsolePort_2_RegD0.c **** {
 115:Generated_Source\PSoC5/ConsolePort_2_RegD0.c ****     /*changing Datapath Control Store address to NOP space*/
 116:Generated_Source\PSoC5/ConsolePort_2_RegD0.c ****     ConsolePort_2_RegD0_SR_CONTROL &= ((uint8) ~ConsolePort_2_RegD0_CLK_EN);
 117:Generated_Source\PSoC5/ConsolePort_2_RegD0.c ****     ConsolePort_2_RegD0_DisableInt();
 118:Generated_Source\PSoC5/ConsolePort_2_RegD0.c **** }
 119:Generated_Source\PSoC5/ConsolePort_2_RegD0.c **** 
 120:Generated_Source\PSoC5/ConsolePort_2_RegD0.c **** 
 121:Generated_Source\PSoC5/ConsolePort_2_RegD0.c **** /*******************************************************************************
 122:Generated_Source\PSoC5/ConsolePort_2_RegD0.c **** * Function Name: ConsolePort_2_RegD0_EnableInt
 123:Generated_Source\PSoC5/ConsolePort_2_RegD0.c **** ********************************************************************************
 124:Generated_Source\PSoC5/ConsolePort_2_RegD0.c **** *
 125:Generated_Source\PSoC5/ConsolePort_2_RegD0.c **** * Summary:
 126:Generated_Source\PSoC5/ConsolePort_2_RegD0.c **** *  Enables the Shift Register interrupt.
 127:Generated_Source\PSoC5/ConsolePort_2_RegD0.c **** *
 128:Generated_Source\PSoC5/ConsolePort_2_RegD0.c **** * Parameters:
 129:Generated_Source\PSoC5/ConsolePort_2_RegD0.c **** *  None.
 130:Generated_Source\PSoC5/ConsolePort_2_RegD0.c **** *
 131:Generated_Source\PSoC5/ConsolePort_2_RegD0.c **** * Return:
 132:Generated_Source\PSoC5/ConsolePort_2_RegD0.c **** *  None.
 133:Generated_Source\PSoC5/ConsolePort_2_RegD0.c **** *
 134:Generated_Source\PSoC5/ConsolePort_2_RegD0.c **** *******************************************************************************/
 135:Generated_Source\PSoC5/ConsolePort_2_RegD0.c **** void ConsolePort_2_RegD0_EnableInt(void) 
 136:Generated_Source\PSoC5/ConsolePort_2_RegD0.c **** {
  27              		.loc 1 136 0
  28              		.cfi_startproc
  29              		@ args = 0, pretend = 0, frame = 0
  30              		@ frame_needed = 0, uses_anonymous_args = 0
  31 0000 08B5     		push	{r3, lr}
  32              		.cfi_def_cfa_offset 8
  33              		.cfi_offset 3, -8
  34              		.cfi_offset 14, -4
 137:Generated_Source\PSoC5/ConsolePort_2_RegD0.c ****     uint8 interruptState;
ARM GAS  C:\Users\natha\AppData\Local\Temp\ccy8crBk.s 			page 4


 138:Generated_Source\PSoC5/ConsolePort_2_RegD0.c **** 
 139:Generated_Source\PSoC5/ConsolePort_2_RegD0.c ****     interruptState = CyEnterCriticalSection();
  35              		.loc 1 139 0
  36 0002 FFF7FEFF 		bl	CyEnterCriticalSection
  37              	.LVL0:
 140:Generated_Source\PSoC5/ConsolePort_2_RegD0.c ****     ConsolePort_2_RegD0_SR_AUX_CONTROL |= ConsolePort_2_RegD0_INTERRUPTS_ENABLE;
  38              		.loc 1 140 0
  39 0006 044A     		ldr	r2, .L3
  40 0008 1378     		ldrb	r3, [r2]	@ zero_extendqisi2
  41 000a 43F01003 		orr	r3, r3, #16
  42 000e 1370     		strb	r3, [r2]
 141:Generated_Source\PSoC5/ConsolePort_2_RegD0.c ****     CyExitCriticalSection(interruptState);
  43              		.loc 1 141 0
  44 0010 FFF7FEFF 		bl	CyExitCriticalSection
  45              	.LVL1:
  46 0014 08BD     		pop	{r3, pc}
  47              	.L4:
  48 0016 00BF     		.align	2
  49              	.L3:
  50 0018 9A640040 		.word	1073767578
  51              		.cfi_endproc
  52              	.LFE4:
  53              		.size	ConsolePort_2_RegD0_EnableInt, .-ConsolePort_2_RegD0_EnableInt
  54              		.section	.text.ConsolePort_2_RegD0_Enable,"ax",%progbits
  55              		.align	2
  56              		.global	ConsolePort_2_RegD0_Enable
  57              		.thumb
  58              		.thumb_func
  59              		.type	ConsolePort_2_RegD0_Enable, %function
  60              	ConsolePort_2_RegD0_Enable:
  61              	.LFB1:
  70:Generated_Source\PSoC5/ConsolePort_2_RegD0.c ****     /* Changing address in Datapath Control Store
  62              		.loc 1 70 0
  63              		.cfi_startproc
  64              		@ args = 0, pretend = 0, frame = 0
  65              		@ frame_needed = 0, uses_anonymous_args = 0
  66 0000 08B5     		push	{r3, lr}
  67              		.cfi_def_cfa_offset 8
  68              		.cfi_offset 3, -8
  69              		.cfi_offset 14, -4
  73:Generated_Source\PSoC5/ConsolePort_2_RegD0.c **** 
  70              		.loc 1 73 0
  71 0002 044A     		ldr	r2, .L7
  72 0004 1378     		ldrb	r3, [r2]	@ zero_extendqisi2
  73 0006 43F00103 		orr	r3, r3, #1
  74 000a 1370     		strb	r3, [r2]
  75:Generated_Source\PSoC5/ConsolePort_2_RegD0.c **** }
  75              		.loc 1 75 0
  76 000c FFF7FEFF 		bl	ConsolePort_2_RegD0_EnableInt
  77              	.LVL2:
  78 0010 08BD     		pop	{r3, pc}
  79              	.L8:
  80 0012 00BF     		.align	2
  81              	.L7:
  82 0014 79640040 		.word	1073767545
  83              		.cfi_endproc
  84              	.LFE1:
ARM GAS  C:\Users\natha\AppData\Local\Temp\ccy8crBk.s 			page 5


  85              		.size	ConsolePort_2_RegD0_Enable, .-ConsolePort_2_RegD0_Enable
  86              		.section	.text.ConsolePort_2_RegD0_DisableInt,"ax",%progbits
  87              		.align	2
  88              		.global	ConsolePort_2_RegD0_DisableInt
  89              		.thumb
  90              		.thumb_func
  91              		.type	ConsolePort_2_RegD0_DisableInt, %function
  92              	ConsolePort_2_RegD0_DisableInt:
  93              	.LFB5:
 142:Generated_Source\PSoC5/ConsolePort_2_RegD0.c **** }
 143:Generated_Source\PSoC5/ConsolePort_2_RegD0.c **** 
 144:Generated_Source\PSoC5/ConsolePort_2_RegD0.c **** 
 145:Generated_Source\PSoC5/ConsolePort_2_RegD0.c **** /*******************************************************************************
 146:Generated_Source\PSoC5/ConsolePort_2_RegD0.c **** * Function Name: ConsolePort_2_RegD0_DisableInt
 147:Generated_Source\PSoC5/ConsolePort_2_RegD0.c **** ********************************************************************************
 148:Generated_Source\PSoC5/ConsolePort_2_RegD0.c **** *
 149:Generated_Source\PSoC5/ConsolePort_2_RegD0.c **** * Summary:
 150:Generated_Source\PSoC5/ConsolePort_2_RegD0.c **** *  Disables the Shift Register interrupt.
 151:Generated_Source\PSoC5/ConsolePort_2_RegD0.c **** *
 152:Generated_Source\PSoC5/ConsolePort_2_RegD0.c **** * Parameters:
 153:Generated_Source\PSoC5/ConsolePort_2_RegD0.c **** *  None.
 154:Generated_Source\PSoC5/ConsolePort_2_RegD0.c **** *
 155:Generated_Source\PSoC5/ConsolePort_2_RegD0.c **** * Return:
 156:Generated_Source\PSoC5/ConsolePort_2_RegD0.c **** *  None.
 157:Generated_Source\PSoC5/ConsolePort_2_RegD0.c **** *
 158:Generated_Source\PSoC5/ConsolePort_2_RegD0.c **** *******************************************************************************/
 159:Generated_Source\PSoC5/ConsolePort_2_RegD0.c **** void ConsolePort_2_RegD0_DisableInt(void) 
 160:Generated_Source\PSoC5/ConsolePort_2_RegD0.c **** {
  94              		.loc 1 160 0
  95              		.cfi_startproc
  96              		@ args = 0, pretend = 0, frame = 0
  97              		@ frame_needed = 0, uses_anonymous_args = 0
  98 0000 08B5     		push	{r3, lr}
  99              		.cfi_def_cfa_offset 8
 100              		.cfi_offset 3, -8
 101              		.cfi_offset 14, -4
 161:Generated_Source\PSoC5/ConsolePort_2_RegD0.c ****     uint8 interruptState;
 162:Generated_Source\PSoC5/ConsolePort_2_RegD0.c **** 
 163:Generated_Source\PSoC5/ConsolePort_2_RegD0.c ****     interruptState = CyEnterCriticalSection();
 102              		.loc 1 163 0
 103 0002 FFF7FEFF 		bl	CyEnterCriticalSection
 104              	.LVL3:
 164:Generated_Source\PSoC5/ConsolePort_2_RegD0.c ****     ConsolePort_2_RegD0_SR_AUX_CONTROL &= ((uint8) ~ConsolePort_2_RegD0_INTERRUPTS_ENABLE);
 105              		.loc 1 164 0
 106 0006 044A     		ldr	r2, .L11
 107 0008 1378     		ldrb	r3, [r2]	@ zero_extendqisi2
 108 000a 03F0EF03 		and	r3, r3, #239
 109 000e 1370     		strb	r3, [r2]
 165:Generated_Source\PSoC5/ConsolePort_2_RegD0.c ****     CyExitCriticalSection(interruptState);
 110              		.loc 1 165 0
 111 0010 FFF7FEFF 		bl	CyExitCriticalSection
 112              	.LVL4:
 113 0014 08BD     		pop	{r3, pc}
 114              	.L12:
 115 0016 00BF     		.align	2
 116              	.L11:
 117 0018 9A640040 		.word	1073767578
ARM GAS  C:\Users\natha\AppData\Local\Temp\ccy8crBk.s 			page 6


 118              		.cfi_endproc
 119              	.LFE5:
 120              		.size	ConsolePort_2_RegD0_DisableInt, .-ConsolePort_2_RegD0_DisableInt
 121              		.section	.text.ConsolePort_2_RegD0_Stop,"ax",%progbits
 122              		.align	2
 123              		.global	ConsolePort_2_RegD0_Stop
 124              		.thumb
 125              		.thumb_func
 126              		.type	ConsolePort_2_RegD0_Stop, %function
 127              	ConsolePort_2_RegD0_Stop:
 128              	.LFB3:
 114:Generated_Source\PSoC5/ConsolePort_2_RegD0.c ****     /*changing Datapath Control Store address to NOP space*/
 129              		.loc 1 114 0
 130              		.cfi_startproc
 131              		@ args = 0, pretend = 0, frame = 0
 132              		@ frame_needed = 0, uses_anonymous_args = 0
 133 0000 08B5     		push	{r3, lr}
 134              		.cfi_def_cfa_offset 8
 135              		.cfi_offset 3, -8
 136              		.cfi_offset 14, -4
 116:Generated_Source\PSoC5/ConsolePort_2_RegD0.c ****     ConsolePort_2_RegD0_DisableInt();
 137              		.loc 1 116 0
 138 0002 044A     		ldr	r2, .L15
 139 0004 1378     		ldrb	r3, [r2]	@ zero_extendqisi2
 140 0006 03F0FE03 		and	r3, r3, #254
 141 000a 1370     		strb	r3, [r2]
 117:Generated_Source\PSoC5/ConsolePort_2_RegD0.c **** }
 142              		.loc 1 117 0
 143 000c FFF7FEFF 		bl	ConsolePort_2_RegD0_DisableInt
 144              	.LVL5:
 145 0010 08BD     		pop	{r3, pc}
 146              	.L16:
 147 0012 00BF     		.align	2
 148              	.L15:
 149 0014 79640040 		.word	1073767545
 150              		.cfi_endproc
 151              	.LFE3:
 152              		.size	ConsolePort_2_RegD0_Stop, .-ConsolePort_2_RegD0_Stop
 153              		.section	.text.ConsolePort_2_RegD0_GetFIFOStatus,"ax",%progbits
 154              		.align	2
 155              		.global	ConsolePort_2_RegD0_GetFIFOStatus
 156              		.thumb
 157              		.thumb_func
 158              		.type	ConsolePort_2_RegD0_GetFIFOStatus, %function
 159              	ConsolePort_2_RegD0_GetFIFOStatus:
 160              	.LFB6:
 166:Generated_Source\PSoC5/ConsolePort_2_RegD0.c **** }
 167:Generated_Source\PSoC5/ConsolePort_2_RegD0.c **** 
 168:Generated_Source\PSoC5/ConsolePort_2_RegD0.c **** 
 169:Generated_Source\PSoC5/ConsolePort_2_RegD0.c **** /*******************************************************************************
 170:Generated_Source\PSoC5/ConsolePort_2_RegD0.c **** * Function Name: ConsolePort_2_RegD0_GetFIFOStatus
 171:Generated_Source\PSoC5/ConsolePort_2_RegD0.c **** ********************************************************************************
 172:Generated_Source\PSoC5/ConsolePort_2_RegD0.c **** *
 173:Generated_Source\PSoC5/ConsolePort_2_RegD0.c **** * Summary:
 174:Generated_Source\PSoC5/ConsolePort_2_RegD0.c **** *  Returns current status of input or output FIFO.
 175:Generated_Source\PSoC5/ConsolePort_2_RegD0.c **** *
 176:Generated_Source\PSoC5/ConsolePort_2_RegD0.c **** * Parameters:
ARM GAS  C:\Users\natha\AppData\Local\Temp\ccy8crBk.s 			page 7


 177:Generated_Source\PSoC5/ConsolePort_2_RegD0.c **** *  fifoId.
 178:Generated_Source\PSoC5/ConsolePort_2_RegD0.c **** *
 179:Generated_Source\PSoC5/ConsolePort_2_RegD0.c **** * Return:
 180:Generated_Source\PSoC5/ConsolePort_2_RegD0.c **** *  FIFO status.
 181:Generated_Source\PSoC5/ConsolePort_2_RegD0.c **** *
 182:Generated_Source\PSoC5/ConsolePort_2_RegD0.c **** *******************************************************************************/
 183:Generated_Source\PSoC5/ConsolePort_2_RegD0.c **** uint8 ConsolePort_2_RegD0_GetFIFOStatus(uint8 fifoId) 
 184:Generated_Source\PSoC5/ConsolePort_2_RegD0.c **** {
 161              		.loc 1 184 0
 162              		.cfi_startproc
 163              		@ args = 0, pretend = 0, frame = 0
 164              		@ frame_needed = 0, uses_anonymous_args = 0
 165              		@ link register save eliminated.
 166              	.LVL6:
 185:Generated_Source\PSoC5/ConsolePort_2_RegD0.c ****     uint8 result;
 186:Generated_Source\PSoC5/ConsolePort_2_RegD0.c **** 
 187:Generated_Source\PSoC5/ConsolePort_2_RegD0.c ****     result = ConsolePort_2_RegD0_RET_FIFO_NOT_DEFINED;
 188:Generated_Source\PSoC5/ConsolePort_2_RegD0.c **** 
 189:Generated_Source\PSoC5/ConsolePort_2_RegD0.c ****     #if(0u != ConsolePort_2_RegD0_USE_INPUT_FIFO)
 190:Generated_Source\PSoC5/ConsolePort_2_RegD0.c ****         if(ConsolePort_2_RegD0_IN_FIFO == fifoId)
 191:Generated_Source\PSoC5/ConsolePort_2_RegD0.c ****         {
 192:Generated_Source\PSoC5/ConsolePort_2_RegD0.c ****             switch(ConsolePort_2_RegD0_GET_IN_FIFO_STS)
 193:Generated_Source\PSoC5/ConsolePort_2_RegD0.c ****             {
 194:Generated_Source\PSoC5/ConsolePort_2_RegD0.c ****                 case ConsolePort_2_RegD0_IN_FIFO_FULL :
 195:Generated_Source\PSoC5/ConsolePort_2_RegD0.c ****                     result = ConsolePort_2_RegD0_RET_FIFO_FULL;
 196:Generated_Source\PSoC5/ConsolePort_2_RegD0.c ****                     break;
 197:Generated_Source\PSoC5/ConsolePort_2_RegD0.c **** 
 198:Generated_Source\PSoC5/ConsolePort_2_RegD0.c ****                 case ConsolePort_2_RegD0_IN_FIFO_EMPTY :
 199:Generated_Source\PSoC5/ConsolePort_2_RegD0.c ****                     result = ConsolePort_2_RegD0_RET_FIFO_EMPTY;
 200:Generated_Source\PSoC5/ConsolePort_2_RegD0.c ****                     break;
 201:Generated_Source\PSoC5/ConsolePort_2_RegD0.c **** 
 202:Generated_Source\PSoC5/ConsolePort_2_RegD0.c ****                 case ConsolePort_2_RegD0_IN_FIFO_PARTIAL:
 203:Generated_Source\PSoC5/ConsolePort_2_RegD0.c ****                     result = ConsolePort_2_RegD0_RET_FIFO_PARTIAL;
 204:Generated_Source\PSoC5/ConsolePort_2_RegD0.c ****                     break;
 205:Generated_Source\PSoC5/ConsolePort_2_RegD0.c ****                     
 206:Generated_Source\PSoC5/ConsolePort_2_RegD0.c ****                 default:
 207:Generated_Source\PSoC5/ConsolePort_2_RegD0.c ****                     /* Initial result value, while 
 208:Generated_Source\PSoC5/ConsolePort_2_RegD0.c ****                        IN_FIFO_EMPTY case is false 
 209:Generated_Source\PSoC5/ConsolePort_2_RegD0.c ****                      */
 210:Generated_Source\PSoC5/ConsolePort_2_RegD0.c ****                     result = ConsolePort_2_RegD0_RET_FIFO_EMPTY;
 211:Generated_Source\PSoC5/ConsolePort_2_RegD0.c ****                     break;
 212:Generated_Source\PSoC5/ConsolePort_2_RegD0.c ****             }   
 213:Generated_Source\PSoC5/ConsolePort_2_RegD0.c ****         }
 214:Generated_Source\PSoC5/ConsolePort_2_RegD0.c ****     #endif /* (0u != ConsolePort_2_RegD0_USE_INPUT_FIFO) */
 215:Generated_Source\PSoC5/ConsolePort_2_RegD0.c **** 
 216:Generated_Source\PSoC5/ConsolePort_2_RegD0.c ****     if(ConsolePort_2_RegD0_OUT_FIFO == fifoId)
 167              		.loc 1 216 0
 168 0000 0228     		cmp	r0, #2
 169 0002 0AD1     		bne	.L21
 217:Generated_Source\PSoC5/ConsolePort_2_RegD0.c ****     {
 218:Generated_Source\PSoC5/ConsolePort_2_RegD0.c ****         switch(ConsolePort_2_RegD0_GET_OUT_FIFO_STS)
 170              		.loc 1 218 0
 171 0004 074B     		ldr	r3, .L23
 172 0006 1B78     		ldrb	r3, [r3]	@ zero_extendqisi2
 173 0008 C3F34113 		ubfx	r3, r3, #5, #2
 174 000c 3BB1     		cbz	r3, .L22
 175 000e 022B     		cmp	r3, #2
ARM GAS  C:\Users\natha\AppData\Local\Temp\ccy8crBk.s 			page 8


 176 0010 01D0     		beq	.L20
 219:Generated_Source\PSoC5/ConsolePort_2_RegD0.c ****         {
 220:Generated_Source\PSoC5/ConsolePort_2_RegD0.c ****             case ConsolePort_2_RegD0_OUT_FIFO_FULL :
 221:Generated_Source\PSoC5/ConsolePort_2_RegD0.c ****                 result = ConsolePort_2_RegD0_RET_FIFO_FULL;
 177              		.loc 1 221 0
 178 0012 0020     		movs	r0, #0
 179              	.LVL7:
 180 0014 7047     		bx	lr
 181              	.LVL8:
 182              	.L20:
 222:Generated_Source\PSoC5/ConsolePort_2_RegD0.c ****                 break;
 223:Generated_Source\PSoC5/ConsolePort_2_RegD0.c **** 
 224:Generated_Source\PSoC5/ConsolePort_2_RegD0.c ****             case ConsolePort_2_RegD0_OUT_FIFO_EMPTY :
 225:Generated_Source\PSoC5/ConsolePort_2_RegD0.c ****                 result = ConsolePort_2_RegD0_RET_FIFO_EMPTY;
 226:Generated_Source\PSoC5/ConsolePort_2_RegD0.c ****                 break;
 227:Generated_Source\PSoC5/ConsolePort_2_RegD0.c **** 
 228:Generated_Source\PSoC5/ConsolePort_2_RegD0.c ****             case ConsolePort_2_RegD0_OUT_FIFO_PARTIAL :
 229:Generated_Source\PSoC5/ConsolePort_2_RegD0.c ****                 result = ConsolePort_2_RegD0_RET_FIFO_PARTIAL;
 183              		.loc 1 229 0
 184 0016 0120     		movs	r0, #1
 185              	.LVL9:
 230:Generated_Source\PSoC5/ConsolePort_2_RegD0.c ****                 break;
 186              		.loc 1 230 0
 187 0018 7047     		bx	lr
 188              	.LVL10:
 189              	.L21:
 187:Generated_Source\PSoC5/ConsolePort_2_RegD0.c **** 
 190              		.loc 1 187 0
 191 001a FE20     		movs	r0, #254
 192              	.LVL11:
 193 001c 7047     		bx	lr
 194              	.LVL12:
 195              	.L22:
 225:Generated_Source\PSoC5/ConsolePort_2_RegD0.c ****                 break;
 196              		.loc 1 225 0
 197 001e 0220     		movs	r0, #2
 198              	.LVL13:
 231:Generated_Source\PSoC5/ConsolePort_2_RegD0.c **** 
 232:Generated_Source\PSoC5/ConsolePort_2_RegD0.c ****             default:
 233:Generated_Source\PSoC5/ConsolePort_2_RegD0.c ****                 /* Initial result value, while 
 234:Generated_Source\PSoC5/ConsolePort_2_RegD0.c ****                    OUT_FIFO_FULL case is false 
 235:Generated_Source\PSoC5/ConsolePort_2_RegD0.c ****                  */
 236:Generated_Source\PSoC5/ConsolePort_2_RegD0.c ****                 result = ConsolePort_2_RegD0_RET_FIFO_FULL;
 237:Generated_Source\PSoC5/ConsolePort_2_RegD0.c ****                 break;
 238:Generated_Source\PSoC5/ConsolePort_2_RegD0.c ****         }
 239:Generated_Source\PSoC5/ConsolePort_2_RegD0.c ****     }
 240:Generated_Source\PSoC5/ConsolePort_2_RegD0.c **** 
 241:Generated_Source\PSoC5/ConsolePort_2_RegD0.c ****     return(result);
 242:Generated_Source\PSoC5/ConsolePort_2_RegD0.c **** }
 199              		.loc 1 242 0
 200 0020 7047     		bx	lr
 201              	.L24:
 202 0022 00BF     		.align	2
 203              	.L23:
 204 0024 6A640040 		.word	1073767530
 205              		.cfi_endproc
 206              	.LFE6:
ARM GAS  C:\Users\natha\AppData\Local\Temp\ccy8crBk.s 			page 9


 207              		.size	ConsolePort_2_RegD0_GetFIFOStatus, .-ConsolePort_2_RegD0_GetFIFOStatus
 208              		.section	.text.ConsolePort_2_RegD0_SetIntMode,"ax",%progbits
 209              		.align	2
 210              		.global	ConsolePort_2_RegD0_SetIntMode
 211              		.thumb
 212              		.thumb_func
 213              		.type	ConsolePort_2_RegD0_SetIntMode, %function
 214              	ConsolePort_2_RegD0_SetIntMode:
 215              	.LFB7:
 243:Generated_Source\PSoC5/ConsolePort_2_RegD0.c **** 
 244:Generated_Source\PSoC5/ConsolePort_2_RegD0.c **** 
 245:Generated_Source\PSoC5/ConsolePort_2_RegD0.c **** /*******************************************************************************
 246:Generated_Source\PSoC5/ConsolePort_2_RegD0.c **** * Function Name: ConsolePort_2_RegD0_SetIntMode
 247:Generated_Source\PSoC5/ConsolePort_2_RegD0.c **** ********************************************************************************
 248:Generated_Source\PSoC5/ConsolePort_2_RegD0.c **** *
 249:Generated_Source\PSoC5/ConsolePort_2_RegD0.c **** * Summary:
 250:Generated_Source\PSoC5/ConsolePort_2_RegD0.c **** *  Sets the Interrupt Source for the Shift Register interrupt. Multiple
 251:Generated_Source\PSoC5/ConsolePort_2_RegD0.c **** *  sources may be ORed together
 252:Generated_Source\PSoC5/ConsolePort_2_RegD0.c **** *
 253:Generated_Source\PSoC5/ConsolePort_2_RegD0.c **** * Parameters:
 254:Generated_Source\PSoC5/ConsolePort_2_RegD0.c **** *  interruptSource: Byte containing the constant for the selected interrupt
 255:Generated_Source\PSoC5/ConsolePort_2_RegD0.c **** *  source/s.
 256:Generated_Source\PSoC5/ConsolePort_2_RegD0.c **** *
 257:Generated_Source\PSoC5/ConsolePort_2_RegD0.c **** * Return:
 258:Generated_Source\PSoC5/ConsolePort_2_RegD0.c **** *  None.
 259:Generated_Source\PSoC5/ConsolePort_2_RegD0.c **** *
 260:Generated_Source\PSoC5/ConsolePort_2_RegD0.c **** *******************************************************************************/
 261:Generated_Source\PSoC5/ConsolePort_2_RegD0.c **** void ConsolePort_2_RegD0_SetIntMode(uint8 interruptSource) 
 262:Generated_Source\PSoC5/ConsolePort_2_RegD0.c **** {
 216              		.loc 1 262 0
 217              		.cfi_startproc
 218              		@ args = 0, pretend = 0, frame = 0
 219              		@ frame_needed = 0, uses_anonymous_args = 0
 220              		@ link register save eliminated.
 221              	.LVL14:
 263:Generated_Source\PSoC5/ConsolePort_2_RegD0.c ****     ConsolePort_2_RegD0_SR_STATUS_MASK &= ((uint8) ~ConsolePort_2_RegD0_INTS_EN_MASK);          /* 
 222              		.loc 1 263 0
 223 0000 054B     		ldr	r3, .L26
 224 0002 1A78     		ldrb	r2, [r3]	@ zero_extendqisi2
 225 0004 02F0F802 		and	r2, r2, #248
 226 0008 1A70     		strb	r2, [r3]
 264:Generated_Source\PSoC5/ConsolePort_2_RegD0.c ****     ConsolePort_2_RegD0_SR_STATUS_MASK |= (interruptSource & ConsolePort_2_RegD0_INTS_EN_MASK); /* 
 227              		.loc 1 264 0
 228 000a 1A78     		ldrb	r2, [r3]	@ zero_extendqisi2
 229 000c 00F00700 		and	r0, r0, #7
 230              	.LVL15:
 231 0010 1043     		orrs	r0, r0, r2
 232 0012 1870     		strb	r0, [r3]
 233 0014 7047     		bx	lr
 234              	.L27:
 235 0016 00BF     		.align	2
 236              	.L26:
 237 0018 8A640040 		.word	1073767562
 238              		.cfi_endproc
 239              	.LFE7:
 240              		.size	ConsolePort_2_RegD0_SetIntMode, .-ConsolePort_2_RegD0_SetIntMode
 241              		.section	.text.ConsolePort_2_RegD0_Init,"ax",%progbits
ARM GAS  C:\Users\natha\AppData\Local\Temp\ccy8crBk.s 			page 10


 242              		.align	2
 243              		.global	ConsolePort_2_RegD0_Init
 244              		.thumb
 245              		.thumb_func
 246              		.type	ConsolePort_2_RegD0_Init, %function
 247              	ConsolePort_2_RegD0_Init:
 248              	.LFB2:
  94:Generated_Source\PSoC5/ConsolePort_2_RegD0.c ****     ConsolePort_2_RegD0_SetIntMode(ConsolePort_2_RegD0_INT_SRC);
 249              		.loc 1 94 0
 250              		.cfi_startproc
 251              		@ args = 0, pretend = 0, frame = 0
 252              		@ frame_needed = 0, uses_anonymous_args = 0
 253 0000 08B5     		push	{r3, lr}
 254              		.cfi_def_cfa_offset 8
 255              		.cfi_offset 3, -8
 256              		.cfi_offset 14, -4
  95:Generated_Source\PSoC5/ConsolePort_2_RegD0.c **** }
 257              		.loc 1 95 0
 258 0002 0120     		movs	r0, #1
 259 0004 FFF7FEFF 		bl	ConsolePort_2_RegD0_SetIntMode
 260              	.LVL16:
 261 0008 08BD     		pop	{r3, pc}
 262              		.cfi_endproc
 263              	.LFE2:
 264              		.size	ConsolePort_2_RegD0_Init, .-ConsolePort_2_RegD0_Init
 265 000a 00BF     		.section	.text.ConsolePort_2_RegD0_Start,"ax",%progbits
 266              		.align	2
 267              		.global	ConsolePort_2_RegD0_Start
 268              		.thumb
 269              		.thumb_func
 270              		.type	ConsolePort_2_RegD0_Start, %function
 271              	ConsolePort_2_RegD0_Start:
 272              	.LFB0:
  44:Generated_Source\PSoC5/ConsolePort_2_RegD0.c ****     if(0u == ConsolePort_2_RegD0_initVar)
 273              		.loc 1 44 0
 274              		.cfi_startproc
 275              		@ args = 0, pretend = 0, frame = 0
 276              		@ frame_needed = 0, uses_anonymous_args = 0
 277 0000 08B5     		push	{r3, lr}
 278              		.cfi_def_cfa_offset 8
 279              		.cfi_offset 3, -8
 280              		.cfi_offset 14, -4
  45:Generated_Source\PSoC5/ConsolePort_2_RegD0.c ****     {
 281              		.loc 1 45 0
 282 0002 054B     		ldr	r3, .L33
 283 0004 1B78     		ldrb	r3, [r3]	@ zero_extendqisi2
 284 0006 23B9     		cbnz	r3, .L31
  47:Generated_Source\PSoC5/ConsolePort_2_RegD0.c ****         ConsolePort_2_RegD0_initVar = 1u; /* Component initialized */
 285              		.loc 1 47 0
 286 0008 FFF7FEFF 		bl	ConsolePort_2_RegD0_Init
 287              	.LVL17:
  48:Generated_Source\PSoC5/ConsolePort_2_RegD0.c ****     }
 288              		.loc 1 48 0
 289 000c 0122     		movs	r2, #1
 290 000e 024B     		ldr	r3, .L33
 291 0010 1A70     		strb	r2, [r3]
 292              	.L31:
ARM GAS  C:\Users\natha\AppData\Local\Temp\ccy8crBk.s 			page 11


  51:Generated_Source\PSoC5/ConsolePort_2_RegD0.c **** }
 293              		.loc 1 51 0
 294 0012 FFF7FEFF 		bl	ConsolePort_2_RegD0_Enable
 295              	.LVL18:
 296 0016 08BD     		pop	{r3, pc}
 297              	.L34:
 298              		.align	2
 299              	.L33:
 300 0018 00000000 		.word	.LANCHOR0
 301              		.cfi_endproc
 302              	.LFE0:
 303              		.size	ConsolePort_2_RegD0_Start, .-ConsolePort_2_RegD0_Start
 304              		.section	.text.ConsolePort_2_RegD0_GetIntStatus,"ax",%progbits
 305              		.align	2
 306              		.global	ConsolePort_2_RegD0_GetIntStatus
 307              		.thumb
 308              		.thumb_func
 309              		.type	ConsolePort_2_RegD0_GetIntStatus, %function
 310              	ConsolePort_2_RegD0_GetIntStatus:
 311              	.LFB8:
 265:Generated_Source\PSoC5/ConsolePort_2_RegD0.c **** }
 266:Generated_Source\PSoC5/ConsolePort_2_RegD0.c **** 
 267:Generated_Source\PSoC5/ConsolePort_2_RegD0.c **** 
 268:Generated_Source\PSoC5/ConsolePort_2_RegD0.c **** /*******************************************************************************
 269:Generated_Source\PSoC5/ConsolePort_2_RegD0.c **** * Function Name: ConsolePort_2_RegD0_GetIntStatus
 270:Generated_Source\PSoC5/ConsolePort_2_RegD0.c **** ********************************************************************************
 271:Generated_Source\PSoC5/ConsolePort_2_RegD0.c **** *
 272:Generated_Source\PSoC5/ConsolePort_2_RegD0.c **** * Summary:
 273:Generated_Source\PSoC5/ConsolePort_2_RegD0.c **** *  Gets the Shift Register Interrupt status.
 274:Generated_Source\PSoC5/ConsolePort_2_RegD0.c **** *
 275:Generated_Source\PSoC5/ConsolePort_2_RegD0.c **** * Parameters:
 276:Generated_Source\PSoC5/ConsolePort_2_RegD0.c **** *  None.
 277:Generated_Source\PSoC5/ConsolePort_2_RegD0.c **** *
 278:Generated_Source\PSoC5/ConsolePort_2_RegD0.c **** * Return:
 279:Generated_Source\PSoC5/ConsolePort_2_RegD0.c **** *  Byte containing the constant for the selected interrupt source/s.
 280:Generated_Source\PSoC5/ConsolePort_2_RegD0.c **** *
 281:Generated_Source\PSoC5/ConsolePort_2_RegD0.c **** *******************************************************************************/
 282:Generated_Source\PSoC5/ConsolePort_2_RegD0.c **** uint8 ConsolePort_2_RegD0_GetIntStatus(void) 
 283:Generated_Source\PSoC5/ConsolePort_2_RegD0.c **** {
 312              		.loc 1 283 0
 313              		.cfi_startproc
 314              		@ args = 0, pretend = 0, frame = 0
 315              		@ frame_needed = 0, uses_anonymous_args = 0
 316              		@ link register save eliminated.
 284:Generated_Source\PSoC5/ConsolePort_2_RegD0.c ****     return(ConsolePort_2_RegD0_SR_STATUS & ConsolePort_2_RegD0_INTS_EN_MASK);
 317              		.loc 1 284 0
 318 0000 024B     		ldr	r3, .L36
 319 0002 1878     		ldrb	r0, [r3]	@ zero_extendqisi2
 285:Generated_Source\PSoC5/ConsolePort_2_RegD0.c **** }
 320              		.loc 1 285 0
 321 0004 00F00700 		and	r0, r0, #7
 322 0008 7047     		bx	lr
 323              	.L37:
 324 000a 00BF     		.align	2
 325              	.L36:
 326 000c 6A640040 		.word	1073767530
 327              		.cfi_endproc
ARM GAS  C:\Users\natha\AppData\Local\Temp\ccy8crBk.s 			page 12


 328              	.LFE8:
 329              		.size	ConsolePort_2_RegD0_GetIntStatus, .-ConsolePort_2_RegD0_GetIntStatus
 330              		.section	.text.ConsolePort_2_RegD0_WriteRegValue,"ax",%progbits
 331              		.align	2
 332              		.global	ConsolePort_2_RegD0_WriteRegValue
 333              		.thumb
 334              		.thumb_func
 335              		.type	ConsolePort_2_RegD0_WriteRegValue, %function
 336              	ConsolePort_2_RegD0_WriteRegValue:
 337              	.LFB9:
 286:Generated_Source\PSoC5/ConsolePort_2_RegD0.c **** 
 287:Generated_Source\PSoC5/ConsolePort_2_RegD0.c **** 
 288:Generated_Source\PSoC5/ConsolePort_2_RegD0.c **** /*******************************************************************************
 289:Generated_Source\PSoC5/ConsolePort_2_RegD0.c **** * Function Name: ConsolePort_2_RegD0_WriteRegValue
 290:Generated_Source\PSoC5/ConsolePort_2_RegD0.c **** ********************************************************************************
 291:Generated_Source\PSoC5/ConsolePort_2_RegD0.c **** *
 292:Generated_Source\PSoC5/ConsolePort_2_RegD0.c **** * Summary:
 293:Generated_Source\PSoC5/ConsolePort_2_RegD0.c **** *  Send state directly to shift register
 294:Generated_Source\PSoC5/ConsolePort_2_RegD0.c **** *
 295:Generated_Source\PSoC5/ConsolePort_2_RegD0.c **** * Parameters:
 296:Generated_Source\PSoC5/ConsolePort_2_RegD0.c **** *  shiftData: containing shift register state.
 297:Generated_Source\PSoC5/ConsolePort_2_RegD0.c **** *
 298:Generated_Source\PSoC5/ConsolePort_2_RegD0.c **** * Return:
 299:Generated_Source\PSoC5/ConsolePort_2_RegD0.c **** *  None.
 300:Generated_Source\PSoC5/ConsolePort_2_RegD0.c **** *
 301:Generated_Source\PSoC5/ConsolePort_2_RegD0.c **** *******************************************************************************/
 302:Generated_Source\PSoC5/ConsolePort_2_RegD0.c **** void ConsolePort_2_RegD0_WriteRegValue(uint16 shiftData)
 303:Generated_Source\PSoC5/ConsolePort_2_RegD0.c ****                                                                      
 304:Generated_Source\PSoC5/ConsolePort_2_RegD0.c **** {
 338              		.loc 1 304 0
 339              		.cfi_startproc
 340              		@ args = 0, pretend = 0, frame = 0
 341              		@ frame_needed = 0, uses_anonymous_args = 0
 342              		@ link register save eliminated.
 343              	.LVL19:
 305:Generated_Source\PSoC5/ConsolePort_2_RegD0.c ****     CY_SET_REG16(ConsolePort_2_RegD0_SHIFT_REG_LSB_PTR, shiftData);
 344              		.loc 1 305 0
 345 0000 014B     		ldr	r3, .L39
 346 0002 1880     		strh	r0, [r3]	@ movhi
 347 0004 7047     		bx	lr
 348              	.L40:
 349 0006 00BF     		.align	2
 350              	.L39:
 351 0008 08640040 		.word	1073767432
 352              		.cfi_endproc
 353              	.LFE9:
 354              		.size	ConsolePort_2_RegD0_WriteRegValue, .-ConsolePort_2_RegD0_WriteRegValue
 355              		.section	.text.ConsolePort_2_RegD0_ReadRegValue,"ax",%progbits
 356              		.align	2
 357              		.global	ConsolePort_2_RegD0_ReadRegValue
 358              		.thumb
 359              		.thumb_func
 360              		.type	ConsolePort_2_RegD0_ReadRegValue, %function
 361              	ConsolePort_2_RegD0_ReadRegValue:
 362              	.LFB10:
 306:Generated_Source\PSoC5/ConsolePort_2_RegD0.c **** }
 307:Generated_Source\PSoC5/ConsolePort_2_RegD0.c **** 
ARM GAS  C:\Users\natha\AppData\Local\Temp\ccy8crBk.s 			page 13


 308:Generated_Source\PSoC5/ConsolePort_2_RegD0.c **** 
 309:Generated_Source\PSoC5/ConsolePort_2_RegD0.c **** #if(0u != ConsolePort_2_RegD0_USE_INPUT_FIFO)
 310:Generated_Source\PSoC5/ConsolePort_2_RegD0.c ****     /*******************************************************************************
 311:Generated_Source\PSoC5/ConsolePort_2_RegD0.c ****     * Function Name: ConsolePort_2_RegD0_WriteData
 312:Generated_Source\PSoC5/ConsolePort_2_RegD0.c ****     ********************************************************************************
 313:Generated_Source\PSoC5/ConsolePort_2_RegD0.c ****     *
 314:Generated_Source\PSoC5/ConsolePort_2_RegD0.c ****     * Summary:
 315:Generated_Source\PSoC5/ConsolePort_2_RegD0.c ****     *  Send state to FIFO for later transfer to shift register based on the Load
 316:Generated_Source\PSoC5/ConsolePort_2_RegD0.c ****     *  input
 317:Generated_Source\PSoC5/ConsolePort_2_RegD0.c ****     *
 318:Generated_Source\PSoC5/ConsolePort_2_RegD0.c ****     * Parameters:
 319:Generated_Source\PSoC5/ConsolePort_2_RegD0.c ****     *  shiftData: containing shift register state.
 320:Generated_Source\PSoC5/ConsolePort_2_RegD0.c ****     *
 321:Generated_Source\PSoC5/ConsolePort_2_RegD0.c ****     * Return:
 322:Generated_Source\PSoC5/ConsolePort_2_RegD0.c ****     *  Indicates: successful execution of function
 323:Generated_Source\PSoC5/ConsolePort_2_RegD0.c ****     *  when FIFO is empty; and error when FIFO is full.
 324:Generated_Source\PSoC5/ConsolePort_2_RegD0.c ****     *
 325:Generated_Source\PSoC5/ConsolePort_2_RegD0.c ****     * Reentrant:
 326:Generated_Source\PSoC5/ConsolePort_2_RegD0.c ****     *  No.
 327:Generated_Source\PSoC5/ConsolePort_2_RegD0.c ****     *
 328:Generated_Source\PSoC5/ConsolePort_2_RegD0.c ****     *******************************************************************************/
 329:Generated_Source\PSoC5/ConsolePort_2_RegD0.c ****     cystatus ConsolePort_2_RegD0_WriteData(uint16 shiftData)
 330:Generated_Source\PSoC5/ConsolePort_2_RegD0.c ****                                                                          
 331:Generated_Source\PSoC5/ConsolePort_2_RegD0.c ****     {
 332:Generated_Source\PSoC5/ConsolePort_2_RegD0.c ****         cystatus result;
 333:Generated_Source\PSoC5/ConsolePort_2_RegD0.c **** 
 334:Generated_Source\PSoC5/ConsolePort_2_RegD0.c ****         result = CYRET_INVALID_STATE;
 335:Generated_Source\PSoC5/ConsolePort_2_RegD0.c **** 
 336:Generated_Source\PSoC5/ConsolePort_2_RegD0.c ****         /* Writes data into the input FIFO if it is not FULL */
 337:Generated_Source\PSoC5/ConsolePort_2_RegD0.c ****         if(ConsolePort_2_RegD0_RET_FIFO_FULL != (ConsolePort_2_RegD0_GetFIFOStatus(ConsolePort_2_Re
 338:Generated_Source\PSoC5/ConsolePort_2_RegD0.c ****         {
 339:Generated_Source\PSoC5/ConsolePort_2_RegD0.c ****             CY_SET_REG16(ConsolePort_2_RegD0_IN_FIFO_VAL_LSB_PTR, shiftData);
 340:Generated_Source\PSoC5/ConsolePort_2_RegD0.c ****             result = CYRET_SUCCESS;
 341:Generated_Source\PSoC5/ConsolePort_2_RegD0.c ****         }
 342:Generated_Source\PSoC5/ConsolePort_2_RegD0.c **** 
 343:Generated_Source\PSoC5/ConsolePort_2_RegD0.c ****         return(result);
 344:Generated_Source\PSoC5/ConsolePort_2_RegD0.c ****     }
 345:Generated_Source\PSoC5/ConsolePort_2_RegD0.c **** #endif /* (0u != ConsolePort_2_RegD0_USE_INPUT_FIFO) */
 346:Generated_Source\PSoC5/ConsolePort_2_RegD0.c **** 
 347:Generated_Source\PSoC5/ConsolePort_2_RegD0.c **** 
 348:Generated_Source\PSoC5/ConsolePort_2_RegD0.c **** #if(0u != ConsolePort_2_RegD0_USE_OUTPUT_FIFO)
 349:Generated_Source\PSoC5/ConsolePort_2_RegD0.c ****     /*******************************************************************************
 350:Generated_Source\PSoC5/ConsolePort_2_RegD0.c ****     * Function Name: ConsolePort_2_RegD0_ReadData
 351:Generated_Source\PSoC5/ConsolePort_2_RegD0.c ****     ********************************************************************************
 352:Generated_Source\PSoC5/ConsolePort_2_RegD0.c ****     *
 353:Generated_Source\PSoC5/ConsolePort_2_RegD0.c ****     * Summary:
 354:Generated_Source\PSoC5/ConsolePort_2_RegD0.c ****     *  Returns state in FIFO due to Store input.
 355:Generated_Source\PSoC5/ConsolePort_2_RegD0.c ****     *
 356:Generated_Source\PSoC5/ConsolePort_2_RegD0.c ****     * Parameters:
 357:Generated_Source\PSoC5/ConsolePort_2_RegD0.c ****     *  None.
 358:Generated_Source\PSoC5/ConsolePort_2_RegD0.c ****     *
 359:Generated_Source\PSoC5/ConsolePort_2_RegD0.c ****     * Return:
 360:Generated_Source\PSoC5/ConsolePort_2_RegD0.c ****     *  Shift Register state
 361:Generated_Source\PSoC5/ConsolePort_2_RegD0.c ****     *
 362:Generated_Source\PSoC5/ConsolePort_2_RegD0.c ****     * Reentrant:
 363:Generated_Source\PSoC5/ConsolePort_2_RegD0.c ****     *  No.
 364:Generated_Source\PSoC5/ConsolePort_2_RegD0.c ****     *
ARM GAS  C:\Users\natha\AppData\Local\Temp\ccy8crBk.s 			page 14


 365:Generated_Source\PSoC5/ConsolePort_2_RegD0.c ****     *******************************************************************************/
 366:Generated_Source\PSoC5/ConsolePort_2_RegD0.c ****     uint16 ConsolePort_2_RegD0_ReadData(void) 
 367:Generated_Source\PSoC5/ConsolePort_2_RegD0.c ****     {
 368:Generated_Source\PSoC5/ConsolePort_2_RegD0.c ****         return(CY_GET_REG16(ConsolePort_2_RegD0_OUT_FIFO_VAL_LSB_PTR));
 369:Generated_Source\PSoC5/ConsolePort_2_RegD0.c ****     }
 370:Generated_Source\PSoC5/ConsolePort_2_RegD0.c **** #endif /* (0u != ConsolePort_2_RegD0_USE_OUTPUT_FIFO) */
 371:Generated_Source\PSoC5/ConsolePort_2_RegD0.c **** 
 372:Generated_Source\PSoC5/ConsolePort_2_RegD0.c **** 
 373:Generated_Source\PSoC5/ConsolePort_2_RegD0.c **** /*******************************************************************************
 374:Generated_Source\PSoC5/ConsolePort_2_RegD0.c **** * Function Name: ConsolePort_2_RegD0_ReadRegValue
 375:Generated_Source\PSoC5/ConsolePort_2_RegD0.c **** ********************************************************************************
 376:Generated_Source\PSoC5/ConsolePort_2_RegD0.c **** *
 377:Generated_Source\PSoC5/ConsolePort_2_RegD0.c **** * Summary:
 378:Generated_Source\PSoC5/ConsolePort_2_RegD0.c **** *  Directly returns current state in shift register, not data in FIFO due
 379:Generated_Source\PSoC5/ConsolePort_2_RegD0.c **** *  to Store input.
 380:Generated_Source\PSoC5/ConsolePort_2_RegD0.c **** *
 381:Generated_Source\PSoC5/ConsolePort_2_RegD0.c **** * Parameters:
 382:Generated_Source\PSoC5/ConsolePort_2_RegD0.c **** *  None.
 383:Generated_Source\PSoC5/ConsolePort_2_RegD0.c **** *
 384:Generated_Source\PSoC5/ConsolePort_2_RegD0.c **** * Return:
 385:Generated_Source\PSoC5/ConsolePort_2_RegD0.c **** *  Shift Register state. Clears output FIFO.
 386:Generated_Source\PSoC5/ConsolePort_2_RegD0.c **** *
 387:Generated_Source\PSoC5/ConsolePort_2_RegD0.c **** * Reentrant:
 388:Generated_Source\PSoC5/ConsolePort_2_RegD0.c **** *  No.
 389:Generated_Source\PSoC5/ConsolePort_2_RegD0.c **** *
 390:Generated_Source\PSoC5/ConsolePort_2_RegD0.c **** *******************************************************************************/
 391:Generated_Source\PSoC5/ConsolePort_2_RegD0.c **** uint16 ConsolePort_2_RegD0_ReadRegValue(void) 
 392:Generated_Source\PSoC5/ConsolePort_2_RegD0.c **** {
 363              		.loc 1 392 0
 364              		.cfi_startproc
 365              		@ args = 0, pretend = 0, frame = 0
 366              		@ frame_needed = 0, uses_anonymous_args = 0
 367 0000 08B5     		push	{r3, lr}
 368              		.cfi_def_cfa_offset 8
 369              		.cfi_offset 3, -8
 370              		.cfi_offset 14, -4
 393:Generated_Source\PSoC5/ConsolePort_2_RegD0.c ****     uint16 result;
 394:Generated_Source\PSoC5/ConsolePort_2_RegD0.c **** 
 395:Generated_Source\PSoC5/ConsolePort_2_RegD0.c ****     /* Clear FIFO before software capture */
 396:Generated_Source\PSoC5/ConsolePort_2_RegD0.c ****     while(ConsolePort_2_RegD0_RET_FIFO_EMPTY != ConsolePort_2_RegD0_GetFIFOStatus(ConsolePort_2_Reg
 371              		.loc 1 396 0
 372 0002 01E0     		b	.L42
 373              	.L43:
 397:Generated_Source\PSoC5/ConsolePort_2_RegD0.c ****     {
 398:Generated_Source\PSoC5/ConsolePort_2_RegD0.c ****         (void) CY_GET_REG16(ConsolePort_2_RegD0_OUT_FIFO_VAL_LSB_PTR);
 374              		.loc 1 398 0
 375 0004 064B     		ldr	r3, .L45
 376 0006 1B88     		ldrh	r3, [r3]
 377              	.L42:
 396:Generated_Source\PSoC5/ConsolePort_2_RegD0.c ****     {
 378              		.loc 1 396 0
 379 0008 0220     		movs	r0, #2
 380 000a FFF7FEFF 		bl	ConsolePort_2_RegD0_GetFIFOStatus
 381              	.LVL20:
 382 000e 0228     		cmp	r0, #2
 383 0010 F8D1     		bne	.L43
 399:Generated_Source\PSoC5/ConsolePort_2_RegD0.c ****     }
ARM GAS  C:\Users\natha\AppData\Local\Temp\ccy8crBk.s 			page 15


 400:Generated_Source\PSoC5/ConsolePort_2_RegD0.c **** 
 401:Generated_Source\PSoC5/ConsolePort_2_RegD0.c ****     /* Read of 8 bits from A1 causes capture to output FIFO */
 402:Generated_Source\PSoC5/ConsolePort_2_RegD0.c ****     (void) CY_GET_REG8(ConsolePort_2_RegD0_SHIFT_REG_CAPTURE_PTR);
 384              		.loc 1 402 0
 385 0012 044B     		ldr	r3, .L45+4
 386 0014 1B78     		ldrb	r3, [r3]	@ zero_extendqisi2
 403:Generated_Source\PSoC5/ConsolePort_2_RegD0.c **** 
 404:Generated_Source\PSoC5/ConsolePort_2_RegD0.c ****     /* Read output FIFO */
 405:Generated_Source\PSoC5/ConsolePort_2_RegD0.c ****     result  = CY_GET_REG16(ConsolePort_2_RegD0_OUT_FIFO_VAL_LSB_PTR);
 387              		.loc 1 405 0
 388 0016 024B     		ldr	r3, .L45
 389 0018 1888     		ldrh	r0, [r3]
 390              	.LVL21:
 406:Generated_Source\PSoC5/ConsolePort_2_RegD0.c ****     
 407:Generated_Source\PSoC5/ConsolePort_2_RegD0.c ****     #if(0u != (ConsolePort_2_RegD0_SR_SIZE % 8u))
 408:Generated_Source\PSoC5/ConsolePort_2_RegD0.c ****         result &= ((uint16) ConsolePort_2_RegD0_SR_MASK);
 409:Generated_Source\PSoC5/ConsolePort_2_RegD0.c ****     #endif /* (0u != (ConsolePort_2_RegD0_SR_SIZE % 8u)) */
 410:Generated_Source\PSoC5/ConsolePort_2_RegD0.c ****     
 411:Generated_Source\PSoC5/ConsolePort_2_RegD0.c ****     return(result);
 412:Generated_Source\PSoC5/ConsolePort_2_RegD0.c **** }
 391              		.loc 1 412 0
 392 001a 80B2     		uxth	r0, r0
 393 001c 08BD     		pop	{r3, pc}
 394              	.L46:
 395 001e 00BF     		.align	2
 396              	.L45:
 397 0020 58640040 		.word	1073767512
 398 0024 18640040 		.word	1073767448
 399              		.cfi_endproc
 400              	.LFE10:
 401              		.size	ConsolePort_2_RegD0_ReadRegValue, .-ConsolePort_2_RegD0_ReadRegValue
 402              		.global	ConsolePort_2_RegD0_initVar
 403              		.bss
 404              		.set	.LANCHOR0,. + 0
 405              		.type	ConsolePort_2_RegD0_initVar, %object
 406              		.size	ConsolePort_2_RegD0_initVar, 1
 407              	ConsolePort_2_RegD0_initVar:
 408 0000 00       		.space	1
 409              		.text
 410              	.Letext0:
 411              		.file 2 "Generated_Source\\PSoC5\\cytypes.h"
 412              		.file 3 "Generated_Source\\PSoC5\\CyLib.h"
