ARM GAS  C:\Users\natha\AppData\Local\Temp\ccvBOJ1K.s 			page 1


   1              		.syntax unified
   2              		.cpu cortex-m3
   3              		.fpu softvfp
   4              		.eabi_attribute 20, 1
   5              		.eabi_attribute 21, 1
   6              		.eabi_attribute 23, 3
   7              		.eabi_attribute 24, 1
   8              		.eabi_attribute 25, 1
   9              		.eabi_attribute 26, 1
  10              		.eabi_attribute 30, 1
  11              		.eabi_attribute 34, 1
  12              		.eabi_attribute 18, 4
  13              		.thumb
  14              		.file	"CyDmac.c"
  15              		.text
  16              	.Ltext0:
  17              		.cfi_sections	.debug_frame
  18              		.section	.text.CyDmacConfigure,"ax",%progbits
  19              		.align	2
  20              		.global	CyDmacConfigure
  21              		.thumb
  22              		.thumb_func
  23              		.type	CyDmacConfigure, %function
  24              	CyDmacConfigure:
  25              	.LFB0:
  26              		.file 1 "Generated_Source\\PSoC5\\CyDmac.c"
   1:Generated_Source\PSoC5/CyDmac.c **** /***************************************************************************//**
   2:Generated_Source\PSoC5/CyDmac.c **** * \file CyDmac.c
   3:Generated_Source\PSoC5/CyDmac.c **** * \version 5.50
   4:Generated_Source\PSoC5/CyDmac.c **** *
   5:Generated_Source\PSoC5/CyDmac.c **** * \brief
   6:Generated_Source\PSoC5/CyDmac.c **** * Provides an API for the DMAC component. The API includes functions for the
   7:Generated_Source\PSoC5/CyDmac.c **** * DMA controller, DMA channels and Transfer Descriptors. This API is the library
   8:Generated_Source\PSoC5/CyDmac.c **** * version not the auto generated code that gets generated when the user places a
   9:Generated_Source\PSoC5/CyDmac.c **** * DMA component on the schematic.
  10:Generated_Source\PSoC5/CyDmac.c **** *
  11:Generated_Source\PSoC5/CyDmac.c **** * The auto generated code would use the APi's in this module.
  12:Generated_Source\PSoC5/CyDmac.c **** *
  13:Generated_Source\PSoC5/CyDmac.c **** * \note This code is endian agnostic.
  14:Generated_Source\PSoC5/CyDmac.c **** *
  15:Generated_Source\PSoC5/CyDmac.c **** * \note The Transfer Descriptor memory can be used as regular memory if the
  16:Generated_Source\PSoC5/CyDmac.c **** * TD's are not being used.
  17:Generated_Source\PSoC5/CyDmac.c **** *
  18:Generated_Source\PSoC5/CyDmac.c **** * \note This code uses the first byte of each TD to manage the free list of
  19:Generated_Source\PSoC5/CyDmac.c **** * TD's. The user can overwrite this once the TD is allocated.
  20:Generated_Source\PSoC5/CyDmac.c **** *
  21:Generated_Source\PSoC5/CyDmac.c **** ********************************************************************************
  22:Generated_Source\PSoC5/CyDmac.c **** * \copyright
  23:Generated_Source\PSoC5/CyDmac.c **** * Copyright 2008-2016, Cypress Semiconductor Corporation.  All rights reserved.
  24:Generated_Source\PSoC5/CyDmac.c **** * You may use this file only in accordance with the license, terms, conditions,
  25:Generated_Source\PSoC5/CyDmac.c **** * disclaimers, and limitations in the end user license agreement accompanying
  26:Generated_Source\PSoC5/CyDmac.c **** * the software package with which this file was provided.
  27:Generated_Source\PSoC5/CyDmac.c **** *******************************************************************************/
  28:Generated_Source\PSoC5/CyDmac.c **** 
  29:Generated_Source\PSoC5/CyDmac.c **** #include "CyDmac.h"
  30:Generated_Source\PSoC5/CyDmac.c **** 
  31:Generated_Source\PSoC5/CyDmac.c **** 
ARM GAS  C:\Users\natha\AppData\Local\Temp\ccvBOJ1K.s 			page 2


  32:Generated_Source\PSoC5/CyDmac.c **** /*******************************************************************************
  33:Generated_Source\PSoC5/CyDmac.c **** * The following variables are initialized from CyDmacConfigure() function that
  34:Generated_Source\PSoC5/CyDmac.c **** * is executed from initialize_psoc() at the early initialization stage.
  35:Generated_Source\PSoC5/CyDmac.c **** * In case of IAR EW IDE, initialize_psoc() is executed before the data sections
  36:Generated_Source\PSoC5/CyDmac.c **** * are initialized. To avoid zeroing, these variables should be initialized
  37:Generated_Source\PSoC5/CyDmac.c **** * properly during segments initialization as well.
  38:Generated_Source\PSoC5/CyDmac.c **** *******************************************************************************/
  39:Generated_Source\PSoC5/CyDmac.c **** static uint8  CyDmaTdCurrentNumber = CY_DMA_NUMBEROF_TDS;           /* Current Number of free eleme
  40:Generated_Source\PSoC5/CyDmac.c **** static uint8  CyDmaTdFreeIndex = (uint8)(CY_DMA_NUMBEROF_TDS - 1u); /* Index of first available TD 
  41:Generated_Source\PSoC5/CyDmac.c **** static uint32 CyDmaChannels = DMA_CHANNELS_USED__MASK0;              /* Bit map of DMA channel owne
  42:Generated_Source\PSoC5/CyDmac.c **** 
  43:Generated_Source\PSoC5/CyDmac.c **** 
  44:Generated_Source\PSoC5/CyDmac.c **** /*******************************************************************************
  45:Generated_Source\PSoC5/CyDmac.c **** * Function Name: CyDmacConfigure
  46:Generated_Source\PSoC5/CyDmac.c **** ****************************************************************************//**
  47:Generated_Source\PSoC5/CyDmac.c **** *
  48:Generated_Source\PSoC5/CyDmac.c **** * Creates a linked list of all the TDs to be allocated. This function is called
  49:Generated_Source\PSoC5/CyDmac.c **** * by the startup code; you do not normally need to call it. You can call this
  50:Generated_Source\PSoC5/CyDmac.c **** * function if all of the DMA channels are inactive.
  51:Generated_Source\PSoC5/CyDmac.c **** *
  52:Generated_Source\PSoC5/CyDmac.c **** *******************************************************************************/
  53:Generated_Source\PSoC5/CyDmac.c **** void CyDmacConfigure(void) 
  54:Generated_Source\PSoC5/CyDmac.c **** {
  27              		.loc 1 54 0
  28              		.cfi_startproc
  29              		@ args = 0, pretend = 0, frame = 0
  30              		@ frame_needed = 0, uses_anonymous_args = 0
  31              		@ link register save eliminated.
  55:Generated_Source\PSoC5/CyDmac.c ****     uint8 dmaIndex;
  56:Generated_Source\PSoC5/CyDmac.c **** 
  57:Generated_Source\PSoC5/CyDmac.c ****     /* Set TD list variables. */
  58:Generated_Source\PSoC5/CyDmac.c ****     CyDmaTdFreeIndex     = (uint8)(CY_DMA_NUMBEROF_TDS - 1u);
  32              		.loc 1 58 0
  33 0000 0B4A     		ldr	r2, .L4
  34 0002 7F23     		movs	r3, #127
  35 0004 1370     		strb	r3, [r2]
  59:Generated_Source\PSoC5/CyDmac.c ****     CyDmaTdCurrentNumber = CY_DMA_NUMBEROF_TDS;
  36              		.loc 1 59 0
  37 0006 8021     		movs	r1, #128
  38 0008 5170     		strb	r1, [r2, #1]
  39              	.LVL0:
  60:Generated_Source\PSoC5/CyDmac.c **** 
  61:Generated_Source\PSoC5/CyDmac.c ****     /* Make TD free list. */
  62:Generated_Source\PSoC5/CyDmac.c ****     for(dmaIndex = (uint8)(CY_DMA_NUMBEROF_TDS - 1u); dmaIndex != 0u; dmaIndex--)
  40              		.loc 1 62 0
  41 000a 07E0     		b	.L2
  42              	.LVL1:
  43              	.L3:
  63:Generated_Source\PSoC5/CyDmac.c ****     {
  64:Generated_Source\PSoC5/CyDmac.c ****         CY_DMA_TDMEM_STRUCT_PTR[dmaIndex].TD0[0u] = (uint8)(dmaIndex - 1u);
  44              		.loc 1 64 0 discriminator 3
  45 000c DA00     		lsls	r2, r3, #3
  46 000e 02F18042 		add	r2, r2, #1073741824
  47 0012 02F5F042 		add	r2, r2, #30720
  48 0016 013B     		subs	r3, r3, #1
  49              	.LVL2:
  50 0018 DBB2     		uxtb	r3, r3
ARM GAS  C:\Users\natha\AppData\Local\Temp\ccvBOJ1K.s 			page 3


  51 001a 1370     		strb	r3, [r2]
  52              	.LVL3:
  53              	.L2:
  62:Generated_Source\PSoC5/CyDmac.c ****     {
  54              		.loc 1 62 0 discriminator 1
  55 001c 002B     		cmp	r3, #0
  56 001e F5D1     		bne	.L3
  65:Generated_Source\PSoC5/CyDmac.c ****     }
  66:Generated_Source\PSoC5/CyDmac.c **** 
  67:Generated_Source\PSoC5/CyDmac.c ****     /* Make last one point to zero. */
  68:Generated_Source\PSoC5/CyDmac.c ****     CY_DMA_TDMEM_STRUCT_PTR[dmaIndex].TD0[0u] = 0u;
  57              		.loc 1 68 0
  58 0020 DB00     		lsls	r3, r3, #3
  59              	.LVL4:
  60 0022 03F18043 		add	r3, r3, #1073741824
  61 0026 03F5F043 		add	r3, r3, #30720
  62 002a 0022     		movs	r2, #0
  63 002c 1A70     		strb	r2, [r3]
  64 002e 7047     		bx	lr
  65              	.L5:
  66              		.align	2
  67              	.L4:
  68 0030 00000000 		.word	.LANCHOR0
  69              		.cfi_endproc
  70              	.LFE0:
  71              		.size	CyDmacConfigure, .-CyDmacConfigure
  72              		.section	.text.CyDmacError,"ax",%progbits
  73              		.align	2
  74              		.global	CyDmacError
  75              		.thumb
  76              		.thumb_func
  77              		.type	CyDmacError, %function
  78              	CyDmacError:
  79              	.LFB1:
  69:Generated_Source\PSoC5/CyDmac.c **** }
  70:Generated_Source\PSoC5/CyDmac.c **** 
  71:Generated_Source\PSoC5/CyDmac.c **** 
  72:Generated_Source\PSoC5/CyDmac.c **** /*******************************************************************************
  73:Generated_Source\PSoC5/CyDmac.c **** * Function Name: CyDmacError
  74:Generated_Source\PSoC5/CyDmac.c **** ****************************************************************************//**
  75:Generated_Source\PSoC5/CyDmac.c **** *
  76:Generated_Source\PSoC5/CyDmac.c **** *  Returns errors of the last failed DMA transaction.
  77:Generated_Source\PSoC5/CyDmac.c **** *
  78:Generated_Source\PSoC5/CyDmac.c **** * \return Errors of the last failed DMA transaction.
  79:Generated_Source\PSoC5/CyDmac.c **** *
  80:Generated_Source\PSoC5/CyDmac.c **** *  DMAC_PERIPH_ERR:
  81:Generated_Source\PSoC5/CyDmac.c **** *   Set to 1 when a peripheral responds to a bus transaction with an error
  82:Generated_Source\PSoC5/CyDmac.c **** *   response.
  83:Generated_Source\PSoC5/CyDmac.c **** *
  84:Generated_Source\PSoC5/CyDmac.c **** *  DMAC_UNPOP_ACC:
  85:Generated_Source\PSoC5/CyDmac.c **** *   Set to 1 when an access is attempted to an invalid address.
  86:Generated_Source\PSoC5/CyDmac.c **** *
  87:Generated_Source\PSoC5/CyDmac.c **** *  DMAC_BUS_TIMEOUT:
  88:Generated_Source\PSoC5/CyDmac.c **** *   Set to 1 when a bus timeout occurs. Cleared by writing a 1. Timeout values
  89:Generated_Source\PSoC5/CyDmac.c **** *   are determined by the BUS_TIMEOUT field in the PHUBCFG register.
  90:Generated_Source\PSoC5/CyDmac.c **** *
  91:Generated_Source\PSoC5/CyDmac.c **** * Theory:
ARM GAS  C:\Users\natha\AppData\Local\Temp\ccvBOJ1K.s 			page 4


  92:Generated_Source\PSoC5/CyDmac.c **** *  Once an error occurs the error bits are sticky and are only cleared by
  93:Generated_Source\PSoC5/CyDmac.c **** *  writing 1 to the error register.
  94:Generated_Source\PSoC5/CyDmac.c **** *
  95:Generated_Source\PSoC5/CyDmac.c **** *******************************************************************************/
  96:Generated_Source\PSoC5/CyDmac.c **** uint8 CyDmacError(void) 
  97:Generated_Source\PSoC5/CyDmac.c **** {
  80              		.loc 1 97 0
  81              		.cfi_startproc
  82              		@ args = 0, pretend = 0, frame = 0
  83              		@ frame_needed = 0, uses_anonymous_args = 0
  84              		@ link register save eliminated.
  98:Generated_Source\PSoC5/CyDmac.c ****     return((uint8)(((uint32) 0x0Eu) & *CY_DMA_ERR_PTR));
  85              		.loc 1 98 0
  86 0000 024B     		ldr	r3, .L7
  87 0002 1868     		ldr	r0, [r3]
  99:Generated_Source\PSoC5/CyDmac.c **** }
  88              		.loc 1 99 0
  89 0004 00F00E00 		and	r0, r0, #14
  90 0008 7047     		bx	lr
  91              	.L8:
  92 000a 00BF     		.align	2
  93              	.L7:
  94 000c 04700040 		.word	1073770500
  95              		.cfi_endproc
  96              	.LFE1:
  97              		.size	CyDmacError, .-CyDmacError
  98              		.section	.text.CyDmacClearError,"ax",%progbits
  99              		.align	2
 100              		.global	CyDmacClearError
 101              		.thumb
 102              		.thumb_func
 103              		.type	CyDmacClearError, %function
 104              	CyDmacClearError:
 105              	.LFB2:
 100:Generated_Source\PSoC5/CyDmac.c **** 
 101:Generated_Source\PSoC5/CyDmac.c **** 
 102:Generated_Source\PSoC5/CyDmac.c **** /*******************************************************************************
 103:Generated_Source\PSoC5/CyDmac.c **** * Function Name: CyDmacClearError
 104:Generated_Source\PSoC5/CyDmac.c **** ****************************************************************************//**
 105:Generated_Source\PSoC5/CyDmac.c **** *
 106:Generated_Source\PSoC5/CyDmac.c **** *  Clears the error bits in the error register of the DMAC.
 107:Generated_Source\PSoC5/CyDmac.c **** *
 108:Generated_Source\PSoC5/CyDmac.c **** * \param error:
 109:Generated_Source\PSoC5/CyDmac.c **** *   Clears the error bits in the DMAC error register.
 110:Generated_Source\PSoC5/CyDmac.c **** *
 111:Generated_Source\PSoC5/CyDmac.c **** *  \param DMAC_PERIPH_ERR:
 112:Generated_Source\PSoC5/CyDmac.c **** *   Set to 1 when a peripheral responds to a bus transaction with an error
 113:Generated_Source\PSoC5/CyDmac.c **** *   response.
 114:Generated_Source\PSoC5/CyDmac.c **** *
 115:Generated_Source\PSoC5/CyDmac.c **** *  \param DMAC_UNPOP_ACC:
 116:Generated_Source\PSoC5/CyDmac.c **** *   Set to 1 when an access is attempted to an invalid address.
 117:Generated_Source\PSoC5/CyDmac.c **** *
 118:Generated_Source\PSoC5/CyDmac.c **** *  \param DMAC_BUS_TIMEOUT:
 119:Generated_Source\PSoC5/CyDmac.c **** *   Set to 1 when a bus timeout occurs. Cleared by writing 1. Timeout values
 120:Generated_Source\PSoC5/CyDmac.c **** *   are determined by the BUS_TIMEOUT field in the PHUBCFG register.
 121:Generated_Source\PSoC5/CyDmac.c **** *
 122:Generated_Source\PSoC5/CyDmac.c **** * Theory:
ARM GAS  C:\Users\natha\AppData\Local\Temp\ccvBOJ1K.s 			page 5


 123:Generated_Source\PSoC5/CyDmac.c **** *  Once an error occurs the error bits are sticky and are only cleared by
 124:Generated_Source\PSoC5/CyDmac.c **** *  writing 1 to the error register.
 125:Generated_Source\PSoC5/CyDmac.c **** *
 126:Generated_Source\PSoC5/CyDmac.c **** *******************************************************************************/
 127:Generated_Source\PSoC5/CyDmac.c **** void CyDmacClearError(uint8 error) 
 128:Generated_Source\PSoC5/CyDmac.c **** {
 106              		.loc 1 128 0
 107              		.cfi_startproc
 108              		@ args = 0, pretend = 0, frame = 0
 109              		@ frame_needed = 0, uses_anonymous_args = 0
 110              		@ link register save eliminated.
 111              	.LVL5:
 129:Generated_Source\PSoC5/CyDmac.c ****     *CY_DMA_ERR_PTR = (((uint32)0x0Fu) & ((uint32)error));
 112              		.loc 1 129 0
 113 0000 00F00F00 		and	r0, r0, #15
 114              	.LVL6:
 115 0004 014B     		ldr	r3, .L10
 116 0006 1860     		str	r0, [r3]
 117 0008 7047     		bx	lr
 118              	.L11:
 119 000a 00BF     		.align	2
 120              	.L10:
 121 000c 04700040 		.word	1073770500
 122              		.cfi_endproc
 123              	.LFE2:
 124              		.size	CyDmacClearError, .-CyDmacClearError
 125              		.section	.text.CyDmacErrorAddress,"ax",%progbits
 126              		.align	2
 127              		.global	CyDmacErrorAddress
 128              		.thumb
 129              		.thumb_func
 130              		.type	CyDmacErrorAddress, %function
 131              	CyDmacErrorAddress:
 132              	.LFB3:
 130:Generated_Source\PSoC5/CyDmac.c **** }
 131:Generated_Source\PSoC5/CyDmac.c **** 
 132:Generated_Source\PSoC5/CyDmac.c **** 
 133:Generated_Source\PSoC5/CyDmac.c **** /*******************************************************************************
 134:Generated_Source\PSoC5/CyDmac.c **** * Function Name: CyDmacErrorAddress
 135:Generated_Source\PSoC5/CyDmac.c **** ****************************************************************************//**
 136:Generated_Source\PSoC5/CyDmac.c **** *
 137:Generated_Source\PSoC5/CyDmac.c **** *  When DMAC_BUS_TIMEOUT, DMAC_UNPOP_ACC, and DMAC_PERIPH_ERR occur the
 138:Generated_Source\PSoC5/CyDmac.c **** *  address of the error is written to the error address register and can be read
 139:Generated_Source\PSoC5/CyDmac.c **** *  with this function.
 140:Generated_Source\PSoC5/CyDmac.c **** *
 141:Generated_Source\PSoC5/CyDmac.c **** *  If there are multiple errors, only the address of the first is saved.
 142:Generated_Source\PSoC5/CyDmac.c **** *
 143:Generated_Source\PSoC5/CyDmac.c **** * \return The address that caused the error.
 144:Generated_Source\PSoC5/CyDmac.c **** *
 145:Generated_Source\PSoC5/CyDmac.c **** *******************************************************************************/
 146:Generated_Source\PSoC5/CyDmac.c **** uint32 CyDmacErrorAddress(void) 
 147:Generated_Source\PSoC5/CyDmac.c **** {
 133              		.loc 1 147 0
 134              		.cfi_startproc
 135              		@ args = 0, pretend = 0, frame = 0
 136              		@ frame_needed = 0, uses_anonymous_args = 0
 137              		@ link register save eliminated.
ARM GAS  C:\Users\natha\AppData\Local\Temp\ccvBOJ1K.s 			page 6


 148:Generated_Source\PSoC5/CyDmac.c ****     return(CY_GET_REG32(CY_DMA_ERR_ADR_PTR));
 138              		.loc 1 148 0
 139 0000 014B     		ldr	r3, .L13
 140 0002 1868     		ldr	r0, [r3]
 149:Generated_Source\PSoC5/CyDmac.c **** }
 141              		.loc 1 149 0
 142 0004 7047     		bx	lr
 143              	.L14:
 144 0006 00BF     		.align	2
 145              	.L13:
 146 0008 08700040 		.word	1073770504
 147              		.cfi_endproc
 148              	.LFE3:
 149              		.size	CyDmacErrorAddress, .-CyDmacErrorAddress
 150              		.section	.text.CyDmaChAlloc,"ax",%progbits
 151              		.align	2
 152              		.global	CyDmaChAlloc
 153              		.thumb
 154              		.thumb_func
 155              		.type	CyDmaChAlloc, %function
 156              	CyDmaChAlloc:
 157              	.LFB4:
 150:Generated_Source\PSoC5/CyDmac.c **** 
 151:Generated_Source\PSoC5/CyDmac.c **** 
 152:Generated_Source\PSoC5/CyDmac.c **** /*******************************************************************************
 153:Generated_Source\PSoC5/CyDmac.c **** * Function Name: CyDmaChAlloc
 154:Generated_Source\PSoC5/CyDmac.c **** ****************************************************************************//**
 155:Generated_Source\PSoC5/CyDmac.c **** *
 156:Generated_Source\PSoC5/CyDmac.c **** *  Allocates a channel from the DMAC to be used in all functions that require a
 157:Generated_Source\PSoC5/CyDmac.c **** *  channel handle.
 158:Generated_Source\PSoC5/CyDmac.c **** *
 159:Generated_Source\PSoC5/CyDmac.c **** * \return The allocated channel number. Zero is a valid channel number.
 160:Generated_Source\PSoC5/CyDmac.c **** *  DMA_INVALID_CHANNEL is returned if there are no channels available.
 161:Generated_Source\PSoC5/CyDmac.c **** *
 162:Generated_Source\PSoC5/CyDmac.c **** *******************************************************************************/
 163:Generated_Source\PSoC5/CyDmac.c **** uint8 CyDmaChAlloc(void) 
 164:Generated_Source\PSoC5/CyDmac.c **** {
 158              		.loc 1 164 0
 159              		.cfi_startproc
 160              		@ args = 0, pretend = 0, frame = 0
 161              		@ frame_needed = 0, uses_anonymous_args = 0
 162 0000 10B5     		push	{r4, lr}
 163              		.cfi_def_cfa_offset 8
 164              		.cfi_offset 4, -8
 165              		.cfi_offset 14, -4
 166              	.LVL7:
 165:Generated_Source\PSoC5/CyDmac.c ****     uint8 interruptState;
 166:Generated_Source\PSoC5/CyDmac.c ****     uint8 dmaIndex;
 167:Generated_Source\PSoC5/CyDmac.c ****     uint32 channel = 1u;
 168:Generated_Source\PSoC5/CyDmac.c **** 
 169:Generated_Source\PSoC5/CyDmac.c **** 
 170:Generated_Source\PSoC5/CyDmac.c ****     /* Enter critical section! */
 171:Generated_Source\PSoC5/CyDmac.c ****     interruptState = CyEnterCriticalSection();
 167              		.loc 1 171 0
 168 0002 FFF7FEFF 		bl	CyEnterCriticalSection
 169              	.LVL8:
 167:Generated_Source\PSoC5/CyDmac.c **** 
ARM GAS  C:\Users\natha\AppData\Local\Temp\ccvBOJ1K.s 			page 7


 170              		.loc 1 167 0
 171 0006 0123     		movs	r3, #1
 172:Generated_Source\PSoC5/CyDmac.c **** 
 173:Generated_Source\PSoC5/CyDmac.c ****     /* Look for free channel. */
 174:Generated_Source\PSoC5/CyDmac.c ****     for(dmaIndex = 0u; dmaIndex < CY_DMA_NUMBEROF_CHANNELS; dmaIndex++)
 172              		.loc 1 174 0
 173 0008 0024     		movs	r4, #0
 174 000a 0AE0     		b	.L16
 175              	.LVL9:
 176              	.L19:
 175:Generated_Source\PSoC5/CyDmac.c ****     {
 176:Generated_Source\PSoC5/CyDmac.c ****         if(0uL == (CyDmaChannels & channel))
 177              		.loc 1 176 0
 178 000c 094A     		ldr	r2, .L23
 179 000e 1268     		ldr	r2, [r2]
 180 0010 1A42     		tst	r2, r3
 181 0012 03D1     		bne	.L17
 177:Generated_Source\PSoC5/CyDmac.c ****         {
 178:Generated_Source\PSoC5/CyDmac.c ****             /* Mark channel as used. */
 179:Generated_Source\PSoC5/CyDmac.c ****             CyDmaChannels |= channel;
 182              		.loc 1 179 0
 183 0014 1343     		orrs	r3, r3, r2
 184              	.LVL10:
 185 0016 074A     		ldr	r2, .L23
 186 0018 1360     		str	r3, [r2]
 180:Generated_Source\PSoC5/CyDmac.c ****             break;
 187              		.loc 1 180 0
 188 001a 04E0     		b	.L18
 189              	.LVL11:
 190              	.L17:
 181:Generated_Source\PSoC5/CyDmac.c ****         }
 182:Generated_Source\PSoC5/CyDmac.c **** 
 183:Generated_Source\PSoC5/CyDmac.c ****         channel <<= 1u;
 191              		.loc 1 183 0 discriminator 2
 192 001c 5B00     		lsls	r3, r3, #1
 193              	.LVL12:
 174:Generated_Source\PSoC5/CyDmac.c ****     {
 194              		.loc 1 174 0 discriminator 2
 195 001e 0134     		adds	r4, r4, #1
 196              	.LVL13:
 197 0020 E4B2     		uxtb	r4, r4
 198              	.LVL14:
 199              	.L16:
 174:Generated_Source\PSoC5/CyDmac.c ****     {
 200              		.loc 1 174 0 is_stmt 0 discriminator 1
 201 0022 172C     		cmp	r4, #23
 202 0024 F2D9     		bls	.L19
 203              	.LVL15:
 204              	.L18:
 184:Generated_Source\PSoC5/CyDmac.c ****     }
 185:Generated_Source\PSoC5/CyDmac.c **** 
 186:Generated_Source\PSoC5/CyDmac.c ****     if(dmaIndex >= CY_DMA_NUMBEROF_CHANNELS)
 205              		.loc 1 186 0 is_stmt 1
 206 0026 172C     		cmp	r4, #23
 207 0028 00D9     		bls	.L20
 187:Generated_Source\PSoC5/CyDmac.c ****     {
 188:Generated_Source\PSoC5/CyDmac.c ****         dmaIndex = CY_DMA_INVALID_CHANNEL;
ARM GAS  C:\Users\natha\AppData\Local\Temp\ccvBOJ1K.s 			page 8


 208              		.loc 1 188 0
 209 002a FF24     		movs	r4, #255
 210              	.LVL16:
 211              	.L20:
 189:Generated_Source\PSoC5/CyDmac.c ****     }
 190:Generated_Source\PSoC5/CyDmac.c **** 
 191:Generated_Source\PSoC5/CyDmac.c ****     /* Exit critical section! */
 192:Generated_Source\PSoC5/CyDmac.c ****     CyExitCriticalSection(interruptState);
 212              		.loc 1 192 0
 213 002c FFF7FEFF 		bl	CyExitCriticalSection
 214              	.LVL17:
 193:Generated_Source\PSoC5/CyDmac.c **** 
 194:Generated_Source\PSoC5/CyDmac.c ****     return(dmaIndex);
 195:Generated_Source\PSoC5/CyDmac.c **** }
 215              		.loc 1 195 0
 216 0030 2046     		mov	r0, r4
 217 0032 10BD     		pop	{r4, pc}
 218              	.LVL18:
 219              	.L24:
 220              		.align	2
 221              	.L23:
 222 0034 00000000 		.word	.LANCHOR1
 223              		.cfi_endproc
 224              	.LFE4:
 225              		.size	CyDmaChAlloc, .-CyDmaChAlloc
 226              		.section	.text.CyDmaChFree,"ax",%progbits
 227              		.align	2
 228              		.global	CyDmaChFree
 229              		.thumb
 230              		.thumb_func
 231              		.type	CyDmaChFree, %function
 232              	CyDmaChFree:
 233              	.LFB5:
 196:Generated_Source\PSoC5/CyDmac.c **** 
 197:Generated_Source\PSoC5/CyDmac.c **** 
 198:Generated_Source\PSoC5/CyDmac.c **** /*******************************************************************************
 199:Generated_Source\PSoC5/CyDmac.c **** * Function Name: CyDmaChFree
 200:Generated_Source\PSoC5/CyDmac.c **** ****************************************************************************//**
 201:Generated_Source\PSoC5/CyDmac.c **** *
 202:Generated_Source\PSoC5/CyDmac.c **** * Frees a channel allocated by \ref DmaChAlloc().
 203:Generated_Source\PSoC5/CyDmac.c **** *
 204:Generated_Source\PSoC5/CyDmac.c **** * \param chHandle The handle previously returned by \ref CyDmaChAlloc() or \ref
 205:Generated_Source\PSoC5/CyDmac.c **** * DMA_DmaInitalize().
 206:Generated_Source\PSoC5/CyDmac.c **** *
 207:Generated_Source\PSoC5/CyDmac.c **** * \return CYRET_SUCCESS if successful.
 208:Generated_Source\PSoC5/CyDmac.c **** * \return CYRET_BAD_PARAM if chHandle is invalid.
 209:Generated_Source\PSoC5/CyDmac.c **** *
 210:Generated_Source\PSoC5/CyDmac.c **** *******************************************************************************/
 211:Generated_Source\PSoC5/CyDmac.c **** cystatus CyDmaChFree(uint8 chHandle) 
 212:Generated_Source\PSoC5/CyDmac.c **** {
 234              		.loc 1 212 0
 235              		.cfi_startproc
 236              		@ args = 0, pretend = 0, frame = 0
 237              		@ frame_needed = 0, uses_anonymous_args = 0
 238              	.LVL19:
 213:Generated_Source\PSoC5/CyDmac.c ****     cystatus status = CYRET_BAD_PARAM;
 214:Generated_Source\PSoC5/CyDmac.c ****     uint8 interruptState;
ARM GAS  C:\Users\natha\AppData\Local\Temp\ccvBOJ1K.s 			page 9


 215:Generated_Source\PSoC5/CyDmac.c **** 
 216:Generated_Source\PSoC5/CyDmac.c ****     if(chHandle < CY_DMA_NUMBEROF_CHANNELS)
 239              		.loc 1 216 0
 240 0000 1728     		cmp	r0, #23
 241 0002 0FD8     		bhi	.L27
 212:Generated_Source\PSoC5/CyDmac.c ****     cystatus status = CYRET_BAD_PARAM;
 242              		.loc 1 212 0
 243 0004 10B5     		push	{r4, lr}
 244              		.cfi_def_cfa_offset 8
 245              		.cfi_offset 4, -8
 246              		.cfi_offset 14, -4
 247 0006 0446     		mov	r4, r0
 217:Generated_Source\PSoC5/CyDmac.c ****     {
 218:Generated_Source\PSoC5/CyDmac.c ****         /* Enter critical section */
 219:Generated_Source\PSoC5/CyDmac.c ****         interruptState = CyEnterCriticalSection();
 248              		.loc 1 219 0
 249 0008 FFF7FEFF 		bl	CyEnterCriticalSection
 250              	.LVL20:
 220:Generated_Source\PSoC5/CyDmac.c **** 
 221:Generated_Source\PSoC5/CyDmac.c ****         /* Clear bit mask that keeps track of ownership. */
 222:Generated_Source\PSoC5/CyDmac.c ****         CyDmaChannels &= ~(((uint32) 1u) << chHandle);
 251              		.loc 1 222 0
 252 000c 0123     		movs	r3, #1
 253 000e 03FA04F2 		lsl	r2, r3, r4
 254 0012 0549     		ldr	r1, .L30
 255 0014 0B68     		ldr	r3, [r1]
 256 0016 23EA0203 		bic	r3, r3, r2
 257 001a 0B60     		str	r3, [r1]
 223:Generated_Source\PSoC5/CyDmac.c **** 
 224:Generated_Source\PSoC5/CyDmac.c ****         /* Exit critical section */
 225:Generated_Source\PSoC5/CyDmac.c ****         CyExitCriticalSection(interruptState);
 258              		.loc 1 225 0
 259 001c FFF7FEFF 		bl	CyExitCriticalSection
 260              	.LVL21:
 226:Generated_Source\PSoC5/CyDmac.c ****         status = CYRET_SUCCESS;
 261              		.loc 1 226 0
 262 0020 0020     		movs	r0, #0
 263 0022 10BD     		pop	{r4, pc}
 264              	.LVL22:
 265              	.L27:
 266              		.cfi_def_cfa_offset 0
 267              		.cfi_restore 4
 268              		.cfi_restore 14
 213:Generated_Source\PSoC5/CyDmac.c ****     uint8 interruptState;
 269              		.loc 1 213 0
 270 0024 0120     		movs	r0, #1
 271              	.LVL23:
 272 0026 7047     		bx	lr
 273              	.L31:
 274              		.align	2
 275              	.L30:
 276 0028 00000000 		.word	.LANCHOR1
 277              		.cfi_endproc
 278              	.LFE5:
 279              		.size	CyDmaChFree, .-CyDmaChFree
 280              		.section	.text.CyDmaChEnable,"ax",%progbits
 281              		.align	2
ARM GAS  C:\Users\natha\AppData\Local\Temp\ccvBOJ1K.s 			page 10


 282              		.global	CyDmaChEnable
 283              		.thumb
 284              		.thumb_func
 285              		.type	CyDmaChEnable, %function
 286              	CyDmaChEnable:
 287              	.LFB6:
 227:Generated_Source\PSoC5/CyDmac.c ****     }
 228:Generated_Source\PSoC5/CyDmac.c **** 
 229:Generated_Source\PSoC5/CyDmac.c ****     return(status);
 230:Generated_Source\PSoC5/CyDmac.c **** }
 231:Generated_Source\PSoC5/CyDmac.c **** 
 232:Generated_Source\PSoC5/CyDmac.c **** 
 233:Generated_Source\PSoC5/CyDmac.c **** /*******************************************************************************
 234:Generated_Source\PSoC5/CyDmac.c **** * Function Name: CyDmaChEnable
 235:Generated_Source\PSoC5/CyDmac.c **** ****************************************************************************//**
 236:Generated_Source\PSoC5/CyDmac.c **** *
 237:Generated_Source\PSoC5/CyDmac.c **** *  Enables the DMA channel. A software or hardware request still must happen
 238:Generated_Source\PSoC5/CyDmac.c **** *  before the channel is executed.
 239:Generated_Source\PSoC5/CyDmac.c **** *
 240:Generated_Source\PSoC5/CyDmac.c **** *  \param chHandle A handle previously returned by \ref CyDmaChAlloc() or \ref
 241:Generated_Source\PSoC5/CyDmac.c **** *  DMA_DmaInitalize().
 242:Generated_Source\PSoC5/CyDmac.c **** *
 243:Generated_Source\PSoC5/CyDmac.c **** *  \param preserveTds Preserves the original TD state when the TD has completed.
 244:Generated_Source\PSoC5/CyDmac.c **** *  This parameter applies to all TDs in the channel.
 245:Generated_Source\PSoC5/CyDmac.c **** *
 246:Generated_Source\PSoC5/CyDmac.c **** *   0 - When TD is completed, the DMAC leaves the TD configuration values in
 247:Generated_Source\PSoC5/CyDmac.c **** *   their current state, and does not restore them to their original state.
 248:Generated_Source\PSoC5/CyDmac.c **** *
 249:Generated_Source\PSoC5/CyDmac.c **** *   1 - When TD is completed, the DMAC restores the original configuration
 250:Generated_Source\PSoC5/CyDmac.c **** *   values of the TD.
 251:Generated_Source\PSoC5/CyDmac.c **** *
 252:Generated_Source\PSoC5/CyDmac.c **** *  When preserveTds is set, the TD slot that equals the channel number becomes
 253:Generated_Source\PSoC5/CyDmac.c **** *  RESERVED and that becomes where the working registers exist. So, for example,
 254:Generated_Source\PSoC5/CyDmac.c **** *  if you are using CH06 and preserveTds is set, you are not allowed to use TD
 255:Generated_Source\PSoC5/CyDmac.c **** *  slot 6. That is reclaimed by the DMA engine for its private use.
 256:Generated_Source\PSoC5/CyDmac.c **** *
 257:Generated_Source\PSoC5/CyDmac.c **** *  \note Do not chain back to a completed TD if the preserveTds for the channel
 258:Generated_Source\PSoC5/CyDmac.c **** *  is set to 0. When a TD has completed preserveTds for the channel set to 0,
 259:Generated_Source\PSoC5/CyDmac.c **** *  the transfer count will be at 0. If a TD with a transfer count of 0 is
 260:Generated_Source\PSoC5/CyDmac.c **** *  started, the TD will transfer an indefinite amount of data.
 261:Generated_Source\PSoC5/CyDmac.c **** *
 262:Generated_Source\PSoC5/CyDmac.c **** *  Take extra precautions when using the hardware request (DRQ) option when the
 263:Generated_Source\PSoC5/CyDmac.c **** *  preserveTds is set to 0, as you might be requesting the wrong data.
 264:Generated_Source\PSoC5/CyDmac.c **** *
 265:Generated_Source\PSoC5/CyDmac.c **** * \return CYRET_SUCCESS if successful.
 266:Generated_Source\PSoC5/CyDmac.c **** * \return CYRET_BAD_PARAM if chHandle is invalid.
 267:Generated_Source\PSoC5/CyDmac.c **** *
 268:Generated_Source\PSoC5/CyDmac.c **** *******************************************************************************/
 269:Generated_Source\PSoC5/CyDmac.c **** cystatus CyDmaChEnable(uint8 chHandle, uint8 preserveTds) 
 270:Generated_Source\PSoC5/CyDmac.c **** {
 288              		.loc 1 270 0
 289              		.cfi_startproc
 290              		@ args = 0, pretend = 0, frame = 0
 291              		@ frame_needed = 0, uses_anonymous_args = 0
 292              		@ link register save eliminated.
 293              	.LVL24:
 271:Generated_Source\PSoC5/CyDmac.c ****     cystatus status = CYRET_BAD_PARAM;
ARM GAS  C:\Users\natha\AppData\Local\Temp\ccvBOJ1K.s 			page 11


 272:Generated_Source\PSoC5/CyDmac.c **** 
 273:Generated_Source\PSoC5/CyDmac.c ****     if(chHandle < CY_DMA_NUMBEROF_CHANNELS)
 294              		.loc 1 273 0
 295 0000 1728     		cmp	r0, #23
 296 0002 15D8     		bhi	.L36
 274:Generated_Source\PSoC5/CyDmac.c ****     {
 275:Generated_Source\PSoC5/CyDmac.c ****         if (0u != preserveTds)
 297              		.loc 1 275 0
 298 0004 31B1     		cbz	r1, .L34
 276:Generated_Source\PSoC5/CyDmac.c ****         {
 277:Generated_Source\PSoC5/CyDmac.c ****             /* Store intermediate TD states separately in CHn_SEP_TD0/1 to
 278:Generated_Source\PSoC5/CyDmac.c ****             *  preserve original TD chain
 279:Generated_Source\PSoC5/CyDmac.c ****             */
 280:Generated_Source\PSoC5/CyDmac.c ****             CY_DMA_CH_STRUCT_PTR[chHandle].basic_cfg[0u] |= CY_DMA_CH_BASIC_CFG_WORK_SEP;
 299              		.loc 1 280 0
 300 0006 0301     		lsls	r3, r0, #4
 301 0008 0A49     		ldr	r1, .L37
 302              	.LVL25:
 303 000a 5A5C     		ldrb	r2, [r3, r1]	@ zero_extendqisi2
 304 000c 42F02002 		orr	r2, r2, #32
 305 0010 5A54     		strb	r2, [r3, r1]
 306 0012 05E0     		b	.L35
 307              	.LVL26:
 308              	.L34:
 281:Generated_Source\PSoC5/CyDmac.c ****         }
 282:Generated_Source\PSoC5/CyDmac.c ****         else
 283:Generated_Source\PSoC5/CyDmac.c ****         {
 284:Generated_Source\PSoC5/CyDmac.c ****             /* Store intermediate and final TD states on top of original TD chain */
 285:Generated_Source\PSoC5/CyDmac.c ****             CY_DMA_CH_STRUCT_PTR[chHandle].basic_cfg[0u] &= (uint8)(~CY_DMA_CH_BASIC_CFG_WORK_SEP);
 309              		.loc 1 285 0
 310 0014 0301     		lsls	r3, r0, #4
 311 0016 0749     		ldr	r1, .L37
 312              	.LVL27:
 313 0018 5A5C     		ldrb	r2, [r3, r1]	@ zero_extendqisi2
 314 001a 02F0DF02 		and	r2, r2, #223
 315 001e 5A54     		strb	r2, [r3, r1]
 316              	.L35:
 286:Generated_Source\PSoC5/CyDmac.c ****         }
 287:Generated_Source\PSoC5/CyDmac.c **** 
 288:Generated_Source\PSoC5/CyDmac.c ****         /* Enable channel */
 289:Generated_Source\PSoC5/CyDmac.c ****         CY_DMA_CH_STRUCT_PTR[chHandle].basic_cfg[0u] |= CY_DMA_CH_BASIC_CFG_EN;
 317              		.loc 1 289 0
 318 0020 0001     		lsls	r0, r0, #4
 319              	.LVL28:
 320 0022 044A     		ldr	r2, .L37
 321 0024 835C     		ldrb	r3, [r0, r2]	@ zero_extendqisi2
 322 0026 43F00103 		orr	r3, r3, #1
 323 002a 8354     		strb	r3, [r0, r2]
 324              	.LVL29:
 290:Generated_Source\PSoC5/CyDmac.c **** 
 291:Generated_Source\PSoC5/CyDmac.c ****         status = CYRET_SUCCESS;
 325              		.loc 1 291 0
 326 002c 0020     		movs	r0, #0
 327 002e 7047     		bx	lr
 328              	.LVL30:
 329              	.L36:
 271:Generated_Source\PSoC5/CyDmac.c **** 
ARM GAS  C:\Users\natha\AppData\Local\Temp\ccvBOJ1K.s 			page 12


 330              		.loc 1 271 0
 331 0030 0120     		movs	r0, #1
 332              	.LVL31:
 292:Generated_Source\PSoC5/CyDmac.c ****     }
 293:Generated_Source\PSoC5/CyDmac.c **** 
 294:Generated_Source\PSoC5/CyDmac.c ****     return(status);
 295:Generated_Source\PSoC5/CyDmac.c **** }
 333              		.loc 1 295 0
 334 0032 7047     		bx	lr
 335              	.L38:
 336              		.align	2
 337              	.L37:
 338 0034 10700040 		.word	1073770512
 339              		.cfi_endproc
 340              	.LFE6:
 341              		.size	CyDmaChEnable, .-CyDmaChEnable
 342              		.section	.text.CyDmaChDisable,"ax",%progbits
 343              		.align	2
 344              		.global	CyDmaChDisable
 345              		.thumb
 346              		.thumb_func
 347              		.type	CyDmaChDisable, %function
 348              	CyDmaChDisable:
 349              	.LFB7:
 296:Generated_Source\PSoC5/CyDmac.c **** 
 297:Generated_Source\PSoC5/CyDmac.c **** 
 298:Generated_Source\PSoC5/CyDmac.c **** /*******************************************************************************
 299:Generated_Source\PSoC5/CyDmac.c **** * Function Name: CyDmaChDisable
 300:Generated_Source\PSoC5/CyDmac.c **** ****************************************************************************//**
 301:Generated_Source\PSoC5/CyDmac.c **** *
 302:Generated_Source\PSoC5/CyDmac.c **** * Disables the DMA channel. Once this function is called, CyDmaChStatus() may
 303:Generated_Source\PSoC5/CyDmac.c **** * be called to determine when the channel is disabled and which TDs were being
 304:Generated_Source\PSoC5/CyDmac.c **** * executed.
 305:Generated_Source\PSoC5/CyDmac.c **** *
 306:Generated_Source\PSoC5/CyDmac.c **** * If it is currently executing it will allow the current burst to finish
 307:Generated_Source\PSoC5/CyDmac.c **** * naturally.
 308:Generated_Source\PSoC5/CyDmac.c **** *
 309:Generated_Source\PSoC5/CyDmac.c **** * \param chHandle A handle previously returned by \ref CyDmaChAlloc() or \ref
 310:Generated_Source\PSoC5/CyDmac.c **** * DMA_DmaInitalize().
 311:Generated_Source\PSoC5/CyDmac.c **** *
 312:Generated_Source\PSoC5/CyDmac.c **** * \return CYRET_SUCCESS if successful.
 313:Generated_Source\PSoC5/CyDmac.c **** * \return CYRET_BAD_PARAM if chHandle is invalid.
 314:Generated_Source\PSoC5/CyDmac.c **** *
 315:Generated_Source\PSoC5/CyDmac.c **** *******************************************************************************/
 316:Generated_Source\PSoC5/CyDmac.c **** cystatus CyDmaChDisable(uint8 chHandle) 
 317:Generated_Source\PSoC5/CyDmac.c **** {
 350              		.loc 1 317 0
 351              		.cfi_startproc
 352              		@ args = 0, pretend = 0, frame = 0
 353              		@ frame_needed = 0, uses_anonymous_args = 0
 354              		@ link register save eliminated.
 355              	.LVL32:
 318:Generated_Source\PSoC5/CyDmac.c ****     cystatus status = CYRET_BAD_PARAM;
 319:Generated_Source\PSoC5/CyDmac.c **** 
 320:Generated_Source\PSoC5/CyDmac.c ****     if(chHandle < CY_DMA_NUMBEROF_CHANNELS)
 356              		.loc 1 320 0
 357 0000 1728     		cmp	r0, #23
ARM GAS  C:\Users\natha\AppData\Local\Temp\ccvBOJ1K.s 			page 13


 358 0002 0BD8     		bhi	.L41
 321:Generated_Source\PSoC5/CyDmac.c ****     {
 322:Generated_Source\PSoC5/CyDmac.c ****         /***********************************************************************
 323:Generated_Source\PSoC5/CyDmac.c ****         * Should not change configuration information of a DMA channel when it
 324:Generated_Source\PSoC5/CyDmac.c ****         * is active (or vulnerable to becoming active).
 325:Generated_Source\PSoC5/CyDmac.c ****         ***********************************************************************/
 326:Generated_Source\PSoC5/CyDmac.c **** 
 327:Generated_Source\PSoC5/CyDmac.c ****         /* Disable channel */
 328:Generated_Source\PSoC5/CyDmac.c ****         CY_DMA_CH_STRUCT_PTR[chHandle].basic_cfg[0] &= ((uint8) (~CY_DMA_CH_BASIC_CFG_EN));
 359              		.loc 1 328 0
 360 0004 0001     		lsls	r0, r0, #4
 361              	.LVL33:
 362 0006 064B     		ldr	r3, .L42
 363 0008 C25C     		ldrb	r2, [r0, r3]	@ zero_extendqisi2
 364 000a 02F0FE02 		and	r2, r2, #254
 365 000e C254     		strb	r2, [r0, r3]
 329:Generated_Source\PSoC5/CyDmac.c **** 
 330:Generated_Source\PSoC5/CyDmac.c ****         /* Store intermediate and final TD states on top of original TD chain */
 331:Generated_Source\PSoC5/CyDmac.c ****         CY_DMA_CH_STRUCT_PTR[chHandle].basic_cfg[0] &= ((uint8) (~CY_DMA_CH_BASIC_CFG_WORK_SEP));
 366              		.loc 1 331 0
 367 0010 C25C     		ldrb	r2, [r0, r3]	@ zero_extendqisi2
 368 0012 02F0DF02 		and	r2, r2, #223
 369 0016 C254     		strb	r2, [r0, r3]
 370              	.LVL34:
 332:Generated_Source\PSoC5/CyDmac.c ****         status = CYRET_SUCCESS;
 371              		.loc 1 332 0
 372 0018 0020     		movs	r0, #0
 373 001a 7047     		bx	lr
 374              	.LVL35:
 375              	.L41:
 318:Generated_Source\PSoC5/CyDmac.c **** 
 376              		.loc 1 318 0
 377 001c 0120     		movs	r0, #1
 378              	.LVL36:
 333:Generated_Source\PSoC5/CyDmac.c ****     }
 334:Generated_Source\PSoC5/CyDmac.c **** 
 335:Generated_Source\PSoC5/CyDmac.c ****     return(status);
 336:Generated_Source\PSoC5/CyDmac.c **** }
 379              		.loc 1 336 0
 380 001e 7047     		bx	lr
 381              	.L43:
 382              		.align	2
 383              	.L42:
 384 0020 10700040 		.word	1073770512
 385              		.cfi_endproc
 386              	.LFE7:
 387              		.size	CyDmaChDisable, .-CyDmaChDisable
 388              		.section	.text.CyDmaClearPendingDrq,"ax",%progbits
 389              		.align	2
 390              		.global	CyDmaClearPendingDrq
 391              		.thumb
 392              		.thumb_func
 393              		.type	CyDmaClearPendingDrq, %function
 394              	CyDmaClearPendingDrq:
 395              	.LFB8:
 337:Generated_Source\PSoC5/CyDmac.c **** 
 338:Generated_Source\PSoC5/CyDmac.c **** 
ARM GAS  C:\Users\natha\AppData\Local\Temp\ccvBOJ1K.s 			page 14


 339:Generated_Source\PSoC5/CyDmac.c **** /*******************************************************************************
 340:Generated_Source\PSoC5/CyDmac.c **** * Function Name: CyDmaClearPendingDrq
 341:Generated_Source\PSoC5/CyDmac.c **** ****************************************************************************//**
 342:Generated_Source\PSoC5/CyDmac.c **** *
 343:Generated_Source\PSoC5/CyDmac.c **** * Clears pending the DMA data request.
 344:Generated_Source\PSoC5/CyDmac.c **** *
 345:Generated_Source\PSoC5/CyDmac.c **** * \param chHandle Handle to the dma channel.
 346:Generated_Source\PSoC5/CyDmac.c **** *
 347:Generated_Source\PSoC5/CyDmac.c **** * \return CYRET_SUCCESS if successful.
 348:Generated_Source\PSoC5/CyDmac.c **** * \return CYRET_BAD_PARAM if chHandle is invalid.
 349:Generated_Source\PSoC5/CyDmac.c **** *
 350:Generated_Source\PSoC5/CyDmac.c **** *******************************************************************************/
 351:Generated_Source\PSoC5/CyDmac.c **** cystatus CyDmaClearPendingDrq(uint8 chHandle) 
 352:Generated_Source\PSoC5/CyDmac.c **** {
 396              		.loc 1 352 0
 397              		.cfi_startproc
 398              		@ args = 0, pretend = 0, frame = 0
 399              		@ frame_needed = 0, uses_anonymous_args = 0
 400              		@ link register save eliminated.
 401              	.LVL37:
 353:Generated_Source\PSoC5/CyDmac.c ****     cystatus status = CYRET_BAD_PARAM;
 354:Generated_Source\PSoC5/CyDmac.c **** 
 355:Generated_Source\PSoC5/CyDmac.c ****     if(chHandle < CY_DMA_NUMBEROF_CHANNELS)
 402              		.loc 1 355 0
 403 0000 1728     		cmp	r0, #23
 404 0002 0CD8     		bhi	.L46
 356:Generated_Source\PSoC5/CyDmac.c ****     {
 357:Generated_Source\PSoC5/CyDmac.c ****         CY_DMA_CH_STRUCT_PTR[chHandle].action[0] |= CY_DMA_CPU_TERM_CHAIN;
 405              		.loc 1 357 0
 406 0004 0001     		lsls	r0, r0, #4
 407              	.LVL38:
 408 0006 074B     		ldr	r3, .L47
 409 0008 C118     		adds	r1, r0, r3
 410 000a 0A79     		ldrb	r2, [r1, #4]	@ zero_extendqisi2
 411 000c 42F00402 		orr	r2, r2, #4
 412 0010 0A71     		strb	r2, [r1, #4]
 358:Generated_Source\PSoC5/CyDmac.c ****         CY_DMA_CH_STRUCT_PTR[chHandle].basic_cfg[0] |= 0x01u;
 413              		.loc 1 358 0
 414 0012 C25C     		ldrb	r2, [r0, r3]	@ zero_extendqisi2
 415 0014 42F00102 		orr	r2, r2, #1
 416 0018 C254     		strb	r2, [r0, r3]
 417              	.LVL39:
 359:Generated_Source\PSoC5/CyDmac.c ****         status = CYRET_SUCCESS;
 418              		.loc 1 359 0
 419 001a 0020     		movs	r0, #0
 420 001c 7047     		bx	lr
 421              	.LVL40:
 422              	.L46:
 353:Generated_Source\PSoC5/CyDmac.c **** 
 423              		.loc 1 353 0
 424 001e 0120     		movs	r0, #1
 425              	.LVL41:
 360:Generated_Source\PSoC5/CyDmac.c ****     }
 361:Generated_Source\PSoC5/CyDmac.c **** 
 362:Generated_Source\PSoC5/CyDmac.c ****     return(status);
 363:Generated_Source\PSoC5/CyDmac.c **** }
 426              		.loc 1 363 0
ARM GAS  C:\Users\natha\AppData\Local\Temp\ccvBOJ1K.s 			page 15


 427 0020 7047     		bx	lr
 428              	.L48:
 429 0022 00BF     		.align	2
 430              	.L47:
 431 0024 10700040 		.word	1073770512
 432              		.cfi_endproc
 433              	.LFE8:
 434              		.size	CyDmaClearPendingDrq, .-CyDmaClearPendingDrq
 435              		.section	.text.CyDmaChPriority,"ax",%progbits
 436              		.align	2
 437              		.global	CyDmaChPriority
 438              		.thumb
 439              		.thumb_func
 440              		.type	CyDmaChPriority, %function
 441              	CyDmaChPriority:
 442              	.LFB9:
 364:Generated_Source\PSoC5/CyDmac.c **** 
 365:Generated_Source\PSoC5/CyDmac.c **** 
 366:Generated_Source\PSoC5/CyDmac.c **** /*******************************************************************************
 367:Generated_Source\PSoC5/CyDmac.c **** * Function Name: CyDmaChPriority
 368:Generated_Source\PSoC5/CyDmac.c **** ****************************************************************************//**
 369:Generated_Source\PSoC5/CyDmac.c **** *
 370:Generated_Source\PSoC5/CyDmac.c **** *  Sets the priority of a DMA channel. You can use this function when you want
 371:Generated_Source\PSoC5/CyDmac.c **** *  to change the priority at run time. If the priority remains the same for a
 372:Generated_Source\PSoC5/CyDmac.c **** *  DMA channel, then you can configure the priority in the .cydwr file.
 373:Generated_Source\PSoC5/CyDmac.c **** *
 374:Generated_Source\PSoC5/CyDmac.c **** *  \param chHandle A handle previously returned by \ref CyDmaChAlloc() or \ref
 375:Generated_Source\PSoC5/CyDmac.c **** *  DMA_DmaInitalize().
 376:Generated_Source\PSoC5/CyDmac.c **** *
 377:Generated_Source\PSoC5/CyDmac.c **** *  \param priority Priority to set the channel to, 0 - 7.
 378:Generated_Source\PSoC5/CyDmac.c **** *
 379:Generated_Source\PSoC5/CyDmac.c **** * \return CYRET_SUCCESS if successful.
 380:Generated_Source\PSoC5/CyDmac.c **** *  \return CYRET_BAD_PARAM if chHandle is invalid.
 381:Generated_Source\PSoC5/CyDmac.c **** *
 382:Generated_Source\PSoC5/CyDmac.c **** *******************************************************************************/
 383:Generated_Source\PSoC5/CyDmac.c **** cystatus CyDmaChPriority(uint8 chHandle, uint8 priority) 
 384:Generated_Source\PSoC5/CyDmac.c **** {
 443              		.loc 1 384 0
 444              		.cfi_startproc
 445              		@ args = 0, pretend = 0, frame = 0
 446              		@ frame_needed = 0, uses_anonymous_args = 0
 447              		@ link register save eliminated.
 448              	.LVL42:
 385:Generated_Source\PSoC5/CyDmac.c ****     uint8 value;
 386:Generated_Source\PSoC5/CyDmac.c ****     cystatus status = CYRET_BAD_PARAM;
 387:Generated_Source\PSoC5/CyDmac.c **** 
 388:Generated_Source\PSoC5/CyDmac.c ****     if(chHandle < CY_DMA_NUMBEROF_CHANNELS)
 449              		.loc 1 388 0
 450 0000 1728     		cmp	r0, #23
 451 0002 0BD8     		bhi	.L51
 389:Generated_Source\PSoC5/CyDmac.c ****     {
 390:Generated_Source\PSoC5/CyDmac.c ****         value = CY_DMA_CH_STRUCT_PTR[chHandle].basic_cfg[0u] & ((uint8)(~(0x0Eu)));
 452              		.loc 1 390 0
 453 0004 0001     		lsls	r0, r0, #4
 454              	.LVL43:
 455 0006 064A     		ldr	r2, .L52
 456 0008 835C     		ldrb	r3, [r0, r2]	@ zero_extendqisi2
ARM GAS  C:\Users\natha\AppData\Local\Temp\ccvBOJ1K.s 			page 16


 457 000a 03F0F103 		and	r3, r3, #241
 458              	.LVL44:
 391:Generated_Source\PSoC5/CyDmac.c **** 
 392:Generated_Source\PSoC5/CyDmac.c ****         CY_DMA_CH_STRUCT_PTR[chHandle].basic_cfg[0u] = value | ((uint8) ((priority & 0x7u) << 0x01u
 459              		.loc 1 392 0
 460 000e 01F00701 		and	r1, r1, #7
 461              	.LVL45:
 462 0012 43EA4101 		orr	r1, r3, r1, lsl #1
 463 0016 8154     		strb	r1, [r0, r2]
 464              	.LVL46:
 393:Generated_Source\PSoC5/CyDmac.c **** 
 394:Generated_Source\PSoC5/CyDmac.c ****         status = CYRET_SUCCESS;
 465              		.loc 1 394 0
 466 0018 0020     		movs	r0, #0
 467 001a 7047     		bx	lr
 468              	.LVL47:
 469              	.L51:
 386:Generated_Source\PSoC5/CyDmac.c **** 
 470              		.loc 1 386 0
 471 001c 0120     		movs	r0, #1
 472              	.LVL48:
 395:Generated_Source\PSoC5/CyDmac.c ****     }
 396:Generated_Source\PSoC5/CyDmac.c **** 
 397:Generated_Source\PSoC5/CyDmac.c ****     return(status);
 398:Generated_Source\PSoC5/CyDmac.c **** }
 473              		.loc 1 398 0
 474 001e 7047     		bx	lr
 475              	.L53:
 476              		.align	2
 477              	.L52:
 478 0020 10700040 		.word	1073770512
 479              		.cfi_endproc
 480              	.LFE9:
 481              		.size	CyDmaChPriority, .-CyDmaChPriority
 482              		.section	.text.CyDmaChSetExtendedAddress,"ax",%progbits
 483              		.align	2
 484              		.global	CyDmaChSetExtendedAddress
 485              		.thumb
 486              		.thumb_func
 487              		.type	CyDmaChSetExtendedAddress, %function
 488              	CyDmaChSetExtendedAddress:
 489              	.LFB10:
 399:Generated_Source\PSoC5/CyDmac.c **** 
 400:Generated_Source\PSoC5/CyDmac.c **** 
 401:Generated_Source\PSoC5/CyDmac.c **** /*******************************************************************************
 402:Generated_Source\PSoC5/CyDmac.c **** * Function Name: CyDmaChSetExtendedAddress
 403:Generated_Source\PSoC5/CyDmac.c **** ****************************************************************************//**
 404:Generated_Source\PSoC5/CyDmac.c **** *
 405:Generated_Source\PSoC5/CyDmac.c **** *  Sets the high 16 bits of the source and destination addresses for the DMA
 406:Generated_Source\PSoC5/CyDmac.c **** *  channel (valid for all TDs in the chain).
 407:Generated_Source\PSoC5/CyDmac.c **** *
 408:Generated_Source\PSoC5/CyDmac.c **** *  \param chHandle A handle previously returned by \ref CyDmaChAlloc() or \ref
 409:Generated_Source\PSoC5/CyDmac.c **** *  DMA_DmaInitalize().
 410:Generated_Source\PSoC5/CyDmac.c **** *
 411:Generated_Source\PSoC5/CyDmac.c **** *  \param source Upper 16 bit address of the DMA transfer source.
 412:Generated_Source\PSoC5/CyDmac.c **** *
 413:Generated_Source\PSoC5/CyDmac.c **** *  \param destination Upper 16 bit address of the DMA transfer destination.
ARM GAS  C:\Users\natha\AppData\Local\Temp\ccvBOJ1K.s 			page 17


 414:Generated_Source\PSoC5/CyDmac.c **** *
 415:Generated_Source\PSoC5/CyDmac.c **** * \return CYRET_SUCCESS if successful.
 416:Generated_Source\PSoC5/CyDmac.c **** * \return CYRET_BAD_PARAM if chHandle is invalid.
 417:Generated_Source\PSoC5/CyDmac.c **** *
 418:Generated_Source\PSoC5/CyDmac.c **** *******************************************************************************/
 419:Generated_Source\PSoC5/CyDmac.c **** cystatus CyDmaChSetExtendedAddress(uint8 chHandle, uint16 source, uint16 destination) \
 420:Generated_Source\PSoC5/CyDmac.c ****     
 421:Generated_Source\PSoC5/CyDmac.c **** {
 490              		.loc 1 421 0
 491              		.cfi_startproc
 492              		@ args = 0, pretend = 0, frame = 0
 493              		@ frame_needed = 0, uses_anonymous_args = 0
 494              		@ link register save eliminated.
 495              	.LVL49:
 422:Generated_Source\PSoC5/CyDmac.c ****     cystatus status = CYRET_BAD_PARAM;
 423:Generated_Source\PSoC5/CyDmac.c ****     reg16 *convert;
 424:Generated_Source\PSoC5/CyDmac.c **** 
 425:Generated_Source\PSoC5/CyDmac.c ****     #if(CY_PSOC5)
 426:Generated_Source\PSoC5/CyDmac.c **** 
 427:Generated_Source\PSoC5/CyDmac.c ****         /* 0x1FFF8000-0x1FFFFFFF needs to use alias at 0x20008000-0x2000FFFF */
 428:Generated_Source\PSoC5/CyDmac.c ****         if(source == 0x1FFFu)
 496              		.loc 1 428 0
 497 0000 41F6FF73 		movw	r3, #8191
 498 0004 9942     		cmp	r1, r3
 499 0006 01D1     		bne	.L55
 429:Generated_Source\PSoC5/CyDmac.c ****         {
 430:Generated_Source\PSoC5/CyDmac.c ****             source = 0x2000u;
 500              		.loc 1 430 0
 501 0008 4FF40051 		mov	r1, #8192
 502              	.LVL50:
 503              	.L55:
 431:Generated_Source\PSoC5/CyDmac.c ****         }
 432:Generated_Source\PSoC5/CyDmac.c **** 
 433:Generated_Source\PSoC5/CyDmac.c ****         if(destination == 0x1FFFu)
 504              		.loc 1 433 0
 505 000c 41F6FF73 		movw	r3, #8191
 506 0010 9A42     		cmp	r2, r3
 507 0012 01D1     		bne	.L56
 434:Generated_Source\PSoC5/CyDmac.c ****         {
 435:Generated_Source\PSoC5/CyDmac.c ****             destination = 0x2000u;
 508              		.loc 1 435 0
 509 0014 4FF40052 		mov	r2, #8192
 510              	.LVL51:
 511              	.L56:
 436:Generated_Source\PSoC5/CyDmac.c ****         }
 437:Generated_Source\PSoC5/CyDmac.c **** 
 438:Generated_Source\PSoC5/CyDmac.c ****     #endif  /* (CY_PSOC5) */
 439:Generated_Source\PSoC5/CyDmac.c **** 
 440:Generated_Source\PSoC5/CyDmac.c **** 
 441:Generated_Source\PSoC5/CyDmac.c ****     if(chHandle < CY_DMA_NUMBEROF_CHANNELS)
 512              		.loc 1 441 0
 513 0018 1728     		cmp	r0, #23
 514 001a 08D8     		bhi	.L60
 442:Generated_Source\PSoC5/CyDmac.c ****     {
 443:Generated_Source\PSoC5/CyDmac.c ****         /* Set source address */
 444:Generated_Source\PSoC5/CyDmac.c ****         convert = (reg16 *) &CY_DMA_CFGMEM_STRUCT_PTR[chHandle].CFG1[0];
 515              		.loc 1 444 0
ARM GAS  C:\Users\natha\AppData\Local\Temp\ccvBOJ1K.s 			page 18


 516 001c C000     		lsls	r0, r0, #3
 517              	.LVL52:
 518 001e 00F18040 		add	r0, r0, #1073741824
 519 0022 00F5EC40 		add	r0, r0, #30208
 520              	.LVL53:
 445:Generated_Source\PSoC5/CyDmac.c ****         CY_SET_REG16(convert, source);
 521              		.loc 1 445 0
 522 0026 8180     		strh	r1, [r0, #4]	@ movhi
 523              	.LVL54:
 446:Generated_Source\PSoC5/CyDmac.c **** 
 447:Generated_Source\PSoC5/CyDmac.c ****         /* Set destination address */
 448:Generated_Source\PSoC5/CyDmac.c ****         convert = (reg16 *) &CY_DMA_CFGMEM_STRUCT_PTR[chHandle].CFG1[2u];
 449:Generated_Source\PSoC5/CyDmac.c ****         CY_SET_REG16(convert, destination);
 524              		.loc 1 449 0
 525 0028 C280     		strh	r2, [r0, #6]	@ movhi
 526              	.LVL55:
 450:Generated_Source\PSoC5/CyDmac.c ****         status = CYRET_SUCCESS;
 527              		.loc 1 450 0
 528 002a 0020     		movs	r0, #0
 529              	.LVL56:
 530 002c 7047     		bx	lr
 531              	.LVL57:
 532              	.L60:
 422:Generated_Source\PSoC5/CyDmac.c ****     reg16 *convert;
 533              		.loc 1 422 0
 534 002e 0120     		movs	r0, #1
 535              	.LVL58:
 451:Generated_Source\PSoC5/CyDmac.c ****     }
 452:Generated_Source\PSoC5/CyDmac.c **** 
 453:Generated_Source\PSoC5/CyDmac.c ****     return(status);
 454:Generated_Source\PSoC5/CyDmac.c **** }
 536              		.loc 1 454 0
 537 0030 7047     		bx	lr
 538              		.cfi_endproc
 539              	.LFE10:
 540              		.size	CyDmaChSetExtendedAddress, .-CyDmaChSetExtendedAddress
 541 0032 00BF     		.section	.text.CyDmaChSetInitialTd,"ax",%progbits
 542              		.align	2
 543              		.global	CyDmaChSetInitialTd
 544              		.thumb
 545              		.thumb_func
 546              		.type	CyDmaChSetInitialTd, %function
 547              	CyDmaChSetInitialTd:
 548              	.LFB11:
 455:Generated_Source\PSoC5/CyDmac.c **** 
 456:Generated_Source\PSoC5/CyDmac.c **** 
 457:Generated_Source\PSoC5/CyDmac.c **** /*******************************************************************************
 458:Generated_Source\PSoC5/CyDmac.c **** * Function Name: CyDmaChSetInitialTd
 459:Generated_Source\PSoC5/CyDmac.c **** ****************************************************************************//**
 460:Generated_Source\PSoC5/CyDmac.c **** *
 461:Generated_Source\PSoC5/CyDmac.c **** * Sets the initial TD to be executed for the channel when the \ref CyDmaChEnable()
 462:Generated_Source\PSoC5/CyDmac.c **** * function is called.
 463:Generated_Source\PSoC5/CyDmac.c **** *
 464:Generated_Source\PSoC5/CyDmac.c **** * \param chHandle A handle previously returned by \ref CyDmaChAlloc() or
 465:Generated_Source\PSoC5/CyDmac.c **** * \ref DMA_DmaInitialize().
 466:Generated_Source\PSoC5/CyDmac.c **** *
 467:Generated_Source\PSoC5/CyDmac.c **** * \param startTd Set the TD index as the first TD associated with the
ARM GAS  C:\Users\natha\AppData\Local\Temp\ccvBOJ1K.s 			page 19


 468:Generated_Source\PSoC5/CyDmac.c **** * channel. Zero is a valid TD index.
 469:Generated_Source\PSoC5/CyDmac.c **** *
 470:Generated_Source\PSoC5/CyDmac.c **** * \return CYRET_SUCCESS if successful.
 471:Generated_Source\PSoC5/CyDmac.c **** * \return CYRET_BAD_PARAM if chHandle is invalid.
 472:Generated_Source\PSoC5/CyDmac.c **** *
 473:Generated_Source\PSoC5/CyDmac.c **** *******************************************************************************/
 474:Generated_Source\PSoC5/CyDmac.c **** cystatus CyDmaChSetInitialTd(uint8 chHandle, uint8 startTd) 
 475:Generated_Source\PSoC5/CyDmac.c **** {
 549              		.loc 1 475 0
 550              		.cfi_startproc
 551              		@ args = 0, pretend = 0, frame = 0
 552              		@ frame_needed = 0, uses_anonymous_args = 0
 553              		@ link register save eliminated.
 554              	.LVL59:
 476:Generated_Source\PSoC5/CyDmac.c ****     cystatus status = CYRET_BAD_PARAM;
 477:Generated_Source\PSoC5/CyDmac.c **** 
 478:Generated_Source\PSoC5/CyDmac.c ****     if(chHandle < CY_DMA_NUMBEROF_CHANNELS)
 555              		.loc 1 478 0
 556 0000 1728     		cmp	r0, #23
 557 0002 05D8     		bhi	.L63
 479:Generated_Source\PSoC5/CyDmac.c ****     {
 480:Generated_Source\PSoC5/CyDmac.c ****         CY_DMA_CH_STRUCT_PTR[chHandle].basic_status[1u] = startTd;
 558              		.loc 1 480 0
 559 0004 034B     		ldr	r3, .L64
 560 0006 03EB0010 		add	r0, r3, r0, lsl #4
 561              	.LVL60:
 562 000a 4172     		strb	r1, [r0, #9]
 563              	.LVL61:
 481:Generated_Source\PSoC5/CyDmac.c ****         status = CYRET_SUCCESS;
 564              		.loc 1 481 0
 565 000c 0020     		movs	r0, #0
 566 000e 7047     		bx	lr
 567              	.LVL62:
 568              	.L63:
 476:Generated_Source\PSoC5/CyDmac.c ****     cystatus status = CYRET_BAD_PARAM;
 569              		.loc 1 476 0
 570 0010 0120     		movs	r0, #1
 571              	.LVL63:
 482:Generated_Source\PSoC5/CyDmac.c ****     }
 483:Generated_Source\PSoC5/CyDmac.c **** 
 484:Generated_Source\PSoC5/CyDmac.c ****     return(status);
 485:Generated_Source\PSoC5/CyDmac.c **** }
 572              		.loc 1 485 0
 573 0012 7047     		bx	lr
 574              	.L65:
 575              		.align	2
 576              	.L64:
 577 0014 10700040 		.word	1073770512
 578              		.cfi_endproc
 579              	.LFE11:
 580              		.size	CyDmaChSetInitialTd, .-CyDmaChSetInitialTd
 581              		.section	.text.CyDmaChSetRequest,"ax",%progbits
 582              		.align	2
 583              		.global	CyDmaChSetRequest
 584              		.thumb
 585              		.thumb_func
 586              		.type	CyDmaChSetRequest, %function
ARM GAS  C:\Users\natha\AppData\Local\Temp\ccvBOJ1K.s 			page 20


 587              	CyDmaChSetRequest:
 588              	.LFB12:
 486:Generated_Source\PSoC5/CyDmac.c **** 
 487:Generated_Source\PSoC5/CyDmac.c **** 
 488:Generated_Source\PSoC5/CyDmac.c **** /*******************************************************************************
 489:Generated_Source\PSoC5/CyDmac.c **** * Function Name: CyDmaChSetRequest
 490:Generated_Source\PSoC5/CyDmac.c **** ****************************************************************************//**
 491:Generated_Source\PSoC5/CyDmac.c **** *
 492:Generated_Source\PSoC5/CyDmac.c **** *  Allows the caller to terminate a chain of TDs, terminate one TD, or create a
 493:Generated_Source\PSoC5/CyDmac.c **** *  direct request to start the DMA channel.
 494:Generated_Source\PSoC5/CyDmac.c **** *
 495:Generated_Source\PSoC5/CyDmac.c **** *  \param chHandle A handle previously returned by \ref CyDmaChAlloc() or \ref
 496:Generated_Source\PSoC5/CyDmac.c **** *  DMA_DmaInitalize().
 497:Generated_Source\PSoC5/CyDmac.c **** *
 498:Generated_Source\PSoC5/CyDmac.c **** *  \param request One of the following constants. Each of the constants is a
 499:Generated_Source\PSoC5/CyDmac.c **** *  three-bit value.
 500:Generated_Source\PSoC5/CyDmac.c **** *   CPU_REQ         - Create a direct request to start the DMA channel
 501:Generated_Source\PSoC5/CyDmac.c **** *   CPU_TERM_TD     - Terminate one TD
 502:Generated_Source\PSoC5/CyDmac.c **** *   CPU_TERM_CHAIN  - Terminate a chain of TDs
 503:Generated_Source\PSoC5/CyDmac.c **** *
 504:Generated_Source\PSoC5/CyDmac.c **** * \return CYRET_SUCCESS if successful.
 505:Generated_Source\PSoC5/CyDmac.c **** * \return CYRET_BAD_PARAM if chHandle is invalid.
 506:Generated_Source\PSoC5/CyDmac.c **** *
 507:Generated_Source\PSoC5/CyDmac.c **** *******************************************************************************/
 508:Generated_Source\PSoC5/CyDmac.c **** cystatus CyDmaChSetRequest(uint8 chHandle, uint8 request) 
 509:Generated_Source\PSoC5/CyDmac.c **** {
 589              		.loc 1 509 0
 590              		.cfi_startproc
 591              		@ args = 0, pretend = 0, frame = 0
 592              		@ frame_needed = 0, uses_anonymous_args = 0
 593              		@ link register save eliminated.
 594              	.LVL64:
 510:Generated_Source\PSoC5/CyDmac.c ****     cystatus status = CYRET_BAD_PARAM;
 511:Generated_Source\PSoC5/CyDmac.c **** 
 512:Generated_Source\PSoC5/CyDmac.c ****     if(chHandle < CY_DMA_NUMBEROF_CHANNELS)
 595              		.loc 1 512 0
 596 0000 1728     		cmp	r0, #23
 597 0002 09D8     		bhi	.L68
 513:Generated_Source\PSoC5/CyDmac.c ****     {
 514:Generated_Source\PSoC5/CyDmac.c ****         CY_DMA_CH_STRUCT_PTR[chHandle].action[0u] |= (request & (CPU_REQ | CPU_TERM_TD | CPU_TERM_C
 598              		.loc 1 514 0
 599 0004 054B     		ldr	r3, .L69
 600 0006 03EB0010 		add	r0, r3, r0, lsl #4
 601              	.LVL65:
 602 000a 0379     		ldrb	r3, [r0, #4]	@ zero_extendqisi2
 603 000c 01F00701 		and	r1, r1, #7
 604              	.LVL66:
 605 0010 1943     		orrs	r1, r1, r3
 606 0012 0171     		strb	r1, [r0, #4]
 607              	.LVL67:
 515:Generated_Source\PSoC5/CyDmac.c ****         status = CYRET_SUCCESS;
 608              		.loc 1 515 0
 609 0014 0020     		movs	r0, #0
 610 0016 7047     		bx	lr
 611              	.LVL68:
 612              	.L68:
 510:Generated_Source\PSoC5/CyDmac.c ****     cystatus status = CYRET_BAD_PARAM;
ARM GAS  C:\Users\natha\AppData\Local\Temp\ccvBOJ1K.s 			page 21


 613              		.loc 1 510 0
 614 0018 0120     		movs	r0, #1
 615              	.LVL69:
 516:Generated_Source\PSoC5/CyDmac.c ****     }
 517:Generated_Source\PSoC5/CyDmac.c **** 
 518:Generated_Source\PSoC5/CyDmac.c ****     return(status);
 519:Generated_Source\PSoC5/CyDmac.c **** }
 616              		.loc 1 519 0
 617 001a 7047     		bx	lr
 618              	.L70:
 619              		.align	2
 620              	.L69:
 621 001c 10700040 		.word	1073770512
 622              		.cfi_endproc
 623              	.LFE12:
 624              		.size	CyDmaChSetRequest, .-CyDmaChSetRequest
 625              		.section	.text.CyDmaChGetRequest,"ax",%progbits
 626              		.align	2
 627              		.global	CyDmaChGetRequest
 628              		.thumb
 629              		.thumb_func
 630              		.type	CyDmaChGetRequest, %function
 631              	CyDmaChGetRequest:
 632              	.LFB13:
 520:Generated_Source\PSoC5/CyDmac.c **** 
 521:Generated_Source\PSoC5/CyDmac.c **** 
 522:Generated_Source\PSoC5/CyDmac.c **** /*******************************************************************************
 523:Generated_Source\PSoC5/CyDmac.c **** * Function Name: CyDmaChGetRequest
 524:Generated_Source\PSoC5/CyDmac.c **** ****************************************************************************//**
 525:Generated_Source\PSoC5/CyDmac.c **** *
 526:Generated_Source\PSoC5/CyDmac.c **** * This function allows the caller of \ref CyDmaChSetRequest() to determine if the
 527:Generated_Source\PSoC5/CyDmac.c **** * request was completed.
 528:Generated_Source\PSoC5/CyDmac.c **** *
 529:Generated_Source\PSoC5/CyDmac.c **** * \param chHandle A handle previously returned by \ref CyDmaChAlloc() or \ref
 530:Generated_Source\PSoC5/CyDmac.c **** * DMA_DmaInitalize().
 531:Generated_Source\PSoC5/CyDmac.c **** *
 532:Generated_Source\PSoC5/CyDmac.c **** * \return Returns a three-bit field, corresponding to the three bits of the
 533:Generated_Source\PSoC5/CyDmac.c **** * request, which describes the state of the previously posted request. If the
 534:Generated_Source\PSoC5/CyDmac.c **** * value is zero, the request was completed. CY_DMA_INVALID_CHANNEL if the handle
 535:Generated_Source\PSoC5/CyDmac.c **** * is invalid.
 536:Generated_Source\PSoC5/CyDmac.c **** *
 537:Generated_Source\PSoC5/CyDmac.c **** *******************************************************************************/
 538:Generated_Source\PSoC5/CyDmac.c **** cystatus CyDmaChGetRequest(uint8 chHandle) 
 539:Generated_Source\PSoC5/CyDmac.c **** {
 633              		.loc 1 539 0
 634              		.cfi_startproc
 635              		@ args = 0, pretend = 0, frame = 0
 636              		@ frame_needed = 0, uses_anonymous_args = 0
 637              		@ link register save eliminated.
 638              	.LVL70:
 540:Generated_Source\PSoC5/CyDmac.c ****     cystatus status = CY_DMA_INVALID_CHANNEL;
 541:Generated_Source\PSoC5/CyDmac.c **** 
 542:Generated_Source\PSoC5/CyDmac.c ****     if(chHandle < CY_DMA_NUMBEROF_CHANNELS)
 639              		.loc 1 542 0
 640 0000 1728     		cmp	r0, #23
 641 0002 06D8     		bhi	.L73
 543:Generated_Source\PSoC5/CyDmac.c ****     {
ARM GAS  C:\Users\natha\AppData\Local\Temp\ccvBOJ1K.s 			page 22


 544:Generated_Source\PSoC5/CyDmac.c ****         status = (cystatus) ((uint32)CY_DMA_CH_STRUCT_PTR[chHandle].action[0u] &
 642              		.loc 1 544 0
 643 0004 044B     		ldr	r3, .L74
 644 0006 03EB0010 		add	r0, r3, r0, lsl #4
 645              	.LVL71:
 646 000a 0079     		ldrb	r0, [r0, #4]	@ zero_extendqisi2
 647 000c 00F00700 		and	r0, r0, #7
 648              	.LVL72:
 649 0010 7047     		bx	lr
 650              	.LVL73:
 651              	.L73:
 540:Generated_Source\PSoC5/CyDmac.c ****     cystatus status = CY_DMA_INVALID_CHANNEL;
 652              		.loc 1 540 0
 653 0012 FF20     		movs	r0, #255
 654              	.LVL74:
 545:Generated_Source\PSoC5/CyDmac.c ****                             (uint32)(CY_DMA_CPU_REQ | CY_DMA_CPU_TERM_TD | CY_DMA_CPU_TERM_CHAIN));
 546:Generated_Source\PSoC5/CyDmac.c ****     }
 547:Generated_Source\PSoC5/CyDmac.c **** 
 548:Generated_Source\PSoC5/CyDmac.c ****     return(status);
 549:Generated_Source\PSoC5/CyDmac.c **** }
 655              		.loc 1 549 0
 656 0014 7047     		bx	lr
 657              	.L75:
 658 0016 00BF     		.align	2
 659              	.L74:
 660 0018 10700040 		.word	1073770512
 661              		.cfi_endproc
 662              	.LFE13:
 663              		.size	CyDmaChGetRequest, .-CyDmaChGetRequest
 664              		.section	.text.CyDmaChStatus,"ax",%progbits
 665              		.align	2
 666              		.global	CyDmaChStatus
 667              		.thumb
 668              		.thumb_func
 669              		.type	CyDmaChStatus, %function
 670              	CyDmaChStatus:
 671              	.LFB14:
 550:Generated_Source\PSoC5/CyDmac.c **** 
 551:Generated_Source\PSoC5/CyDmac.c **** 
 552:Generated_Source\PSoC5/CyDmac.c **** /*******************************************************************************
 553:Generated_Source\PSoC5/CyDmac.c **** * Function Name: CyDmaChStatus
 554:Generated_Source\PSoC5/CyDmac.c **** ****************************************************************************//**
 555:Generated_Source\PSoC5/CyDmac.c **** *
 556:Generated_Source\PSoC5/CyDmac.c **** *  Determines the status of the DMA channel.
 557:Generated_Source\PSoC5/CyDmac.c **** *
 558:Generated_Source\PSoC5/CyDmac.c **** *  \param chHandle A handle previously returned by \ref CyDmaChAlloc() or \ref
 559:Generated_Source\PSoC5/CyDmac.c **** *  DMA_DmaInitalize().
 560:Generated_Source\PSoC5/CyDmac.c **** *
 561:Generated_Source\PSoC5/CyDmac.c **** *  \param currentTd The address to store the index of the current TD. Can be NULL
 562:Generated_Source\PSoC5/CyDmac.c **** *  if the value is not needed.
 563:Generated_Source\PSoC5/CyDmac.c **** *
 564:Generated_Source\PSoC5/CyDmac.c **** *  \param state The address to store the state of the channel. Can be NULL if the
 565:Generated_Source\PSoC5/CyDmac.c **** *  value is not needed.
 566:Generated_Source\PSoC5/CyDmac.c **** *
 567:Generated_Source\PSoC5/CyDmac.c **** *   STATUS_TD_ACTIVE
 568:Generated_Source\PSoC5/CyDmac.c **** *    \param 0: Channel is not currently being serviced by DMAC
 569:Generated_Source\PSoC5/CyDmac.c **** *    \param 1: Channel is currently being serviced by DMAC
ARM GAS  C:\Users\natha\AppData\Local\Temp\ccvBOJ1K.s 			page 23


 570:Generated_Source\PSoC5/CyDmac.c **** *
 571:Generated_Source\PSoC5/CyDmac.c **** *   STATUS_CHAIN_ACTIVE
 572:Generated_Source\PSoC5/CyDmac.c **** *    \param 0: TD chain is inactive; either no DMA requests have triggered a new chain
 573:Generated_Source\PSoC5/CyDmac.c **** *       or the previous chain has completed.
 574:Generated_Source\PSoC5/CyDmac.c **** *    \param 1: TD chain has been triggered by a DMA request
 575:Generated_Source\PSoC5/CyDmac.c **** *
 576:Generated_Source\PSoC5/CyDmac.c **** * \return CYRET_SUCCESS if successful.
 577:Generated_Source\PSoC5/CyDmac.c **** * \return CYRET_BAD_PARAM if chHandle is invalid.
 578:Generated_Source\PSoC5/CyDmac.c **** *
 579:Generated_Source\PSoC5/CyDmac.c **** * Theory:
 580:Generated_Source\PSoC5/CyDmac.c **** *   The caller can check on the activity of the Current TD and the Chain.
 581:Generated_Source\PSoC5/CyDmac.c **** *
 582:Generated_Source\PSoC5/CyDmac.c **** *******************************************************************************/
 583:Generated_Source\PSoC5/CyDmac.c **** cystatus CyDmaChStatus(uint8 chHandle, uint8 * currentTd, uint8 * state) 
 584:Generated_Source\PSoC5/CyDmac.c **** {
 672              		.loc 1 584 0
 673              		.cfi_startproc
 674              		@ args = 0, pretend = 0, frame = 0
 675              		@ frame_needed = 0, uses_anonymous_args = 0
 676              		@ link register save eliminated.
 677              	.LVL75:
 585:Generated_Source\PSoC5/CyDmac.c ****     cystatus status = CYRET_BAD_PARAM;
 586:Generated_Source\PSoC5/CyDmac.c **** 
 587:Generated_Source\PSoC5/CyDmac.c ****     if(chHandle < CY_DMA_NUMBEROF_CHANNELS)
 678              		.loc 1 587 0
 679 0000 1728     		cmp	r0, #23
 680 0002 0FD8     		bhi	.L79
 588:Generated_Source\PSoC5/CyDmac.c ****     {
 589:Generated_Source\PSoC5/CyDmac.c ****         if(NULL != currentTd)
 681              		.loc 1 589 0
 682 0004 31B1     		cbz	r1, .L78
 590:Generated_Source\PSoC5/CyDmac.c ****         {
 591:Generated_Source\PSoC5/CyDmac.c ****             *currentTd = CY_DMA_CH_STRUCT_PTR[chHandle].basic_status[1] & 0x7Fu;
 683              		.loc 1 591 0
 684 0006 094B     		ldr	r3, .L81
 685 0008 03EB0013 		add	r3, r3, r0, lsl #4
 686 000c 5B7A     		ldrb	r3, [r3, #9]	@ zero_extendqisi2
 687 000e 03F07F03 		and	r3, r3, #127
 688 0012 0B70     		strb	r3, [r1]
 689              	.L78:
 592:Generated_Source\PSoC5/CyDmac.c ****         }
 593:Generated_Source\PSoC5/CyDmac.c **** 
 594:Generated_Source\PSoC5/CyDmac.c ****         if(NULL != state)
 690              		.loc 1 594 0
 691 0014 42B1     		cbz	r2, .L80
 595:Generated_Source\PSoC5/CyDmac.c ****         {
 596:Generated_Source\PSoC5/CyDmac.c ****             *state= CY_DMA_CH_STRUCT_PTR[chHandle].basic_status[0];
 692              		.loc 1 596 0
 693 0016 054B     		ldr	r3, .L81
 694 0018 03EB0010 		add	r0, r3, r0, lsl #4
 695              	.LVL76:
 696 001c 037A     		ldrb	r3, [r0, #8]	@ zero_extendqisi2
 697 001e 1370     		strb	r3, [r2]
 597:Generated_Source\PSoC5/CyDmac.c ****         }
 598:Generated_Source\PSoC5/CyDmac.c **** 
 599:Generated_Source\PSoC5/CyDmac.c ****         status = CYRET_SUCCESS;
 698              		.loc 1 599 0
ARM GAS  C:\Users\natha\AppData\Local\Temp\ccvBOJ1K.s 			page 24


 699 0020 0020     		movs	r0, #0
 700 0022 7047     		bx	lr
 701              	.LVL77:
 702              	.L79:
 585:Generated_Source\PSoC5/CyDmac.c **** 
 703              		.loc 1 585 0
 704 0024 0120     		movs	r0, #1
 705              	.LVL78:
 706 0026 7047     		bx	lr
 707              	.LVL79:
 708              	.L80:
 709              		.loc 1 599 0
 710 0028 0020     		movs	r0, #0
 711              	.LVL80:
 600:Generated_Source\PSoC5/CyDmac.c ****     }
 601:Generated_Source\PSoC5/CyDmac.c **** 
 602:Generated_Source\PSoC5/CyDmac.c ****     return (status);
 603:Generated_Source\PSoC5/CyDmac.c **** }
 712              		.loc 1 603 0
 713 002a 7047     		bx	lr
 714              	.L82:
 715              		.align	2
 716              	.L81:
 717 002c 10700040 		.word	1073770512
 718              		.cfi_endproc
 719              	.LFE14:
 720              		.size	CyDmaChStatus, .-CyDmaChStatus
 721              		.section	.text.CyDmaChSetConfiguration,"ax",%progbits
 722              		.align	2
 723              		.global	CyDmaChSetConfiguration
 724              		.thumb
 725              		.thumb_func
 726              		.type	CyDmaChSetConfiguration, %function
 727              	CyDmaChSetConfiguration:
 728              	.LFB15:
 604:Generated_Source\PSoC5/CyDmac.c **** 
 605:Generated_Source\PSoC5/CyDmac.c **** 
 606:Generated_Source\PSoC5/CyDmac.c **** /*******************************************************************************
 607:Generated_Source\PSoC5/CyDmac.c **** * Function Name: CyDmaChSetConfiguration
 608:Generated_Source\PSoC5/CyDmac.c **** ****************************************************************************//**
 609:Generated_Source\PSoC5/CyDmac.c **** *
 610:Generated_Source\PSoC5/CyDmac.c **** * Sets configuration information of the channel.
 611:Generated_Source\PSoC5/CyDmac.c **** *
 612:Generated_Source\PSoC5/CyDmac.c **** *  \param uint8 chHandle:
 613:Generated_Source\PSoC5/CyDmac.c **** *   A handle previously returned by CyDmaChAlloc() or DMA_DmaInitialize().
 614:Generated_Source\PSoC5/CyDmac.c **** *
 615:Generated_Source\PSoC5/CyDmac.c **** *  \param uint8 burstCount:
 616:Generated_Source\PSoC5/CyDmac.c **** *   Specifies the size of bursts (1 to 127) the data transfer should be divided
 617:Generated_Source\PSoC5/CyDmac.c **** *   into. If this value is zero then the whole transfer is done in one burst.
 618:Generated_Source\PSoC5/CyDmac.c **** *
 619:Generated_Source\PSoC5/CyDmac.c **** *  \param uint8 requestPerBurst:
 620:Generated_Source\PSoC5/CyDmac.c **** *   The whole of the data can be split into multiple bursts, if this is
 621:Generated_Source\PSoC5/CyDmac.c **** *   \param required to complete the transaction:
 622:Generated_Source\PSoC5/CyDmac.c **** *    \param 0: All subsequent bursts after the first burst will be automatically
 623:Generated_Source\PSoC5/CyDmac.c **** *       requested and carried out
 624:Generated_Source\PSoC5/CyDmac.c **** *    \param 1: All subsequent bursts after the first burst must also be individually
 625:Generated_Source\PSoC5/CyDmac.c **** *       requested.
ARM GAS  C:\Users\natha\AppData\Local\Temp\ccvBOJ1K.s 			page 25


 626:Generated_Source\PSoC5/CyDmac.c **** *
 627:Generated_Source\PSoC5/CyDmac.c **** *  \param uint8 tdDone0:
 628:Generated_Source\PSoC5/CyDmac.c **** *   Selects one of the TERMOUT0 interrupt lines to signal completion. The line
 629:Generated_Source\PSoC5/CyDmac.c **** *   connected to the nrq terminal will determine the TERMOUT0_SEL definition and
 630:Generated_Source\PSoC5/CyDmac.c **** *   should be used as supplied by cyfitter.h
 631:Generated_Source\PSoC5/CyDmac.c **** *
 632:Generated_Source\PSoC5/CyDmac.c **** *  \param uint8 tdDone1:
 633:Generated_Source\PSoC5/CyDmac.c **** *   Selects one of the TERMOUT1 interrupt lines to signal completion. The line
 634:Generated_Source\PSoC5/CyDmac.c **** *   connected to the nrq terminal will determine the TERMOUT1_SEL definition and
 635:Generated_Source\PSoC5/CyDmac.c **** *   should be used as supplied by cyfitter.h
 636:Generated_Source\PSoC5/CyDmac.c **** *
 637:Generated_Source\PSoC5/CyDmac.c **** *  \param uint8 tdStop:
 638:Generated_Source\PSoC5/CyDmac.c **** *   Selects one of the TERMIN interrupt lines to signal to the DMAC that the TD
 639:Generated_Source\PSoC5/CyDmac.c **** *   should terminate. The signal connected to the trq terminal will determine
 640:Generated_Source\PSoC5/CyDmac.c **** *   which TERMIN (termination request) is used.
 641:Generated_Source\PSoC5/CyDmac.c **** *
 642:Generated_Source\PSoC5/CyDmac.c **** * \return
 643:Generated_Source\PSoC5/CyDmac.c **** *  CYRET_SUCCESS if successful.
 644:Generated_Source\PSoC5/CyDmac.c **** *  CYRET_BAD_PARAM if chHandle is invalid.
 645:Generated_Source\PSoC5/CyDmac.c **** *
 646:Generated_Source\PSoC5/CyDmac.c **** *******************************************************************************/
 647:Generated_Source\PSoC5/CyDmac.c **** cystatus CyDmaChSetConfiguration(uint8 chHandle, uint8 burstCount, uint8 requestPerBurst,
 648:Generated_Source\PSoC5/CyDmac.c ****                                  uint8 tdDone0, uint8 tdDone1, uint8 tdStop) 
 649:Generated_Source\PSoC5/CyDmac.c **** {
 729              		.loc 1 649 0
 730              		.cfi_startproc
 731              		@ args = 8, pretend = 0, frame = 0
 732              		@ frame_needed = 0, uses_anonymous_args = 0
 733              		@ link register save eliminated.
 734              	.LVL81:
 650:Generated_Source\PSoC5/CyDmac.c ****     cystatus status = CYRET_BAD_PARAM;
 651:Generated_Source\PSoC5/CyDmac.c **** 
 652:Generated_Source\PSoC5/CyDmac.c ****     if(chHandle < CY_DMA_NUMBEROF_CHANNELS)
 735              		.loc 1 652 0
 736 0000 1728     		cmp	r0, #23
 737 0002 1BD8     		bhi	.L85
 649:Generated_Source\PSoC5/CyDmac.c ****     cystatus status = CYRET_BAD_PARAM;
 738              		.loc 1 649 0
 739 0004 10B4     		push	{r4}
 740              		.cfi_def_cfa_offset 4
 741              		.cfi_offset 4, -4
 653:Generated_Source\PSoC5/CyDmac.c ****     {
 654:Generated_Source\PSoC5/CyDmac.c ****         CY_DMA_CFGMEM_STRUCT_PTR[chHandle].CFG0[0] = (burstCount & 0x7Fu) | ((uint8)((requestPerBur
 742              		.loc 1 654 0
 743 0006 C000     		lsls	r0, r0, #3
 744              	.LVL82:
 745 0008 00F18044 		add	r4, r0, #1073741824
 746 000c 04F5EC44 		add	r4, r4, #30208
 747 0010 D201     		lsls	r2, r2, #7
 748              	.LVL83:
 749 0012 D2B2     		uxtb	r2, r2
 750 0014 01F07F01 		and	r1, r1, #127
 751              	.LVL84:
 752 0018 1143     		orrs	r1, r1, r2
 753 001a 2170     		strb	r1, [r4]
 655:Generated_Source\PSoC5/CyDmac.c ****         CY_DMA_CFGMEM_STRUCT_PTR[chHandle].CFG0[1] = ((uint8)((tdDone1 & 0xFu) << 4u)) | (tdDone0 &
 754              		.loc 1 655 0
ARM GAS  C:\Users\natha\AppData\Local\Temp\ccvBOJ1K.s 			page 26


 755 001c 9DF80420 		ldrb	r2, [sp, #4]	@ zero_extendqisi2
 756 0020 1201     		lsls	r2, r2, #4
 757 0022 D2B2     		uxtb	r2, r2
 758 0024 03F00F03 		and	r3, r3, #15
 759              	.LVL85:
 760 0028 1343     		orrs	r3, r3, r2
 761 002a 6370     		strb	r3, [r4, #1]
 656:Generated_Source\PSoC5/CyDmac.c ****         CY_DMA_CFGMEM_STRUCT_PTR[chHandle].CFG0[2] = 0x0Fu & tdStop;
 762              		.loc 1 656 0
 763 002c 9DF80830 		ldrb	r3, [sp, #8]	@ zero_extendqisi2
 764 0030 03F00F03 		and	r3, r3, #15
 765 0034 A370     		strb	r3, [r4, #2]
 657:Generated_Source\PSoC5/CyDmac.c ****         CY_DMA_CFGMEM_STRUCT_PTR[chHandle].CFG0[3] = 0u; /* burstcount_remain. */
 766              		.loc 1 657 0
 767 0036 0020     		movs	r0, #0
 768 0038 E070     		strb	r0, [r4, #3]
 769              	.LVL86:
 770 003a 01E0     		b	.L84
 771              	.LVL87:
 772              	.L85:
 773              		.cfi_def_cfa_offset 0
 774              		.cfi_restore 4
 650:Generated_Source\PSoC5/CyDmac.c **** 
 775              		.loc 1 650 0
 776 003c 0120     		movs	r0, #1
 777              	.LVL88:
 778 003e 7047     		bx	lr
 779              	.LVL89:
 780              	.L84:
 781              		.cfi_def_cfa_offset 4
 782              		.cfi_offset 4, -4
 658:Generated_Source\PSoC5/CyDmac.c **** 
 659:Generated_Source\PSoC5/CyDmac.c ****         status = CYRET_SUCCESS;
 660:Generated_Source\PSoC5/CyDmac.c ****     }
 661:Generated_Source\PSoC5/CyDmac.c **** 
 662:Generated_Source\PSoC5/CyDmac.c ****     return (status);
 663:Generated_Source\PSoC5/CyDmac.c **** }
 783              		.loc 1 663 0
 784 0040 5DF8044B 		ldr	r4, [sp], #4
 785              		.cfi_restore 4
 786              		.cfi_def_cfa_offset 0
 787              	.LVL90:
 788 0044 7047     		bx	lr
 789              		.cfi_endproc
 790              	.LFE15:
 791              		.size	CyDmaChSetConfiguration, .-CyDmaChSetConfiguration
 792 0046 00BF     		.section	.text.CyDmaTdAllocate,"ax",%progbits
 793              		.align	2
 794              		.global	CyDmaTdAllocate
 795              		.thumb
 796              		.thumb_func
 797              		.type	CyDmaTdAllocate, %function
 798              	CyDmaTdAllocate:
 799              	.LFB16:
 664:Generated_Source\PSoC5/CyDmac.c **** 
 665:Generated_Source\PSoC5/CyDmac.c **** 
 666:Generated_Source\PSoC5/CyDmac.c **** /*******************************************************************************
ARM GAS  C:\Users\natha\AppData\Local\Temp\ccvBOJ1K.s 			page 27


 667:Generated_Source\PSoC5/CyDmac.c **** * Function Name: CyDmaTdAllocate
 668:Generated_Source\PSoC5/CyDmac.c **** ****************************************************************************//**
 669:Generated_Source\PSoC5/CyDmac.c **** *
 670:Generated_Source\PSoC5/CyDmac.c **** *  Allocates a TD for use with an allocated DMA channel.
 671:Generated_Source\PSoC5/CyDmac.c **** *
 672:Generated_Source\PSoC5/CyDmac.c **** * \return
 673:Generated_Source\PSoC5/CyDmac.c **** *  Zero-based index of the TD to be used by the caller. Since there are 128 TDs
 674:Generated_Source\PSoC5/CyDmac.c **** *  minus the reserved TDs (0 to 23), the value returned would range from 24 to
 675:Generated_Source\PSoC5/CyDmac.c **** *  127 not 24 to 128. DMA_INVALID_TD is returned if there are no free TDs
 676:Generated_Source\PSoC5/CyDmac.c **** *  available.
 677:Generated_Source\PSoC5/CyDmac.c **** *
 678:Generated_Source\PSoC5/CyDmac.c **** *******************************************************************************/
 679:Generated_Source\PSoC5/CyDmac.c **** uint8 CyDmaTdAllocate(void) 
 680:Generated_Source\PSoC5/CyDmac.c **** {
 800              		.loc 1 680 0
 801              		.cfi_startproc
 802              		@ args = 0, pretend = 0, frame = 0
 803              		@ frame_needed = 0, uses_anonymous_args = 0
 804 0000 10B5     		push	{r4, lr}
 805              		.cfi_def_cfa_offset 8
 806              		.cfi_offset 4, -8
 807              		.cfi_offset 14, -4
 808              	.LVL91:
 681:Generated_Source\PSoC5/CyDmac.c ****     uint8 interruptState;
 682:Generated_Source\PSoC5/CyDmac.c ****     uint8 element = CY_DMA_INVALID_TD;
 683:Generated_Source\PSoC5/CyDmac.c **** 
 684:Generated_Source\PSoC5/CyDmac.c ****     /* Enter critical section! */
 685:Generated_Source\PSoC5/CyDmac.c ****     interruptState = CyEnterCriticalSection();
 809              		.loc 1 685 0
 810 0002 FFF7FEFF 		bl	CyEnterCriticalSection
 811              	.LVL92:
 686:Generated_Source\PSoC5/CyDmac.c **** 
 687:Generated_Source\PSoC5/CyDmac.c ****     if(CyDmaTdCurrentNumber > NUMBEROF_CHANNELS)
 812              		.loc 1 687 0
 813 0006 0A4B     		ldr	r3, .L92
 814 0008 5B78     		ldrb	r3, [r3, #1]	@ zero_extendqisi2
 815 000a 182B     		cmp	r3, #24
 816 000c 0BD9     		bls	.L90
 688:Generated_Source\PSoC5/CyDmac.c ****     {
 689:Generated_Source\PSoC5/CyDmac.c ****         /* Get pointer to Next available. */
 690:Generated_Source\PSoC5/CyDmac.c ****         element = CyDmaTdFreeIndex;
 817              		.loc 1 690 0
 818 000e 084A     		ldr	r2, .L92
 819 0010 1478     		ldrb	r4, [r2]	@ zero_extendqisi2
 820              	.LVL93:
 691:Generated_Source\PSoC5/CyDmac.c **** 
 692:Generated_Source\PSoC5/CyDmac.c ****         /* Decrement the count. */
 693:Generated_Source\PSoC5/CyDmac.c ****         CyDmaTdCurrentNumber--;
 821              		.loc 1 693 0
 822 0012 013B     		subs	r3, r3, #1
 823 0014 5370     		strb	r3, [r2, #1]
 694:Generated_Source\PSoC5/CyDmac.c **** 
 695:Generated_Source\PSoC5/CyDmac.c ****         /* Update next available pointer. */
 696:Generated_Source\PSoC5/CyDmac.c ****         CyDmaTdFreeIndex = CY_DMA_TDMEM_STRUCT_PTR[element].TD0[0];
 824              		.loc 1 696 0
 825 0016 E300     		lsls	r3, r4, #3
 826 0018 03F18043 		add	r3, r3, #1073741824
ARM GAS  C:\Users\natha\AppData\Local\Temp\ccvBOJ1K.s 			page 28


 827 001c 03F5F043 		add	r3, r3, #30720
 828 0020 1B78     		ldrb	r3, [r3]	@ zero_extendqisi2
 829 0022 1370     		strb	r3, [r2]
 830 0024 00E0     		b	.L89
 831              	.LVL94:
 832              	.L90:
 682:Generated_Source\PSoC5/CyDmac.c **** 
 833              		.loc 1 682 0
 834 0026 FF24     		movs	r4, #255
 835              	.LVL95:
 836              	.L89:
 697:Generated_Source\PSoC5/CyDmac.c ****     }
 698:Generated_Source\PSoC5/CyDmac.c **** 
 699:Generated_Source\PSoC5/CyDmac.c ****     /* Exit critical section! */
 700:Generated_Source\PSoC5/CyDmac.c ****     CyExitCriticalSection(interruptState);
 837              		.loc 1 700 0
 838 0028 FFF7FEFF 		bl	CyExitCriticalSection
 839              	.LVL96:
 701:Generated_Source\PSoC5/CyDmac.c **** 
 702:Generated_Source\PSoC5/CyDmac.c ****     return(element);
 703:Generated_Source\PSoC5/CyDmac.c **** }
 840              		.loc 1 703 0
 841 002c 2046     		mov	r0, r4
 842 002e 10BD     		pop	{r4, pc}
 843              	.LVL97:
 844              	.L93:
 845              		.align	2
 846              	.L92:
 847 0030 00000000 		.word	.LANCHOR0
 848              		.cfi_endproc
 849              	.LFE16:
 850              		.size	CyDmaTdAllocate, .-CyDmaTdAllocate
 851              		.section	.text.CyDmaTdFree,"ax",%progbits
 852              		.align	2
 853              		.global	CyDmaTdFree
 854              		.thumb
 855              		.thumb_func
 856              		.type	CyDmaTdFree, %function
 857              	CyDmaTdFree:
 858              	.LFB17:
 704:Generated_Source\PSoC5/CyDmac.c **** 
 705:Generated_Source\PSoC5/CyDmac.c **** 
 706:Generated_Source\PSoC5/CyDmac.c **** /*******************************************************************************
 707:Generated_Source\PSoC5/CyDmac.c **** * Function Name: CyDmaTdFree
 708:Generated_Source\PSoC5/CyDmac.c **** ****************************************************************************//**
 709:Generated_Source\PSoC5/CyDmac.c **** *
 710:Generated_Source\PSoC5/CyDmac.c **** *  Returns a TD to the free list.
 711:Generated_Source\PSoC5/CyDmac.c **** *
 712:Generated_Source\PSoC5/CyDmac.c **** *  \param uint8 tdHandle:
 713:Generated_Source\PSoC5/CyDmac.c **** *   The TD handle returned by the CyDmaTdAllocate().
 714:Generated_Source\PSoC5/CyDmac.c **** *
 715:Generated_Source\PSoC5/CyDmac.c **** *******************************************************************************/
 716:Generated_Source\PSoC5/CyDmac.c **** void CyDmaTdFree(uint8 tdHandle) 
 717:Generated_Source\PSoC5/CyDmac.c **** {
 859              		.loc 1 717 0
 860              		.cfi_startproc
 861              		@ args = 0, pretend = 0, frame = 0
ARM GAS  C:\Users\natha\AppData\Local\Temp\ccvBOJ1K.s 			page 29


 862              		@ frame_needed = 0, uses_anonymous_args = 0
 863              	.LVL98:
 864 0000 10B5     		push	{r4, lr}
 865              		.cfi_def_cfa_offset 8
 866              		.cfi_offset 4, -8
 867              		.cfi_offset 14, -4
 868 0002 0446     		mov	r4, r0
 718:Generated_Source\PSoC5/CyDmac.c ****     if(tdHandle < CY_DMA_NUMBEROF_TDS)
 869              		.loc 1 718 0
 870 0004 10F0800F 		tst	r0, #128
 871 0008 0FD1     		bne	.L94
 872              	.LBB2:
 719:Generated_Source\PSoC5/CyDmac.c ****     {
 720:Generated_Source\PSoC5/CyDmac.c ****         /* Enter critical section! */
 721:Generated_Source\PSoC5/CyDmac.c ****         uint8 interruptState = CyEnterCriticalSection();
 873              		.loc 1 721 0
 874 000a FFF7FEFF 		bl	CyEnterCriticalSection
 875              	.LVL99:
 722:Generated_Source\PSoC5/CyDmac.c **** 
 723:Generated_Source\PSoC5/CyDmac.c ****         /* Get pointer to Next available. */
 724:Generated_Source\PSoC5/CyDmac.c ****         CY_DMA_TDMEM_STRUCT_PTR[tdHandle].TD0[0u] = CyDmaTdFreeIndex;
 876              		.loc 1 724 0
 877 000e E300     		lsls	r3, r4, #3
 878 0010 03F18043 		add	r3, r3, #1073741824
 879 0014 03F5F043 		add	r3, r3, #30720
 880 0018 044A     		ldr	r2, .L97
 881 001a 1178     		ldrb	r1, [r2]	@ zero_extendqisi2
 882 001c 1970     		strb	r1, [r3]
 725:Generated_Source\PSoC5/CyDmac.c **** 
 726:Generated_Source\PSoC5/CyDmac.c ****         /* Set new Next Available. */
 727:Generated_Source\PSoC5/CyDmac.c ****         CyDmaTdFreeIndex = tdHandle;
 883              		.loc 1 727 0
 884 001e 1470     		strb	r4, [r2]
 728:Generated_Source\PSoC5/CyDmac.c **** 
 729:Generated_Source\PSoC5/CyDmac.c ****         /* Keep track of how many left. */
 730:Generated_Source\PSoC5/CyDmac.c ****         CyDmaTdCurrentNumber++;
 885              		.loc 1 730 0
 886 0020 5378     		ldrb	r3, [r2, #1]	@ zero_extendqisi2
 887 0022 0133     		adds	r3, r3, #1
 888 0024 5370     		strb	r3, [r2, #1]
 731:Generated_Source\PSoC5/CyDmac.c **** 
 732:Generated_Source\PSoC5/CyDmac.c ****         /* Exit critical section! */
 733:Generated_Source\PSoC5/CyDmac.c ****         CyExitCriticalSection(interruptState);
 889              		.loc 1 733 0
 890 0026 FFF7FEFF 		bl	CyExitCriticalSection
 891              	.LVL100:
 892              	.L94:
 893 002a 10BD     		pop	{r4, pc}
 894              	.L98:
 895              		.align	2
 896              	.L97:
 897 002c 00000000 		.word	.LANCHOR0
 898              	.LBE2:
 899              		.cfi_endproc
 900              	.LFE17:
 901              		.size	CyDmaTdFree, .-CyDmaTdFree
 902              		.section	.text.CyDmaTdFreeCount,"ax",%progbits
ARM GAS  C:\Users\natha\AppData\Local\Temp\ccvBOJ1K.s 			page 30


 903              		.align	2
 904              		.global	CyDmaTdFreeCount
 905              		.thumb
 906              		.thumb_func
 907              		.type	CyDmaTdFreeCount, %function
 908              	CyDmaTdFreeCount:
 909              	.LFB18:
 734:Generated_Source\PSoC5/CyDmac.c ****     }
 735:Generated_Source\PSoC5/CyDmac.c **** }
 736:Generated_Source\PSoC5/CyDmac.c **** 
 737:Generated_Source\PSoC5/CyDmac.c **** 
 738:Generated_Source\PSoC5/CyDmac.c **** /*******************************************************************************
 739:Generated_Source\PSoC5/CyDmac.c **** * Function Name: CyDmaTdFreeCount
 740:Generated_Source\PSoC5/CyDmac.c **** ****************************************************************************//**
 741:Generated_Source\PSoC5/CyDmac.c **** *
 742:Generated_Source\PSoC5/CyDmac.c **** *  Returns the number of free TDs available to be allocated.
 743:Generated_Source\PSoC5/CyDmac.c **** *
 744:Generated_Source\PSoC5/CyDmac.c **** * \return
 745:Generated_Source\PSoC5/CyDmac.c **** *  The number of free TDs.
 746:Generated_Source\PSoC5/CyDmac.c **** *
 747:Generated_Source\PSoC5/CyDmac.c **** *******************************************************************************/
 748:Generated_Source\PSoC5/CyDmac.c **** uint8 CyDmaTdFreeCount(void) 
 749:Generated_Source\PSoC5/CyDmac.c **** {
 910              		.loc 1 749 0
 911              		.cfi_startproc
 912              		@ args = 0, pretend = 0, frame = 0
 913              		@ frame_needed = 0, uses_anonymous_args = 0
 914              		@ link register save eliminated.
 750:Generated_Source\PSoC5/CyDmac.c ****     return(CyDmaTdCurrentNumber - CY_DMA_NUMBEROF_CHANNELS);
 915              		.loc 1 750 0
 916 0000 024B     		ldr	r3, .L100
 917 0002 5878     		ldrb	r0, [r3, #1]	@ zero_extendqisi2
 918 0004 1838     		subs	r0, r0, #24
 751:Generated_Source\PSoC5/CyDmac.c **** }
 919              		.loc 1 751 0
 920 0006 C0B2     		uxtb	r0, r0
 921 0008 7047     		bx	lr
 922              	.L101:
 923 000a 00BF     		.align	2
 924              	.L100:
 925 000c 00000000 		.word	.LANCHOR0
 926              		.cfi_endproc
 927              	.LFE18:
 928              		.size	CyDmaTdFreeCount, .-CyDmaTdFreeCount
 929              		.section	.text.CyDmaTdSetConfiguration,"ax",%progbits
 930              		.align	2
 931              		.global	CyDmaTdSetConfiguration
 932              		.thumb
 933              		.thumb_func
 934              		.type	CyDmaTdSetConfiguration, %function
 935              	CyDmaTdSetConfiguration:
 936              	.LFB19:
 752:Generated_Source\PSoC5/CyDmac.c **** 
 753:Generated_Source\PSoC5/CyDmac.c **** 
 754:Generated_Source\PSoC5/CyDmac.c **** /*******************************************************************************
 755:Generated_Source\PSoC5/CyDmac.c **** * Function Name: CyDmaTdSetConfiguration
 756:Generated_Source\PSoC5/CyDmac.c **** ****************************************************************************//**
ARM GAS  C:\Users\natha\AppData\Local\Temp\ccvBOJ1K.s 			page 31


 757:Generated_Source\PSoC5/CyDmac.c **** *
 758:Generated_Source\PSoC5/CyDmac.c **** *  Configures the TD.
 759:Generated_Source\PSoC5/CyDmac.c **** *
 760:Generated_Source\PSoC5/CyDmac.c **** *  \param uint8 tdHandle:
 761:Generated_Source\PSoC5/CyDmac.c **** *   A handle previously returned by CyDmaTdAlloc().
 762:Generated_Source\PSoC5/CyDmac.c **** *
 763:Generated_Source\PSoC5/CyDmac.c **** *  \param uint16 transferCount:
 764:Generated_Source\PSoC5/CyDmac.c **** *   The size of the data transfer (in bytes) for this TD. A size of zero will
 765:Generated_Source\PSoC5/CyDmac.c **** *   cause the transfer to continue indefinitely. This parameter is limited to
 766:Generated_Source\PSoC5/CyDmac.c **** *   4095 bytes; the TD is not initialized at all when a higher value is passed.
 767:Generated_Source\PSoC5/CyDmac.c **** *
 768:Generated_Source\PSoC5/CyDmac.c **** *  \param uint8 nextTd:
 769:Generated_Source\PSoC5/CyDmac.c **** *   Zero based index of the next Transfer Descriptor in the TD chain. Zero is a
 770:Generated_Source\PSoC5/CyDmac.c **** *   valid pointer to the next TD; DMA_END_CHAIN_TD is the end of the chain.
 771:Generated_Source\PSoC5/CyDmac.c **** *   DMA_DISABLE_TD indicates an end to the chain and the DMA is disabled. No
 772:Generated_Source\PSoC5/CyDmac.c **** *   further TDs are fetched. DMA_DISABLE_TD is only supported on PSoC3 and
 773:Generated_Source\PSoC5/CyDmac.c **** *   PSoC 5LP silicons.
 774:Generated_Source\PSoC5/CyDmac.c **** *
 775:Generated_Source\PSoC5/CyDmac.c **** *  \param uint8 configuration:
 776:Generated_Source\PSoC5/CyDmac.c **** *   Stores the Bit field of configuration bits.
 777:Generated_Source\PSoC5/CyDmac.c **** *
 778:Generated_Source\PSoC5/CyDmac.c **** *   CY_DMA_TD_SWAP_EN        - Perform endian swap
 779:Generated_Source\PSoC5/CyDmac.c **** *
 780:Generated_Source\PSoC5/CyDmac.c **** *   CY_DMA_TD_SWAP_SIZE4     - Swap size = 4 bytes
 781:Generated_Source\PSoC5/CyDmac.c **** *
 782:Generated_Source\PSoC5/CyDmac.c **** *   CY_DMA_TD_AUTO_EXEC_NEXT - The next TD in the chain will trigger
 783:Generated_Source\PSoC5/CyDmac.c **** *                              automatically when the current TD completes.
 784:Generated_Source\PSoC5/CyDmac.c **** *
 785:Generated_Source\PSoC5/CyDmac.c **** *   CY_DMA_TD_TERMIN_EN      - Terminate this TD if a positive edge on the trq
 786:Generated_Source\PSoC5/CyDmac.c **** *                              input line occurs. The positive edge must occur
 787:Generated_Source\PSoC5/CyDmac.c **** *                              during a burst. That is the only time the DMAC
 788:Generated_Source\PSoC5/CyDmac.c **** *                              will listen for it.
 789:Generated_Source\PSoC5/CyDmac.c **** *
 790:Generated_Source\PSoC5/CyDmac.c **** *   DMA__TD_TERMOUT_EN       - When this TD completes, the TERMOUT signal will
 791:Generated_Source\PSoC5/CyDmac.c **** *                              generate a pulse. Note that this option is
 792:Generated_Source\PSoC5/CyDmac.c **** *                              instance specific with the instance name followed
 793:Generated_Source\PSoC5/CyDmac.c **** *                              by two underscores. In this example, the instance
 794:Generated_Source\PSoC5/CyDmac.c **** *                              name is DMA.
 795:Generated_Source\PSoC5/CyDmac.c **** *
 796:Generated_Source\PSoC5/CyDmac.c **** *   CY_DMA_TD_INC_DST_ADR    - Increment DST_ADR according to the size of each
 797:Generated_Source\PSoC5/CyDmac.c **** *                              data transaction in the burst.
 798:Generated_Source\PSoC5/CyDmac.c **** *
 799:Generated_Source\PSoC5/CyDmac.c **** *   CY_DMA_TD_INC_SRC_ADR    - Increment SRC_ADR according to the size of each
 800:Generated_Source\PSoC5/CyDmac.c **** *                              data transaction in the burst.
 801:Generated_Source\PSoC5/CyDmac.c **** *
 802:Generated_Source\PSoC5/CyDmac.c **** * \return
 803:Generated_Source\PSoC5/CyDmac.c **** *  CYRET_SUCCESS if successful.
 804:Generated_Source\PSoC5/CyDmac.c **** *  CYRET_BAD_PARAM if tdHandle or transferCount is invalid.
 805:Generated_Source\PSoC5/CyDmac.c **** *
 806:Generated_Source\PSoC5/CyDmac.c **** *******************************************************************************/
 807:Generated_Source\PSoC5/CyDmac.c **** cystatus CyDmaTdSetConfiguration(uint8 tdHandle, uint16 transferCount, uint8 nextTd, uint8 configur
 808:Generated_Source\PSoC5/CyDmac.c ****     
 809:Generated_Source\PSoC5/CyDmac.c **** {
 937              		.loc 1 809 0
 938              		.cfi_startproc
 939              		@ args = 0, pretend = 0, frame = 0
 940              		@ frame_needed = 0, uses_anonymous_args = 0
ARM GAS  C:\Users\natha\AppData\Local\Temp\ccvBOJ1K.s 			page 32


 941              		@ link register save eliminated.
 942              	.LVL101:
 810:Generated_Source\PSoC5/CyDmac.c ****     cystatus status = CYRET_BAD_PARAM;
 811:Generated_Source\PSoC5/CyDmac.c **** 
 812:Generated_Source\PSoC5/CyDmac.c ****     if((tdHandle < CY_DMA_NUMBEROF_TDS) && (0u == (0xF000u & transferCount)))
 943              		.loc 1 812 0
 944 0000 10F0800F 		tst	r0, #128
 945 0004 0CD1     		bne	.L104
 946              		.loc 1 812 0 is_stmt 0 discriminator 1
 947 0006 11F4704F 		tst	r1, #61440
 948 000a 0BD1     		bne	.L105
 949              	.LBB3:
 813:Generated_Source\PSoC5/CyDmac.c ****     {
 814:Generated_Source\PSoC5/CyDmac.c ****         /* Set 12 bits transfer count. */
 815:Generated_Source\PSoC5/CyDmac.c ****         reg16 *convert = (reg16 *) &CY_DMA_TDMEM_STRUCT_PTR[tdHandle].TD0[0u];
 950              		.loc 1 815 0 is_stmt 1
 951 000c C000     		lsls	r0, r0, #3
 952              	.LVL102:
 953 000e 00F18040 		add	r0, r0, #1073741824
 954 0012 00F5F040 		add	r0, r0, #30720
 955              	.LVL103:
 816:Generated_Source\PSoC5/CyDmac.c ****         CY_SET_REG16(convert, transferCount);
 956              		.loc 1 816 0
 957 0016 0180     		strh	r1, [r0]	@ movhi
 817:Generated_Source\PSoC5/CyDmac.c **** 
 818:Generated_Source\PSoC5/CyDmac.c ****         /* Set Next TD pointer. */
 819:Generated_Source\PSoC5/CyDmac.c ****         CY_DMA_TDMEM_STRUCT_PTR[tdHandle].TD0[2u] = nextTd;
 958              		.loc 1 819 0
 959 0018 8270     		strb	r2, [r0, #2]
 820:Generated_Source\PSoC5/CyDmac.c **** 
 821:Generated_Source\PSoC5/CyDmac.c ****         /* Configure the TD */
 822:Generated_Source\PSoC5/CyDmac.c ****         CY_DMA_TDMEM_STRUCT_PTR[tdHandle].TD0[3u] = configuration;
 960              		.loc 1 822 0
 961 001a C370     		strb	r3, [r0, #3]
 962              	.LVL104:
 823:Generated_Source\PSoC5/CyDmac.c **** 
 824:Generated_Source\PSoC5/CyDmac.c ****         status = CYRET_SUCCESS;
 963              		.loc 1 824 0
 964 001c 0020     		movs	r0, #0
 965              	.LVL105:
 966 001e 7047     		bx	lr
 967              	.LVL106:
 968              	.L104:
 969              	.LBE3:
 810:Generated_Source\PSoC5/CyDmac.c **** 
 970              		.loc 1 810 0
 971 0020 0120     		movs	r0, #1
 972              	.LVL107:
 973 0022 7047     		bx	lr
 974              	.LVL108:
 975              	.L105:
 976 0024 0120     		movs	r0, #1
 977              	.LVL109:
 825:Generated_Source\PSoC5/CyDmac.c ****     }
 826:Generated_Source\PSoC5/CyDmac.c **** 
 827:Generated_Source\PSoC5/CyDmac.c ****     return(status);
 828:Generated_Source\PSoC5/CyDmac.c **** }
ARM GAS  C:\Users\natha\AppData\Local\Temp\ccvBOJ1K.s 			page 33


 978              		.loc 1 828 0
 979 0026 7047     		bx	lr
 980              		.cfi_endproc
 981              	.LFE19:
 982              		.size	CyDmaTdSetConfiguration, .-CyDmaTdSetConfiguration
 983              		.section	.text.CyDmaTdGetConfiguration,"ax",%progbits
 984              		.align	2
 985              		.global	CyDmaTdGetConfiguration
 986              		.thumb
 987              		.thumb_func
 988              		.type	CyDmaTdGetConfiguration, %function
 989              	CyDmaTdGetConfiguration:
 990              	.LFB20:
 829:Generated_Source\PSoC5/CyDmac.c **** 
 830:Generated_Source\PSoC5/CyDmac.c **** 
 831:Generated_Source\PSoC5/CyDmac.c **** /*******************************************************************************
 832:Generated_Source\PSoC5/CyDmac.c **** * Function Name: CyDmaTdGetConfiguration
 833:Generated_Source\PSoC5/CyDmac.c **** ****************************************************************************//**
 834:Generated_Source\PSoC5/CyDmac.c **** *
 835:Generated_Source\PSoC5/CyDmac.c **** *  Retrieves the configuration of the TD. If a NULL pointer is passed as a
 836:Generated_Source\PSoC5/CyDmac.c **** *  parameter, that parameter is skipped. You may request only the values you are
 837:Generated_Source\PSoC5/CyDmac.c **** *  interested in.
 838:Generated_Source\PSoC5/CyDmac.c **** *
 839:Generated_Source\PSoC5/CyDmac.c **** *  \param uint8 tdHandle:
 840:Generated_Source\PSoC5/CyDmac.c **** *   A handle previously returned by CyDmaTdAlloc().
 841:Generated_Source\PSoC5/CyDmac.c **** *
 842:Generated_Source\PSoC5/CyDmac.c **** *  \param uint16 * transferCount:
 843:Generated_Source\PSoC5/CyDmac.c **** *   The address to store the size of the data transfer (in bytes) for this TD.
 844:Generated_Source\PSoC5/CyDmac.c **** *   A size of zero could indicate that the TD has completed its transfer, or
 845:Generated_Source\PSoC5/CyDmac.c **** *   that the TD is doing an indefinite transfer.
 846:Generated_Source\PSoC5/CyDmac.c **** *
 847:Generated_Source\PSoC5/CyDmac.c **** *  \param uint8 * nextTd:
 848:Generated_Source\PSoC5/CyDmac.c **** *   The address to store the index of the next TD in the TD chain.
 849:Generated_Source\PSoC5/CyDmac.c **** *
 850:Generated_Source\PSoC5/CyDmac.c **** *  \param uint8 * configuration:
 851:Generated_Source\PSoC5/CyDmac.c **** *   The address to store the Bit field of configuration bits.
 852:Generated_Source\PSoC5/CyDmac.c **** *   See CyDmaTdSetConfiguration() function description.
 853:Generated_Source\PSoC5/CyDmac.c **** *
 854:Generated_Source\PSoC5/CyDmac.c **** * \return
 855:Generated_Source\PSoC5/CyDmac.c **** *  CYRET_SUCCESS if successful.
 856:Generated_Source\PSoC5/CyDmac.c **** *  CYRET_BAD_PARAM if tdHandle is invalid.
 857:Generated_Source\PSoC5/CyDmac.c **** *
 858:Generated_Source\PSoC5/CyDmac.c **** * \sideeffect
 859:Generated_Source\PSoC5/CyDmac.c **** *  If TD has a transfer count of N and is executed, the transfer count becomes
 860:Generated_Source\PSoC5/CyDmac.c **** *  0. If it is reexecuted, the Transfer count of zero will be interpreted as a
 861:Generated_Source\PSoC5/CyDmac.c **** *  request for indefinite transfer. Be careful when requesting TD with a
 862:Generated_Source\PSoC5/CyDmac.c **** *  transfer count of zero.
 863:Generated_Source\PSoC5/CyDmac.c **** *
 864:Generated_Source\PSoC5/CyDmac.c **** *******************************************************************************/
 865:Generated_Source\PSoC5/CyDmac.c **** cystatus CyDmaTdGetConfiguration(uint8 tdHandle, uint16 * transferCount, uint8 * nextTd, uint8 * co
 866:Generated_Source\PSoC5/CyDmac.c ****     
 867:Generated_Source\PSoC5/CyDmac.c **** {
 991              		.loc 1 867 0
 992              		.cfi_startproc
 993              		@ args = 0, pretend = 0, frame = 0
 994              		@ frame_needed = 0, uses_anonymous_args = 0
 995              		@ link register save eliminated.
ARM GAS  C:\Users\natha\AppData\Local\Temp\ccvBOJ1K.s 			page 34


 996              	.LVL110:
 868:Generated_Source\PSoC5/CyDmac.c ****     cystatus status = CYRET_BAD_PARAM;
 869:Generated_Source\PSoC5/CyDmac.c **** 
 870:Generated_Source\PSoC5/CyDmac.c ****     if(tdHandle < CY_DMA_NUMBEROF_TDS)
 997              		.loc 1 870 0
 998 0000 10F0800F 		tst	r0, #128
 999 0004 1CD1     		bne	.L110
 867:Generated_Source\PSoC5/CyDmac.c ****     cystatus status = CYRET_BAD_PARAM;
 1000              		.loc 1 867 0
 1001 0006 10B4     		push	{r4}
 1002              		.cfi_def_cfa_offset 4
 1003              		.cfi_offset 4, -4
 871:Generated_Source\PSoC5/CyDmac.c ****     {
 872:Generated_Source\PSoC5/CyDmac.c ****         /* If we have pointer */
 873:Generated_Source\PSoC5/CyDmac.c ****         if(NULL != transferCount)
 1004              		.loc 1 873 0
 1005 0008 41B1     		cbz	r1, .L108
 1006              	.LBB4:
 874:Generated_Source\PSoC5/CyDmac.c ****         {
 875:Generated_Source\PSoC5/CyDmac.c ****             /* Get 12 bits of transfer count */
 876:Generated_Source\PSoC5/CyDmac.c ****             reg16 *convert = (reg16 *) &CY_DMA_TDMEM_STRUCT_PTR[tdHandle].TD0[0];
 1007              		.loc 1 876 0
 1008 000a C400     		lsls	r4, r0, #3
 1009 000c 04F18044 		add	r4, r4, #1073741824
 1010 0010 04F5F044 		add	r4, r4, #30720
 1011              	.LVL111:
 877:Generated_Source\PSoC5/CyDmac.c ****             *transferCount = 0x0FFFu & CY_GET_REG16(convert);
 1012              		.loc 1 877 0
 1013 0014 2488     		ldrh	r4, [r4]
 1014              	.LVL112:
 1015 0016 C4F30B04 		ubfx	r4, r4, #0, #12
 1016 001a 0C80     		strh	r4, [r1]	@ movhi
 1017              	.LVL113:
 1018              	.L108:
 1019              	.LBE4:
 878:Generated_Source\PSoC5/CyDmac.c ****         }
 879:Generated_Source\PSoC5/CyDmac.c **** 
 880:Generated_Source\PSoC5/CyDmac.c ****         /* If we have pointer */
 881:Generated_Source\PSoC5/CyDmac.c ****         if(NULL != nextTd)
 1020              		.loc 1 881 0
 1021 001c 32B1     		cbz	r2, .L109
 882:Generated_Source\PSoC5/CyDmac.c ****         {
 883:Generated_Source\PSoC5/CyDmac.c ****             /* Get Next TD pointer */
 884:Generated_Source\PSoC5/CyDmac.c ****             *nextTd = CY_DMA_TDMEM_STRUCT_PTR[tdHandle].TD0[2u];
 1022              		.loc 1 884 0
 1023 001e C100     		lsls	r1, r0, #3
 1024              	.LVL114:
 1025 0020 01F18041 		add	r1, r1, #1073741824
 1026 0024 01F5F041 		add	r1, r1, #30720
 1027 0028 8978     		ldrb	r1, [r1, #2]	@ zero_extendqisi2
 1028 002a 1170     		strb	r1, [r2]
 1029              	.L109:
 885:Generated_Source\PSoC5/CyDmac.c ****         }
 886:Generated_Source\PSoC5/CyDmac.c **** 
 887:Generated_Source\PSoC5/CyDmac.c ****         /* If we have pointer */
 888:Generated_Source\PSoC5/CyDmac.c ****         if(NULL != configuration)
 1030              		.loc 1 888 0
ARM GAS  C:\Users\natha\AppData\Local\Temp\ccvBOJ1K.s 			page 35


 1031 002c 53B1     		cbz	r3, .L111
 889:Generated_Source\PSoC5/CyDmac.c ****         {
 890:Generated_Source\PSoC5/CyDmac.c ****             /* Get configuration TD */
 891:Generated_Source\PSoC5/CyDmac.c ****             *configuration = CY_DMA_TDMEM_STRUCT_PTR[tdHandle].TD0[3u];
 1032              		.loc 1 891 0
 1033 002e C000     		lsls	r0, r0, #3
 1034              	.LVL115:
 1035 0030 00F18040 		add	r0, r0, #1073741824
 1036 0034 00F5F040 		add	r0, r0, #30720
 1037 0038 C278     		ldrb	r2, [r0, #3]	@ zero_extendqisi2
 1038              	.LVL116:
 1039 003a 1A70     		strb	r2, [r3]
 892:Generated_Source\PSoC5/CyDmac.c ****         }
 893:Generated_Source\PSoC5/CyDmac.c **** 
 894:Generated_Source\PSoC5/CyDmac.c ****         status = CYRET_SUCCESS;
 1040              		.loc 1 894 0
 1041 003c 0020     		movs	r0, #0
 1042 003e 02E0     		b	.L107
 1043              	.LVL117:
 1044              	.L110:
 1045              		.cfi_def_cfa_offset 0
 1046              		.cfi_restore 4
 868:Generated_Source\PSoC5/CyDmac.c **** 
 1047              		.loc 1 868 0
 1048 0040 0120     		movs	r0, #1
 1049              	.LVL118:
 895:Generated_Source\PSoC5/CyDmac.c ****     }
 896:Generated_Source\PSoC5/CyDmac.c **** 
 897:Generated_Source\PSoC5/CyDmac.c ****     return(status);
 898:Generated_Source\PSoC5/CyDmac.c **** }
 1050              		.loc 1 898 0
 1051 0042 7047     		bx	lr
 1052              	.LVL119:
 1053              	.L111:
 1054              		.cfi_def_cfa_offset 4
 1055              		.cfi_offset 4, -4
 894:Generated_Source\PSoC5/CyDmac.c ****     }
 1056              		.loc 1 894 0
 1057 0044 0020     		movs	r0, #0
 1058              	.LVL120:
 1059              	.L107:
 1060              		.loc 1 898 0
 1061 0046 5DF8044B 		ldr	r4, [sp], #4
 1062              		.cfi_restore 4
 1063              		.cfi_def_cfa_offset 0
 1064 004a 7047     		bx	lr
 1065              		.cfi_endproc
 1066              	.LFE20:
 1067              		.size	CyDmaTdGetConfiguration, .-CyDmaTdGetConfiguration
 1068              		.section	.text.CyDmaTdSetAddress,"ax",%progbits
 1069              		.align	2
 1070              		.global	CyDmaTdSetAddress
 1071              		.thumb
 1072              		.thumb_func
 1073              		.type	CyDmaTdSetAddress, %function
 1074              	CyDmaTdSetAddress:
 1075              	.LFB21:
ARM GAS  C:\Users\natha\AppData\Local\Temp\ccvBOJ1K.s 			page 36


 899:Generated_Source\PSoC5/CyDmac.c **** 
 900:Generated_Source\PSoC5/CyDmac.c **** 
 901:Generated_Source\PSoC5/CyDmac.c **** /*******************************************************************************
 902:Generated_Source\PSoC5/CyDmac.c **** * Function Name: CyDmaTdSetAddress
 903:Generated_Source\PSoC5/CyDmac.c **** ****************************************************************************//**
 904:Generated_Source\PSoC5/CyDmac.c **** *
 905:Generated_Source\PSoC5/CyDmac.c **** *  Sets the lower 16 bits of the source and destination addresses for this TD
 906:Generated_Source\PSoC5/CyDmac.c **** *  only.
 907:Generated_Source\PSoC5/CyDmac.c **** *
 908:Generated_Source\PSoC5/CyDmac.c **** *  \param uint8 tdHandle:
 909:Generated_Source\PSoC5/CyDmac.c **** *   A handle previously returned by CyDmaTdAlloc().
 910:Generated_Source\PSoC5/CyDmac.c **** *
 911:Generated_Source\PSoC5/CyDmac.c **** *  \param uint16 source:
 912:Generated_Source\PSoC5/CyDmac.c **** *   The lower 16 address bits of the source of the data transfer.
 913:Generated_Source\PSoC5/CyDmac.c **** *
 914:Generated_Source\PSoC5/CyDmac.c **** *  \param uint16 destination:
 915:Generated_Source\PSoC5/CyDmac.c **** *   The lower 16 address bits of the destination of the data transfer.
 916:Generated_Source\PSoC5/CyDmac.c **** *
 917:Generated_Source\PSoC5/CyDmac.c **** * \return
 918:Generated_Source\PSoC5/CyDmac.c **** *  CYRET_SUCCESS if successful.
 919:Generated_Source\PSoC5/CyDmac.c **** *  CYRET_BAD_PARAM if tdHandle is invalid.
 920:Generated_Source\PSoC5/CyDmac.c **** *
 921:Generated_Source\PSoC5/CyDmac.c **** *******************************************************************************/
 922:Generated_Source\PSoC5/CyDmac.c **** cystatus CyDmaTdSetAddress(uint8 tdHandle, uint16 source, uint16 destination) 
 923:Generated_Source\PSoC5/CyDmac.c **** {
 1076              		.loc 1 923 0
 1077              		.cfi_startproc
 1078              		@ args = 0, pretend = 0, frame = 0
 1079              		@ frame_needed = 0, uses_anonymous_args = 0
 1080              		@ link register save eliminated.
 1081              	.LVL121:
 924:Generated_Source\PSoC5/CyDmac.c ****     cystatus status = CYRET_BAD_PARAM;
 925:Generated_Source\PSoC5/CyDmac.c ****     reg16 *convert;
 926:Generated_Source\PSoC5/CyDmac.c **** 
 927:Generated_Source\PSoC5/CyDmac.c ****     if(tdHandle < CY_DMA_NUMBEROF_TDS)
 1082              		.loc 1 927 0
 1083 0000 10F0800F 		tst	r0, #128
 1084 0004 08D1     		bne	.L115
 928:Generated_Source\PSoC5/CyDmac.c ****     {
 929:Generated_Source\PSoC5/CyDmac.c ****         /* Set source address */
 930:Generated_Source\PSoC5/CyDmac.c ****         convert = (reg16 *) &CY_DMA_TDMEM_STRUCT_PTR[tdHandle].TD1[0u];
 1085              		.loc 1 930 0
 1086 0006 C000     		lsls	r0, r0, #3
 1087              	.LVL122:
 1088 0008 00F18040 		add	r0, r0, #1073741824
 1089 000c 00F5F040 		add	r0, r0, #30720
 1090              	.LVL123:
 931:Generated_Source\PSoC5/CyDmac.c ****         CY_SET_REG16(convert, source);
 1091              		.loc 1 931 0
 1092 0010 8180     		strh	r1, [r0, #4]	@ movhi
 1093              	.LVL124:
 932:Generated_Source\PSoC5/CyDmac.c **** 
 933:Generated_Source\PSoC5/CyDmac.c ****         /* Set destination address */
 934:Generated_Source\PSoC5/CyDmac.c ****         convert = (reg16 *) &CY_DMA_TDMEM_STRUCT_PTR[tdHandle].TD1[2u];
 935:Generated_Source\PSoC5/CyDmac.c ****         CY_SET_REG16(convert, destination);
 1094              		.loc 1 935 0
 1095 0012 C280     		strh	r2, [r0, #6]	@ movhi
ARM GAS  C:\Users\natha\AppData\Local\Temp\ccvBOJ1K.s 			page 37


 1096              	.LVL125:
 936:Generated_Source\PSoC5/CyDmac.c **** 
 937:Generated_Source\PSoC5/CyDmac.c ****         status = CYRET_SUCCESS;
 1097              		.loc 1 937 0
 1098 0014 0020     		movs	r0, #0
 1099              	.LVL126:
 1100 0016 7047     		bx	lr
 1101              	.LVL127:
 1102              	.L115:
 924:Generated_Source\PSoC5/CyDmac.c ****     reg16 *convert;
 1103              		.loc 1 924 0
 1104 0018 0120     		movs	r0, #1
 1105              	.LVL128:
 938:Generated_Source\PSoC5/CyDmac.c ****     }
 939:Generated_Source\PSoC5/CyDmac.c **** 
 940:Generated_Source\PSoC5/CyDmac.c ****     return(status);
 941:Generated_Source\PSoC5/CyDmac.c **** }
 1106              		.loc 1 941 0
 1107 001a 7047     		bx	lr
 1108              		.cfi_endproc
 1109              	.LFE21:
 1110              		.size	CyDmaTdSetAddress, .-CyDmaTdSetAddress
 1111              		.section	.text.CyDmaTdGetAddress,"ax",%progbits
 1112              		.align	2
 1113              		.global	CyDmaTdGetAddress
 1114              		.thumb
 1115              		.thumb_func
 1116              		.type	CyDmaTdGetAddress, %function
 1117              	CyDmaTdGetAddress:
 1118              	.LFB22:
 942:Generated_Source\PSoC5/CyDmac.c **** 
 943:Generated_Source\PSoC5/CyDmac.c **** 
 944:Generated_Source\PSoC5/CyDmac.c **** /*******************************************************************************
 945:Generated_Source\PSoC5/CyDmac.c **** * Function Name: CyDmaTdGetAddress
 946:Generated_Source\PSoC5/CyDmac.c **** ****************************************************************************//**
 947:Generated_Source\PSoC5/CyDmac.c **** *
 948:Generated_Source\PSoC5/CyDmac.c **** *  Retrieves the lower 16 bits of the source and/or destination addresses for
 949:Generated_Source\PSoC5/CyDmac.c **** *  this TD only. If NULL is passed for a pointer parameter, that value is
 950:Generated_Source\PSoC5/CyDmac.c **** *  skipped. You may request only the values of interest.
 951:Generated_Source\PSoC5/CyDmac.c **** *
 952:Generated_Source\PSoC5/CyDmac.c **** *  \param uint8 tdHandle:
 953:Generated_Source\PSoC5/CyDmac.c **** *   A handle previously returned by CyDmaTdAlloc().
 954:Generated_Source\PSoC5/CyDmac.c **** *
 955:Generated_Source\PSoC5/CyDmac.c **** *  \param uint16 * source:
 956:Generated_Source\PSoC5/CyDmac.c **** *   The address to store the lower 16 address bits of the source of the data
 957:Generated_Source\PSoC5/CyDmac.c **** *   transfer.
 958:Generated_Source\PSoC5/CyDmac.c **** *
 959:Generated_Source\PSoC5/CyDmac.c **** *  \param uint16 * destination:
 960:Generated_Source\PSoC5/CyDmac.c **** *   The address to store the lower 16 address bits of the destination of the
 961:Generated_Source\PSoC5/CyDmac.c **** *   data transfer.
 962:Generated_Source\PSoC5/CyDmac.c **** *
 963:Generated_Source\PSoC5/CyDmac.c **** * \return
 964:Generated_Source\PSoC5/CyDmac.c **** *  CYRET_SUCCESS if successful.
 965:Generated_Source\PSoC5/CyDmac.c **** *  CYRET_BAD_PARAM if tdHandle is invalid.
 966:Generated_Source\PSoC5/CyDmac.c **** *
 967:Generated_Source\PSoC5/CyDmac.c **** *******************************************************************************/
 968:Generated_Source\PSoC5/CyDmac.c **** cystatus CyDmaTdGetAddress(uint8 tdHandle, uint16 * source, uint16 * destination) 
ARM GAS  C:\Users\natha\AppData\Local\Temp\ccvBOJ1K.s 			page 38


 969:Generated_Source\PSoC5/CyDmac.c **** {
 1119              		.loc 1 969 0
 1120              		.cfi_startproc
 1121              		@ args = 0, pretend = 0, frame = 0
 1122              		@ frame_needed = 0, uses_anonymous_args = 0
 1123              		@ link register save eliminated.
 1124              	.LVL129:
 970:Generated_Source\PSoC5/CyDmac.c ****     cystatus status = CYRET_BAD_PARAM;
 971:Generated_Source\PSoC5/CyDmac.c ****     reg16 *convert;
 972:Generated_Source\PSoC5/CyDmac.c **** 
 973:Generated_Source\PSoC5/CyDmac.c ****     if(tdHandle < CY_DMA_NUMBEROF_TDS)
 1125              		.loc 1 973 0
 1126 0000 10F0800F 		tst	r0, #128
 1127 0004 11D1     		bne	.L119
 974:Generated_Source\PSoC5/CyDmac.c ****     {
 975:Generated_Source\PSoC5/CyDmac.c ****         /* If we have a pointer. */
 976:Generated_Source\PSoC5/CyDmac.c ****         if(NULL != source)
 1128              		.loc 1 976 0
 1129 0006 31B1     		cbz	r1, .L118
 977:Generated_Source\PSoC5/CyDmac.c ****         {
 978:Generated_Source\PSoC5/CyDmac.c ****             /* Get source address */
 979:Generated_Source\PSoC5/CyDmac.c ****             convert = (reg16 *) &CY_DMA_TDMEM_STRUCT_PTR[tdHandle].TD1[0u];
 1130              		.loc 1 979 0
 1131 0008 C300     		lsls	r3, r0, #3
 1132 000a 03F18043 		add	r3, r3, #1073741824
 1133 000e 03F5F043 		add	r3, r3, #30720
 1134              	.LVL130:
 980:Generated_Source\PSoC5/CyDmac.c ****             *source = CY_GET_REG16(convert);
 1135              		.loc 1 980 0
 1136 0012 9B88     		ldrh	r3, [r3, #4]
 1137              	.LVL131:
 1138 0014 0B80     		strh	r3, [r1]	@ movhi
 1139              	.LVL132:
 1140              	.L118:
 981:Generated_Source\PSoC5/CyDmac.c ****         }
 982:Generated_Source\PSoC5/CyDmac.c **** 
 983:Generated_Source\PSoC5/CyDmac.c ****         /* If we have a pointer. */
 984:Generated_Source\PSoC5/CyDmac.c ****         if(NULL != destination)
 1141              		.loc 1 984 0
 1142 0016 52B1     		cbz	r2, .L120
 985:Generated_Source\PSoC5/CyDmac.c ****         {
 986:Generated_Source\PSoC5/CyDmac.c ****             /* Get Destination address. */
 987:Generated_Source\PSoC5/CyDmac.c ****             convert = (reg16 *) &CY_DMA_TDMEM_STRUCT_PTR[tdHandle].TD1[2u];
 1143              		.loc 1 987 0
 1144 0018 C000     		lsls	r0, r0, #3
 1145              	.LVL133:
 1146 001a 00F18040 		add	r0, r0, #1073741824
 1147 001e 00F5F040 		add	r0, r0, #30720
 1148              	.LVL134:
 988:Generated_Source\PSoC5/CyDmac.c ****             *destination = CY_GET_REG16(convert);
 1149              		.loc 1 988 0
 1150 0022 C388     		ldrh	r3, [r0, #6]
 1151 0024 1380     		strh	r3, [r2]	@ movhi
 989:Generated_Source\PSoC5/CyDmac.c ****         }
 990:Generated_Source\PSoC5/CyDmac.c **** 
 991:Generated_Source\PSoC5/CyDmac.c ****         status = CYRET_SUCCESS;
 1152              		.loc 1 991 0
ARM GAS  C:\Users\natha\AppData\Local\Temp\ccvBOJ1K.s 			page 39


 1153 0026 0020     		movs	r0, #0
 1154              	.LVL135:
 1155 0028 7047     		bx	lr
 1156              	.LVL136:
 1157              	.L119:
 970:Generated_Source\PSoC5/CyDmac.c ****     reg16 *convert;
 1158              		.loc 1 970 0
 1159 002a 0120     		movs	r0, #1
 1160              	.LVL137:
 1161 002c 7047     		bx	lr
 1162              	.LVL138:
 1163              	.L120:
 1164              		.loc 1 991 0
 1165 002e 0020     		movs	r0, #0
 1166              	.LVL139:
 992:Generated_Source\PSoC5/CyDmac.c ****     }
 993:Generated_Source\PSoC5/CyDmac.c **** 
 994:Generated_Source\PSoC5/CyDmac.c ****     return(status);
 995:Generated_Source\PSoC5/CyDmac.c **** }
 1167              		.loc 1 995 0
 1168 0030 7047     		bx	lr
 1169              		.cfi_endproc
 1170              	.LFE22:
 1171              		.size	CyDmaTdGetAddress, .-CyDmaTdGetAddress
 1172 0032 00BF     		.section	.text.CyDmaChRoundRobin,"ax",%progbits
 1173              		.align	2
 1174              		.global	CyDmaChRoundRobin
 1175              		.thumb
 1176              		.thumb_func
 1177              		.type	CyDmaChRoundRobin, %function
 1178              	CyDmaChRoundRobin:
 1179              	.LFB23:
 996:Generated_Source\PSoC5/CyDmac.c **** 
 997:Generated_Source\PSoC5/CyDmac.c **** 
 998:Generated_Source\PSoC5/CyDmac.c **** /*******************************************************************************
 999:Generated_Source\PSoC5/CyDmac.c **** * Function Name: CyDmaChRoundRobin
1000:Generated_Source\PSoC5/CyDmac.c **** ****************************************************************************//**
1001:Generated_Source\PSoC5/CyDmac.c **** *
1002:Generated_Source\PSoC5/CyDmac.c **** * Either enables or disables the Round-Robin scheduling enforcement algorithm.
1003:Generated_Source\PSoC5/CyDmac.c **** * Within a priority level a Round-Robin fairness algorithm is enforced.
1004:Generated_Source\PSoC5/CyDmac.c **** *
1005:Generated_Source\PSoC5/CyDmac.c **** * \param uint8 chHandle:
1006:Generated_Source\PSoC5/CyDmac.c **** *  A handle previously returned by CyDmaChAlloc() or Dma_DmaInitialize().
1007:Generated_Source\PSoC5/CyDmac.c **** *
1008:Generated_Source\PSoC5/CyDmac.c **** * \param uint8 enableRR:
1009:Generated_Source\PSoC5/CyDmac.c **** *  \param 0: Disable Round-Robin fairness algorithm
1010:Generated_Source\PSoC5/CyDmac.c **** *  \param 1: Enable Round-Robin fairness algorithm
1011:Generated_Source\PSoC5/CyDmac.c **** *
1012:Generated_Source\PSoC5/CyDmac.c **** * \return
1013:Generated_Source\PSoC5/CyDmac.c **** * CYRET_SUCCESS if successful.
1014:Generated_Source\PSoC5/CyDmac.c **** * CYRET_BAD_PARAM if chHandle is invalid.
1015:Generated_Source\PSoC5/CyDmac.c **** *
1016:Generated_Source\PSoC5/CyDmac.c **** *******************************************************************************/
1017:Generated_Source\PSoC5/CyDmac.c **** cystatus CyDmaChRoundRobin(uint8 chHandle, uint8 enableRR) 
1018:Generated_Source\PSoC5/CyDmac.c **** {
 1180              		.loc 1 1018 0
 1181              		.cfi_startproc
ARM GAS  C:\Users\natha\AppData\Local\Temp\ccvBOJ1K.s 			page 40


 1182              		@ args = 0, pretend = 0, frame = 0
 1183              		@ frame_needed = 0, uses_anonymous_args = 0
 1184              		@ link register save eliminated.
 1185              	.LVL140:
1019:Generated_Source\PSoC5/CyDmac.c ****     cystatus status = CYRET_BAD_PARAM;
1020:Generated_Source\PSoC5/CyDmac.c **** 
1021:Generated_Source\PSoC5/CyDmac.c ****     if(chHandle < CY_DMA_NUMBEROF_CHANNELS)
 1186              		.loc 1 1021 0
 1187 0000 1728     		cmp	r0, #23
 1188 0002 10D8     		bhi	.L124
1022:Generated_Source\PSoC5/CyDmac.c ****     {
1023:Generated_Source\PSoC5/CyDmac.c ****         if (0u != enableRR)
 1189              		.loc 1 1023 0
 1190 0004 39B1     		cbz	r1, .L123
1024:Generated_Source\PSoC5/CyDmac.c ****         {
1025:Generated_Source\PSoC5/CyDmac.c ****             CY_DMA_CH_STRUCT_PTR[chHandle].basic_cfg[0u] |= (uint8)CY_DMA_ROUND_ROBIN_ENABLE;
 1191              		.loc 1 1025 0
 1192 0006 0001     		lsls	r0, r0, #4
 1193              	.LVL141:
 1194 0008 084A     		ldr	r2, .L125
 1195 000a 835C     		ldrb	r3, [r0, r2]	@ zero_extendqisi2
 1196 000c 43F01003 		orr	r3, r3, #16
 1197 0010 8354     		strb	r3, [r0, r2]
1026:Generated_Source\PSoC5/CyDmac.c ****         }
1027:Generated_Source\PSoC5/CyDmac.c ****         else
1028:Generated_Source\PSoC5/CyDmac.c ****         {
1029:Generated_Source\PSoC5/CyDmac.c ****             CY_DMA_CH_STRUCT_PTR[chHandle].basic_cfg[0u] &= (uint8)(~CY_DMA_ROUND_ROBIN_ENABLE);
1030:Generated_Source\PSoC5/CyDmac.c ****         }
1031:Generated_Source\PSoC5/CyDmac.c **** 
1032:Generated_Source\PSoC5/CyDmac.c ****         status = CYRET_SUCCESS;
 1198              		.loc 1 1032 0
 1199 0012 0020     		movs	r0, #0
 1200 0014 7047     		bx	lr
 1201              	.LVL142:
 1202              	.L123:
1029:Generated_Source\PSoC5/CyDmac.c ****         }
 1203              		.loc 1 1029 0
 1204 0016 0001     		lsls	r0, r0, #4
 1205              	.LVL143:
 1206 0018 044A     		ldr	r2, .L125
 1207 001a 835C     		ldrb	r3, [r0, r2]	@ zero_extendqisi2
 1208 001c 03F0EF03 		and	r3, r3, #239
 1209 0020 8354     		strb	r3, [r0, r2]
 1210              		.loc 1 1032 0
 1211 0022 0020     		movs	r0, #0
 1212 0024 7047     		bx	lr
 1213              	.LVL144:
 1214              	.L124:
1019:Generated_Source\PSoC5/CyDmac.c **** 
 1215              		.loc 1 1019 0
 1216 0026 0120     		movs	r0, #1
 1217              	.LVL145:
1033:Generated_Source\PSoC5/CyDmac.c ****     }
1034:Generated_Source\PSoC5/CyDmac.c **** 
1035:Generated_Source\PSoC5/CyDmac.c ****     return(status);
1036:Generated_Source\PSoC5/CyDmac.c **** }
 1218              		.loc 1 1036 0
ARM GAS  C:\Users\natha\AppData\Local\Temp\ccvBOJ1K.s 			page 41


 1219 0028 7047     		bx	lr
 1220              	.L126:
 1221 002a 00BF     		.align	2
 1222              	.L125:
 1223 002c 10700040 		.word	1073770512
 1224              		.cfi_endproc
 1225              	.LFE23:
 1226              		.size	CyDmaChRoundRobin, .-CyDmaChRoundRobin
 1227              		.data
 1228              		.set	.LANCHOR0,. + 0
 1229              		.type	CyDmaTdFreeIndex, %object
 1230              		.size	CyDmaTdFreeIndex, 1
 1231              	CyDmaTdFreeIndex:
 1232 0000 7F       		.byte	127
 1233              		.type	CyDmaTdCurrentNumber, %object
 1234              		.size	CyDmaTdCurrentNumber, 1
 1235              	CyDmaTdCurrentNumber:
 1236 0001 80       		.byte	-128
 1237              		.bss
 1238              		.align	2
 1239              		.set	.LANCHOR1,. + 0
 1240              		.type	CyDmaChannels, %object
 1241              		.size	CyDmaChannels, 4
 1242              	CyDmaChannels:
 1243 0000 00000000 		.space	4
 1244              		.text
 1245              	.Letext0:
 1246              		.file 2 "Generated_Source\\PSoC5\\cytypes.h"
 1247              		.file 3 "Generated_Source\\PSoC5\\CyDmac.h"
 1248              		.file 4 "Generated_Source\\PSoC5\\CyLib.h"
